:020000040800F2
:1000000038480020690100089D320008C931000805
:1000100099320008AD120008D93F00080000000026
:10002000000000000000000000000000753700081C
:10003000F92400080000000071370008D9380008D2
:100040008301000883010008830100088301000880
:100050008301000883010008830100088301000870
:100060008301000883010008830100088301000860
:100070008301000883010008830100088301000850
:100080008301000883010008610F00088301000854
:10009000991A000883010008830100088301000801
:1000A0008301000883010008830100088301000820
:1000B0008301000883010008830100088301000810
:1000C0008301000883010008830100088301000800
:1000D00083010008E93C000883010008830100084F
:1000E00083010008830100088301000883010008E0
:1000F000830100088301000883010008000000005C
:10010000830100080000000083010008830100084B
:1001100083010008830100088301000883010008AF
:10012000830100088301000883010008830100089F
:1001300083010008000000000000000083010008A7
:10014000830100088301000883010008830100087F
:10015000DFF810D000F04AFB00480047895900083A
:10016000AFF3008038480020064880470648004723
:10017000FEE7FEE7FEE7FEE7FEE7FEE7FEE7FEE757
:10018000FEE7FEE7E9380008510100082DE9F041DB
:100190000024061B254671F1000605DA012400271C
:1001A000D0EB070067EB0101161E73F1000605DABC
:1001B0000027D2EB0702012567EB030300F0A3F849
:1001C00086460E4617469C46AC4204D00025D0EB2E
:1001D000050E65EB010624B10020D2EB000760EBB1
:1001E000030C704631463A466346BDE8F08140EA6A
:1001F00001039B0703D009E008C9121F08C0042AA5
:10020000FAD203E011F8013B00F8013B521EF9D28B
:100210007047D2B201E000F8012B491EFBD27047B3
:100220000022F6E710B513460A4604461946FFF7C2
:10023000F0FF204610BD30B504460020034600E024
:100240005B1C934203D2E05CCD5C401BF8D030BD18
:1002500070B5064603F0C2FE046805460A22002176
:10026000304600F0DFF82C6070BD70B5C1F30A5263
:1002700001F000450024C1F3130140F2FF3341F4C3
:1002800080119A4201DA002070BD40F233439A4255
:10029000A2F2334203DC524200F066F800E09040E4
:1002A0002C43F1D0404270BD00F0004230F00040DD
:1002B0000AD0C10D01F56071C0F3160042EA015188
:1002C000C20840071143704700200146704701F003
:1002D000004330B421F0004150EA010206D00A0D7B
:1002E000A2F56072C1F31301002A02DC30BC0020C9
:1002F0007047440F44EAC104C100E01830BC00EB71
:10030000C25000F0C7B82DE9F05F054600209246C4
:100310009B4688460646814640241BE028464146C7
:100320004746224600F020F853465A46C01A9141EB
:1003300010D311461846224600F06AFA2D1A67EBD0
:1003400001084F4622460120002100F061FA17EB18
:1003500000094E41201EA4F10104DFDC484631466D
:100360002A464346BDE8F09F202A04DB203A21FAC2
:1003700002F00021704721FA02F3D040C2F12002BE
:1003800091400843194670470FB4002300B589B067
:100390000CA900910B996FF00042CB601E4B0693A5
:1003A0001E4B07930423CDE901321D4A08920246F1
:1003B0006B46002000F0F0FA09B05DF814FB70B550
:1003C00086B006464FF0FF300091CDE901010020D4
:1003D00015460C4604903246694604A8FFF7D4FF40
:1003E00002460498211825B108B1084600E02046CD
:1003F0002860049800280DD0002A02DD0098884269
:1004000008D0081B0094CDE901043246694604A8CF
:10041000FFF7BAFF06B070BDD10B0008EF0B000864
:100420005D0800082DE9F04791460F4680460446D6
:10043000002614F8015B2DB100F00CFA0068405D55
:10044000C007F6D12B2D02D02D2D18D0641E4A46A0
:100450003946204600F0DCFB27B13968A14201D1C2
:10046000C7F8008071054FF002040BD54042002808
:1004700003DD03F0B3FD0460A007BDE8F08746F498
:100480008066E4E70028F8DA03F0A8FD04606FF066
:100490000040F2E70029A8BF7047401C490008BF90
:1004A00020F00100704710B4B0FA80FC00FA0CF0A4
:1004B00050EA010404BF10BC704749B1CCF12004DC
:1004C00021FA04F411FA0CF118BF01212143084369
:1004D000A3EB0C01CB1D4FEA00614FEA102042BF95
:1004E000002010BC704700EBC35010440029A4BF8B
:1004F00010BC7047401C490008BF20F0010010BC30
:100500007047F0B400F0004221F0004120F00040BC
:10051000CE0DC30DC1F3160141F40001C0F3160066
:100520004C42154640F40000761E09E010EB4400F2
:1005300002D582F0004240428842F7D840005B1E5C
:10054000B342F9DA18B1F0BC0021FFF7ACBF28467E
:10055000F0BC70472DE9FE4F804681EA0300C00FD2
:100560000C46009021F0004123F00045B8EB02005A
:10057000A94105D24046214690461C460B460246FC
:1005800023F00040104347D0270DC7F30A00C3F300
:100590000A510290401A019040286BDAC3F313000D
:1005A00040F4801B0098924620B10023D2EB030A4E
:1005B00063EB0B0B01985946C0F14002504600F026
:1005C00027F906460D4650465946019A00F02FF984
:1005D00010EB08006141002487EA115284EAE773B6
:1005E0001A4340D0009A62B3019A012A4FEA075297
:1005F00015DC001B61EB02014FF0004202EA0752DA
:10060000CDE90042001C41F5801132462B4600F036
:100610005DFB03B0BDE8F08F40462146F9E7001BC3
:1006200061EB0201001C41F5801300185B412018AA
:10063000A2F5001747EB030140EAD570B6196D41EA
:1006400011E06D084FEA360645EAC0754FEA0752D9
:10065000001B61EB0201001C41F5801149084FEAC3
:1006600030000019514132462B4603B0BDE8F04F2F
:1006700000F01DBB0098012240000023D0EB0202D5
:1006800063EBE073009821464FEAE074B8EB00009A
:1006900061EB0401E9E783F000435BE781F000418F
:1006A00058E700002DE9F041054621F000400C46D6
:1006B000284309D0C4F30A5040F23341884205DD93
:1006C00028462146BDE8F0812846FBE740F2FE318E
:1006D000884210DC0CDB4FEA043040EA155050EA47
:1006E000053105D0104804F0004101430020E9E73E
:1006F00000200146E6E7A0F233404642C6F1400240
:100700002846214600F084F80746884628462146B8
:100710003246FFF729FE43463A4600F0C8FA324611
:10072000BDE8F04100F074B80000F03F30B5041EA1
:1007300071F1000404DB4FF00044404264EB01011E
:10074000141E73F1000405DB1C464FF000435242B7
:1007500063EB04038B4208BF824230BD30B5041EF8
:1007600071F1000404DB4FF00044404264EB0101EE
:10077000141E73F1000405DB1C464FF00043524287
:1007800063EB0403994208BF904230BD70B5044644
:1007900001F000450020054304D14FF000456442BC
:1007A00065EB010103F00045284305D118464FF0E1
:1007B0000043524263EB0003101B73EB010002D2B3
:1007C0004FF0004009E082EA040283EA01034FF09F
:1007D00000501A4301D14FF0C0404FEA2062EFF3BE
:1007E000008162F31F6181F3008870BD064C074DE4
:1007F00006E0E06840F0010394E8070098471034F1
:10080000AC42F6D3FFF7A8FC906F0008B06F000869
:10081000202A04DB203A00FA02F1002070479140C0
:10082000C2F1200320FA03F3194390407047202AB5
:1008300006DBCB17203A41FA02F043EAE07306E008
:1008400041FA02F3D040C2F1200291400843194618
:1008500070470000004870478C6F000810B50446D0
:10086000FFF7F8FF0068005D00F0010010BD000018
:100870002DE9FF4F087883B09946FF2805D0491C21
:100880002D2804D00024002008E000200BE00124E3
:10089000F9E700EB800003EB4000491C0B78FF2BCD
:1008A000F7D104B1404200230293147819461D4643
:1008B0002D2C01D02B2C04D1521C2D2C13D0002414
:1008C0000294AA461478FF2C0FD00A25A3FB0578C2
:1008D00001FB05814FF0000C03FB0C11521CE319C6
:1008E0004AEB0101EEE70124EAE7814453EA010003
:1008F00002D019F5C87F06DA03980021C0E900117B
:1009000007B0BDE8F08F0025AE4E2F46DFF8B88265
:10091000184600F018FBCDE90001B9F1000002DA39
:10092000C9F1000400E004460023A74A1AEB030BB8
:1009300042EB045A12E0E00707D02A463346384615
:10094000414600F01FFA074688462A4633461046BD
:10095000194600F017FA05460E466410002CEAD13D
:10096000DDE90001B9F1000F5A46534606DA00F0FE
:100970007BFA3A46434600F077FA05E000F002FAC7
:100980003A46434600F0FEF9029A0AB181F000416E
:10099000039AC2E90001B3E72DE9FF4F1F468DB06E
:1009A000D7E901464FF0FF382E2045464FF00009A9
:1009B0000B90B9696D1C0E988847396A8246884742
:1009C0000028F6D1BAF1FF3F0AD024F4D064002EFB
:1009D00011DDBAF12B0F08D0BAF12D0F0BD102E0C7
:1009E000404611B08DE744F48064B9696D1C0E98DF
:1009F00088478246761E6946600501D52D2000E0B5
:100A00002B208DF8000001F1010B0DF1200809E009
:100A1000B9696D1C0E98884782460F9844F400749B
:100A2000761E0560002E02DDBAF1300FF0D00B9972
:100A30008A453ED144F0800406E00F99681CA9F174
:100A4000010944F400740860B9696D1C761E0E98A3
:100A5000884782463028F0D02BE00B998A4505D193
:100A6000200603D444F08004761E18E0504603F0BC
:100A7000A9FC08B30DF11301761E44F400748B45F4
:100A800008D2AAF130000BF8010B200607D5A9F116
:100A9000010003E0200602D409F101008146A0050F
:100AA00002D50F99681C0860B9696D1C0E988847BB
:100AB0008246002ED1DC53E0002E51DDBAF1650FE5
:100AC00002D0BAF1450F4BD1A00549D5B9696D1CCB
:100AD00024F44074761E0E9888478246002E0CDD62
:100AE0002B2804D0BAF12D0F07D144F48074B969D2
:100AF0006D1C0E9888478246761EE00501D52D2193
:100B000000E02B2108F8011BCDF82C8021E00DF12D
:100B10002901761E44F4007488450CD2AAF13000F5
:100B200010F0FF0088F8000002D10B99884509D920
:100B300008F1010806E0E00501D5244801E042F291
:100B40000F708146B9696D1C0E98884782460F98D0
:100B50000560002E04DD504603F034FC0028D6D199
:100B6000F9690E988847FF208BF8000088F800008C
:100B70000020069007904B466A4608A906A8FFF792
:100B800077FEA00502D46FF001002AE714F0240FCD
:100B90000AD0E00714D1DDE906123868031D3B6076
:100BA0000068C0E900120BE0DDE90601FFF78FFBEA
:100BB0000146E00704D13868021D3A600068016010
:100BC00028460EE7000014400000F03FF1D8FFFF78
:100BD000426842B1016811F8013B23B1521EC0E9DD
:100BE0000012184670470121C160881E7047426894
:100BF0005AB1C368016843B983688B4205D0491E66
:100C0000521CC0E90012002070474FF0FF307047BF
:100C10002DE9F05F82460078002715468B460AF1E1
:100C20000104B946302801D09DB113E014F8010B3E
:100C30000127782803D0582801D045B10AE00DB12A
:100C4000102D07D10027102514F8010B02E008250C
:100C500000E00A250026B0460EE005FB080005FB73
:100C600006F1012701EB10461FFA80F8B6F5803F28
:100C700000D3B94614F8010B294600F075F8002896
:100C8000EBDABBF1000F05D00FB1641E00E0544653
:100C9000CBF80040B9F1000F06D003F09FF9022114
:100CA0000160C81EBDE8F09F48EA0640FAE710B5AB
:100CB000141E73F1000408DA401C41F1000192187F
:100CC0005B411A4301D120F0010010BD2DE9F04D28
:100CD00092469B4611B1B1FA81F202E0B0FA80F27D
:100CE00020329046FFF794FD04460F4640EA0A0082
:100CF00041EA0B0153465A46084313D0114653EAC2
:100D0000010019D0C8F140025046FFF72DFB0546FF
:100D10000E46504659464246FFF77AFD084305D035
:100D2000012004E020463946BDE8F08D002005434F
:100D300046EAE0762C4337430A986305E40AA0EBC1
:100D400008000022FD0A44EA47540A3002D5002078
:100D50000146E9E7010510196941DDE90845001977
:100D60006941BDE8F04DA2E73A2800D2303820F0C2
:100D70002002412A01D3A2F13700884201D34FF06B
:100D8000FF3070472DE9FE4F81EA030404F0004470
:100D900021F0004100944FF0000B23F0004350EA93
:100DA00001045ED052EA03045BD0C3F30A54C1F3DA
:100DB0000A552C44A4F2F3340194A0FB0254C1F36D
:100DC000130141F48011C3F3130343F4801301FBB7
:100DD000024400FB034E840A970A44EA815447EA1E
:100DE0008357A4FB076802958D0A05FB07854FEA28
:100DF000932C04FB0C542705029D4FEA065847EA42
:100E00001637B5EB08056EEB070C870E920E47EA16
:100E1000811742EA8312A7FB0201B6EB0B0164EBD8
:100E200000042B0D43EA0C335E1844EB1C50DA46E9
:100E30005146E7FB0201C5F313044FEA0B3343EAC3
:100E400014534FEA0432019C43EA0603A4F10C0454
:100E50000294009CCDE900B4FFF738FF03B0BDE871
:100E6000F08F00200146F9E72DE9F04D81EA0304F7
:100E700004F0004B21F0004514464FF0000A23F027
:100E8000004150EA050220D054EA01021DD0C5F30A
:100E90000A570246C5F31303C1F31300C1F30A5600
:100EA00040F4801543F48013A7EB0608101BD646C8
:100EB00008F2FD3873EB050002D308F1010801E0E8
:100EC00092185B41B8F1000F03DA00200146BDE83B
:100ED000F08D00204FF48011064684460EE0171B6B
:100EE00073EB050705D3121B63EB050306434CEABE
:100EF000010C49084FEA300092185B4150EA0107A3
:100F0000EDD152EA030012D082EA040083EA05011F
:100F1000084305D0101BAB4106D20122002306E096
:100F200000224FF0004302E06FF0010253101AEB71
:100F300006004CEB085110EB0A0041EB0B01BDE839
:100F4000F04DFFF7B4BE0EB540F2334202920022DC
:100F5000CDE900221346FFF7B9FE03B000BD000043
:100F600070B52A4D286820F00400286001F09AFB33
:100F70002748284C002100882080284603F0F8FAF2
:100F800060800121284603F0F3FAA0800021224866
:100F900003F0EEFAE08094ED020ADFED200A2188EA
:100FA0009FED1F1A20EE200A00EE901AF8EE600A5C
:100FB00060EE810A9FED1B1A00EE810A84ED020AA1
:100FC0006188A26B891A00EE101AF8EEC00A9FED34
:100FD000160A60EE800AC4ED030AA188E26B891A42
:100FE00000EE901AF8EEE00A60EE800AC4ED040A02
:100FF000216C401A00EE900AF8EEE00A20EE800A1A
:1010000084ED050ABDE8704001F0DABE002401401D
:101010001C000020540100200028014048E17A3FD4
:101020000AD7A33C7BDC7A3CF792D83C04480021E9
:1010300041700078002818BF704702F02FBF0000F1
:10104000DC0000202DE9F0478A4D04462DED028B8F
:1010500082B06878002802BF02B0BDEC028BBDE808
:10106000F0870027DFF8109201282AD0DFF810A2BD
:101070009FED828ADFF80C8240F6B836022856D0FF
:1010800003287CD0042844D1D8F800300020314611
:10109000B6EE000A03EB8002401CD2ED000A491EA6
:1010A00060EE800AC2ED000AF4D101206E60287063
:1010B0006F7002B01B20BDEC028BBDE8F04701F061
:1010C000ADBDA86802F0BCFB022822D302F0BEFB33
:1010D000A860D9ED080A6C49BDEEE00AB8EEC00A76
:1010E00030EEC00A10EE100ADFED680A8842C4BF75
:1010F00094ED000A30EE600A09DC10EE100A644933
:10110000884284BF94ED000A30EE200A06D984EDAF
:10111000000A02B0BDEC028BBDE8F087D4ED000AF6
:10112000022030EEC00A84ED000A6F604FE0A8682C
:1011300002F086FB6428ECD302F088FBA86094EDF3
:10114000000AD9ED080A30EE600ADAED8A0AB0EE3C
:10115000C00AF4EEC00AF1EE10FADADD99ED090AE0
:10116000DAED8B0AB0EEC00AB4EEE00AF1EE10FA46
:10117000CFD200F0C5FFD8F800006A6800E028E090
:1011800000EB820080ED000A10EE100A8DF80000DE
:10119000010A8DF80110010C8DF80210000E8DF877
:1011A00003006946104600F033FD94ED000A30EE6E
:1011B000080A84ED000A6868401C6860B042A8DB39
:1011C000401E30EE480A6860032084ED000A687013
:1011D0009FE7A86802F034FB64289AD302F036FB3C
:1011E000A86094ED000AD9ED080A30EE600ADAED45
:1011F0008A0AB0EEC00AF4EEC00AF1EE10FA88DDF9
:1012000099ED090ADAED8B0AB0EEC00AB4EEE00AF5
:10121000F1EE10FABFF47DAF00F072FFD8F80000D5
:101220006A6800EB8200D0ED000A30EE200A80ED03
:10123000000A10EE100A8DF80000010A8DF8011066
:10124000010C8DF80210000E8DF8030042F21070B0
:101250006946104400F0DCFC94ED000A30EE480AC8
:1012600084ED000A6868401E686044BF042068700E
:101270004FE70000DC0000200C0100203EC3AE3927
:10128000B0010020E80000206F12833A6F12833A09
:101290006F1283BA10B5044C0020207002F0FEFDDE
:1012A0000120607010BD0000DC00002001F054BB84
:1012B00070B5094C00252570606801F08DFE6560F1
:1012C00002F028FD054C002802BF0120207070BDEF
:1012D00002F0E4FD257070BDA8000020DC000020B5
:1012E0002DE9F04F04462DED028B8FB0FE49886842
:1012F00000EE100AB8EE400ADFEDFC0A097820EE95
:10130000208A102980F08C83DFE801F0F70815505F
:101310007498C0F8F5F4F3F2F1F0EFEEF24C00201F
:101320009FEDF30AA06004F1240080ED000A01F0B3
:1013300017FB022037E0EF48D4ED030AEE4990EDA9
:10134000870A30EE600AD1ED000A9FEDEC1A40EEFC
:10135000010AC1ED000A90ED880AF4EEC00AF1EE30
:1013600010FA06DCB1EE400AF4EEC00AF1EE10FA13
:1013700007D201F0F7FBDC48012141700F2100F09A
:10138000F8B894ED020A9FEDDA1AF0EE411A03F074
:10139000B9F9D54C49F64041A068814200F240833A
:1013A00001F0E0FB0320207000F03ABBD24890ED42
:1013B000000AD048D0ED870A80EE201A9FEDD00AAF
:1013C00021EE000A80ED010A10EE100A8DF81C00D3
:1013D000010A8DF81D10010C8DF81E10000E8DF8FD
:1013E0001F0007A9012000F03DFCBF490420087040
:1013F00000F016BB9FEDBE8AC248BF4D80ED008A4B
:1014000080ED018ABB48A5F1240690ED880A0020F2
:10141000F1EE400AC5ED000A85ED010AB06001F069
:101420009FFAD5ED000A94ED020AF0EE481AB0EEEC
:10143000481A03F067F9052000F020B9AA4D00F022
:10144000010005F12C0101EB8001D4ED030A91EDBF
:10145000000A30EE200A81ED000A05F1240101EBBB
:10146000800094ED020AD0ED000A9FEDA11AF0EE83
:10147000411A03F047F9A86844F620618842C0F099
:10148000CF8201F06FFB062000F08DB99D4890EDF2
:10149000010AD0ED000A974830EE600AF0EE000A2B
:1014A00090ED881A20EE200AC1EE000A9FED940A02
:1014B00020EE800A80ED020A10EE100A8DF82C0052
:1014C000010A8DF82D10010C8DF82E10000E8DF8EC
:1014D0002F000BA9022000F0C5FB01F05BFB824945
:1014E0000720087000F09CBA7AE2D0E15EE1D7E014
:1014F000C7E06BE040E01AE000E039E27D4890EDA3
:10150000870AD0ED010A7C4820EE200AF0EE080A96
:1015100020EE200AF6EE000A20EE200A80ED000AF6
:1015200001F01EFA704800218160082121E0724814
:10153000F6EE000A90ED000A20EE080A60EE200A9E
:1015400094ED020A9FED6A1AF0EE411A03F0DAF800
:1015500018EE100AB0F1804FC0F262826A48002192
:1015600090ED040A6048B8EEC00A80ED070A816079
:101570000921017000F054BA9FED640A5E4D68EED7
:10158000001AD5ED000A94ED020ADFED598AB0EE9B
:10159000681A03F0B7F818EE100AB0F1804FC0F2E5
:1015A0003F825948A5F12406B0EE681A90ED040A6E
:1015B000F0EE411AB8EEC00A86ED080AD5ED000A31
:1015C00094ED020A03F09EF80A2057E0464E96ED8D
:1015D000080AD6ED070A30EE600ABDEEC00A10EE2A
:1015E000104A00EE104AB8EEC00ADFED490AB0EE2C
:1015F000001A20EE200AF0EEC00A81EE200A10EE5A
:10160000100AFEF751FE41EC100B02F029FE51ECDE
:10161000100BFEF72AFE374D1E28286003DD02203E
:1016200070700F202AE08DF80000010A8DF801107B
:10163000010C8DF80210000E8DF80300694603209E
:1016400000F010FB0A2CC8BF012006DC14F10A0FC1
:10165000B4BF4FF0FF30286900DA28618DF8000030
:10166000010A8DF80110010C8DF80210000E8DF8A2
:1016700003006946042000F0F5FA0B20307000F0FA
:10168000CFB919489FED1A0A002180ED060A1E4ABB
:10169000016180ED050A1268C0E902120C2168E7B9
:1016A000114DDFED1C0ADFED128A95ED060A05F1FA
:1016B0002400B0EE681A70EE201AC5ED061AD0EDBF
:1016C000000A94ED020A03F01DF895ED050AB4EE48
:1016D000C08AF1EE10FA50DD06499FED0C1AD1EDEB
:1016E000000AF8EEE00A17E0A800002017B751380A
:1016F00000000000B0010020CC00002017B7D13856
:10170000ABAA2A3FD40000200C010020DB0FC94007
:1017100000008036BEB5A43920EE811AD5ED061A38
:10172000C1EE810A9FEDC61A0B69012B60EE810A9A
:10173000FDEEE00A10EE902A04BFC248006806D011
:10174000B3F1FF3F04D1BF480068C0F58020801A84
:10175000C20F00EB82426B68286943F82020401CCE
:1017600028610968B0EBC11FA4BF401E2861DFEDEE
:10177000B60A30EE200A85ED050AB44890ED000A5D
:10178000F8EEC00A1FED1F0A60EE800A80EE801A94
:10179000B4EEC81AF1EE10FA00F24281C5ED058AE6
:1017A0000020A8600D20287000F03AB9A84D5FED28
:1017B000270A05F1240095ED060A1FED331A70EE95
:1017C000601AC5ED061AD0ED000A94ED020A02F087
:1017D00099FF95ED050AB4EEC08AF1EE10FA39DDF5
:1017E0009A4A1FED361AD2ED000AF8EEE00A60EED2
:1017F000810A95ED061AC1EE201ADFED910A1269F1
:10180000012A61EEA00AFDEEE00A10EE900A04BF84
:101810008C49096806D0B2F1FF3F04D189490968B3
:10182000C1F58021091AC80F01EB80426968286957
:1018300051F820301A4402EBD272521041F82020A5
:10184000401E286100F1F980DFED7F0A30EE200AAA
:1018500085ED050A7D4890ED000AF8EEC00A1FEDFF
:10186000550A60EE800A80EE801AB4EEC81AF1EED6
:1018700010FA7DD87348E9680068084400EBD0701E
:101880004010E86001F06EF90E202870C8E06F4D3E
:101890000020461ED5F80080014606EBC817002F31
:1018A0001CDD6B4800231946D0F804C0DCF80000AA
:1018B000DCF80440C2175FEA67090DD00CF1080C90
:1018C000001942EBE472DCE900A413EB0A0341EBDC
:1018D000EA71B9F10109F1D1C0185141002F06DBBD
:1018E0005B4A526852F82720101841EBE2714FEA28
:1018F000C8124FEAE273FEF749FC68618DF82000D8
:10190000010A8DF82110010C8DF82210000E8DF8BF
:10191000230008A9052000F0A5F94D48C168C901B8
:10192000CA1701EB92314FEAA14BC0F80CB0D0F8C6
:1019300004900023D5F800C000210CFB03F08024A4
:10194000C701F8170A4607EB506706EBCC18CCF135
:10195000000A00BF02EBE710403848BF00EBCC1094
:1019600003D48045B8BF00EBCA1059F8200000E04E
:1019700056E0521C0144641EECD1C81701EB5060C4
:10198000C1110BEB03007F28C8BF80386A6905EBE3
:101990008000891A5B1C8161802BCBDB5FF0000427
:1019A00005EB840080698DF82000010A8DF8211074
:1019B000010C8DF82210000E8DF8230008A904F107
:1019C0000A0000F04FF90A2001F0D6FE641C802CBA
:1019D000E6DB0120C5F818021B2001F01FF91FE00B
:1019E0001B4D68788DF83000010A8DF83110010C1C
:1019F0008DF83210000E8DF833000CA94FF0FF3037
:101A000000F030F900242C70686801F0E5FA6C6091
:101A100002F080F968B102F041FA0E4804702C70AF
:101A20000B488168491C81600FB0BDEC028BBDE89A
:101A3000F08F084901200870F1E70020286103E7D2
:101A4000000080480C0100200000003CB001002094
:101A5000A8000020DC00002070B50B4C0025206899
:101A600020B10A490D7001F0B7FA2560084C606892
:101A700020B94FF4705001F0F7FA60600548C0F8E3
:101A800018520120207070BDE8000020DC0000200A
:101A9000A8000020B001002000B585B0684600F025
:101AA0007FF8002804BF05B000BD684600F028F9A3
:101AB000684600F075F80028F7D105B000BD0000B9
:101AC00010B584B040F2197004F09AFB40F2026045
:101AD00004F096FB4FF4C06004F092FB2D4C4FF4E1
:101AE000006303224821204603F0FCFEA3140322D6
:101AF0001821204603F0F6FE6946002003F098F80E
:101B0000254C204602F08EFE206840F40040206004
:101B1000216811F4004FFBD120490A6812F0020F2E
:101B2000FBD0002101208DF807108DF805008DF8FD
:101B300008108DF809008DF800100320ADF80A0098
:101B40008DF801100D208DF802008DF8061004208C
:101B50008DF804108DF803006946204602F057FF07
:101B60000E2002F047FE002302221946184602F01A
:101B7000EDFE00231A461946184602F0E7FE002241
:101B80000221142003F032FF0221204602F0F6FF6A
:101B900004B010BD0008014000640040046400402F
:101BA000164A116811F0030F04BF00207047144952
:101BB0000968490D01601349096801F00F010171BD
:101BC00011490B6843710B681B0A83710B681B0C6E
:101BD000C3710968090E01720C490B6843720B68E6
:101BE0001B0A83720B681B0CC3720968090E017310
:101BF000106840F020001060012070470C64004025
:101C0000B0650040B4650040B8650040BC65004068
:101C100000B5134A83B092F874228DF8000002F0E8
:101C20000F0242F09003020A8DF80120020C8DF899
:101C30000220000E8DF8030008788DF80400487823
:101C40008DF8050088788DF80600C8788DF80700B3
:101C500008226946184602F095FF03B000BD000057
:101C6000B001002000B5134A83B092F874228DF8B9
:101C7000000002F00F0242F06003020A8DF801201A
:101C8000020C8DF80220000E8DF8030008788DF804
:101C9000040048788DF8050088788DF80600C8782B
:101CA0008DF8070008226946184602F06BFF03B062
:101CB00000BD0000B001002008B50C49042291F8D5
:101CC00074128DF8000001F00F0141F02003010AA9
:101CD0008DF80110010C8DF80210000E8DF8030034
:101CE0006946184602F04EFF08BD0000B001002012
:101CF00010B501F0ABFD0149086010BD08000020DF
:101D00002DE9F041EC4E07680446D6F8741207F04E
:101D10000F004FEA171881421CBF0028BDE8F08170
:101D2000E64DD6F8780210B101F090FD2860B8F1C8
:101D3000190F28BFBDE8F081DFE808F0730DA02778
:101D40003851A07362A07384B0D7FEFDFCFBFAF992
:101D5000F8F7F6F5F4006D2000F060FF6071010AFD
:101D6000A171010CE171000E2072D5480822006AB1
:101D70006072010AA172010CE172000E2073611DF4
:101D80003846BDE8F04102F0FDBE7A2000F046FF83
:101D90006071010AA171010CE171000E2072042230
:101DA000611D3846BDE8F04102F0ECBE00F030FFA6
:101DB0006071010AA171010CE171000E207200F046
:101DC00021FF6072010AA172010CE172000E207302
:101DD0000822611D3846BDE8F04102F0D3BE632001
:101DE00000F01CFF6071010AA171010CE171000E8D
:101DF00020720422611D3846BDE8F04102F0C2BEE7
:101E0000612000F00BFF6071010AA171010CE1710A
:101E1000000E20720422611D3846BDE8F04102F038
:101E2000B1BE1B2000F0FAFE6071010AA171010C25
:101E3000E171000E20720422611D3846BDE8F041B8
:101E400002F0A0BED6F87C02002808BFBDE8F081F1
:101E500000F0DEFE022818BFBDE8F081D6F830029F
:101E6000062828BFBDE8F081DFE800F003030A0A76
:101E7000119395ED030A934880ED020ABDE8F081C5
:101E8000904895ED020A80ED010ABDE8F0818D4889
:101E900095ED010A80ED000ABDE8F081617961F3FA
:101EA0000700A17961F30F20E17961F31740217AEE
:101EB00061F31F606860D6F87C02002818BFBDE897
:101EC000F08100F0A5FE022818BFBDE8F081D6F829
:101ED0003002062828BFBDE8F081DFE800F00505E4
:101EE0000404035AD3E7CBE7C3E7617961F3070042
:101EF000A17961F30F20E17961F31740217A61F351
:101F00001F60A860D6F87C02002818BFBDE8F081E9
:101F100000F07EFE022818BFBDE8F081D6F830023E
:101F200006280AE0B6E0A9E097E08FE087E076E0D7
:101F300065E054E043E032E00AE028BFBDE8F0810C
:101F4000DFE800F0050504040327A0E798E790E721
:101F5000617961F30700A17961F30F20E17961F301
:101F60001740217A61F31F60E860D6F87C020028F0
:101F700092D100F04DFE02288ED1D6F8300206280C
:101F80008AD2DFE800F00505040403067FE777E75F
:101F90006FE795ED010ABDE8F04100F07DBA4848D1
:101FA0000422006A6071010AA171010CE171000E46
:101FB0002072611D3846BDE8F04102F0E3BD4048A3
:101FC0000422406A6071010AA171010CE171000EE6
:101FD0002072611D3846BDE8F04102F0D3BD3A4899
:101FE0000422806A6071010AA171010CE171000E86
:101FF0002072611D3846BDE8F04102F0C3BD324891
:10200000042280686071010AA171010CE171000E67
:102010002072611D3846BDE8F04102F0B3BD2A4888
:102020000422C06A6071010AA171010CE171000E05
:102030002072611D3846BDE8F04102F0A3BD0122C7
:10204000611D3846BDE8F04102F064BE0022611D0A
:102050003846BDE8F04102F05DBE752000F0DEFDBF
:102060006071010AA171010CE171000E207204225D
:10207000611D3846BDE8F04102F084BD01F030FF3B
:1020800000206071A071E07120720422611D384649
:1020900002F078FD022060710021A171E1712172CE
:1020A00001206072A172E17221730822611D38461D
:1020B000BDE8F04102F066BDB0010020080000203C
:1020C0000C010020480100205401002010B50A4CEA
:1020D000D4F87802002808BF10BD0848006801F055
:1020E000AFFBD4F87812884298BF10BD1B20BDE822
:1020F000104000F093BD0000B00100200800002057
:10210000014890ED040A7047200000202DE9F041BD
:10211000DFF8648307462DED068BB0EE60AAF0EE83
:10212000409A9FEDD69AD64DD64C0629D5ED951AF4
:1021300095ED962AB1EE611AB1EE420A80F029813E
:10214000DFE801F003236685D0D5D7ED020AF4EE6F
:10215000C00AF1EE10FACCBFB0EE601AB0EE401A31
:10216000B4EEC21AF1EE10FAC8BFB0EE420A06DCB5
:10217000F4EEC00AF1EE10FAC8BFB0EE600A84EDCA
:10218000030AB0EE408A00F004B9D7ED021AF4EE6B
:10219000C01AF1EE10FACCBFF0EE610AF0EE400A80
:1021A000F4EEC20AF1EE10FAC8BFF0EE421A06DCF5
:1021B000F4EEC01AF1EE10FAD8BFF0EE401A95ED29
:1021C0008D0AD4ED030A20EE090A71EEE01AB0EE92
:1021D000C01AB1EE410AF4EEC01AF1EE10FACCBF0B
:1021E000B0EE612AB0EE402AB4EEC12AF1EE10FA48
:1021F000C8BFB0EE410A06DCF4EEC01AF1EE10FAE8
:10220000C8BFB0EE610A30EE808A84ED038AC0E078
:1022100097ED010AB4EEC10AF1EE10FACCBFF0EE70
:10222000400AF0EE410AF4EEE10AF1EE10FAC8BFFE
:10223000B0EE611A06DCB4EEC10AF1EE10FAC8BFC6
:10224000B0EE401A84ED021AF0EE418AA1E097ED5B
:10225000010AB4EEC10AF1EE10FACCBFF0EE400A6A
:10226000F0EE410AF4EEE10AF1EE10FAC8BFB0EE6A
:10227000610A06DCB4EEC10AF1EE10FAD8BFB0EE86
:10228000410AD5ED8E0AD4ED021A60EE890AB0EE4D
:10229000E01A70EE610AB1EE410AF4EEC00AF1EE06
:1022A00010FACCBFB0EE602AB0EE402AB4EEC12ADC
:1022B000F1EE10FAC8BFB0EE410A06DCF4EEC00A37
:1022C000F1EE10FAC8BFB0EE600A71EE808AC0EE7F
:1022D000090AC4ED028A95ED030A20EE800A84ED16
:1022E000030A56E097ED000A84ED010A51E02078D8
:1022F000DFED65AA654E98B197ED000AD5ED912AFC
:1023000095ED902AD5ED8F1A94ED021AD4ED010ABD
:1023100001F0D6FBC6ED04AA00203075207001E064
:10232000307DB0BB96ED040AD6ED030AB4EEE00AA8
:10233000F1EE10FA0ADD97ED000A012084ED010AA2
:10234000C4ED02AAC4ED03AA307522E001F048FBF7
:1023500096ED000A84ED010AD6ED010AC4ED020AE9
:10236000D6ED020A95ED031A60EE810AC4ED030A68
:10237000D8ED080A30EE600AB0EEC00A10EE100A7E
:10238000B0F17E5F05DA96ED040A30EE090A86EDBB
:10239000040AD5F83002042825DB94ED010A95EDF6
:1023A000921AD4ED020A30EE4A0A41EE000A95ED87
:1023B000950AF1EE408AF4EEE08AF1EE10FA34BFAD
:1023C000B0EE601AB0EE681AB4EEC10AF1EE10FA7F
:1023D00038BFF0EE408A06D3F4EEE08AF1EE10FA50
:1023E00038BFF0EE608A02280BDB78EEE99AD5ED73
:1023F000930A94ED030A00EEA90AD4ED040A30EE24
:10240000208AD5F8240298B12148007880B1D8F804
:10241000040040F6B7314843C11700EB91301D4925
:102420008014096801EB800090ED000A30EE088A04
:1024300095ED960AF1EE400AF4EEC80AF1EE10FAB4
:10244000C8BFB0EE608A11DCB4EEC80AF1EE10FA33
:1024500038BFB0EE408A09D395ED940A60EE090AC0
:1024600094ED040A00EEA90A84ED040AB0EE480ACD
:10247000BDEC068BBDE8F0810C01002017B7513888
:10248000B001002020000020000000009801002082
:10249000DC000020E80000200348044980ED000A29
:1024A0000120087070470000480100202000002033
:1024B0000E499FED0D0A0E4A81ED040AD2ED080A7D
:1024C000C0ED000A80ED010A80ED020AD2ED080A93
:1024D0000020C1ED010A81ED020A81ED030A0870B6
:1024E000044901200875704700000000200000200A
:1024F0000C0100209801002000F02EBA30B587B002
:1025000040F2026003F07CFE4FF4C06003F078FEFE
:1025100040F20C6003F074FE294C1021204603F0B9
:10252000DFF9102303221946204603F0DBF9A0232C
:1025300003221821204603F0D5F940230322042169
:10254000204603F0CFF91F4D284603F08EFE684663
:1025500003F0D2FE00244FF48270CDE90004032082
:1025600005906815CDE90240102006906946049454
:10257000284603F0AAFE284603F06DFE0A2001F06B
:10258000FBF811489FED110AC460046180ED050A53
:1025900080ED060A80ED070A80ED080A80ED090A41
:1025A00080ED0A0A80ED0B0A80ED0C0A9FED080A07
:1025B00080ED0D0A9FED070A80ED0E0A07B030BDD1
:1025C00000080140003001400C0100200000000024
:1025D00000007A450024744A70B52F481025056024
:1025E0002E4E0221304603F06BFE0028F9D08321E5
:1025F000304603F038FE0221304603F061FE002829
:10260000F9D0FF21304603F02EFE0121304603F0C1
:1026100057FE0028F9D0304603F022FE0221304652
:1026200003F04EFE0028F9D0FF21304603F01BFED8
:102630000121304603F044FE0028F9D0304603F073
:102640000FFE60F307040221304603F039FE002834
:10265000F9D0FF21304603F006FE0121304603F099
:102660002FFE0028F9D0304603F0FAFD60F30F2466
:102670000121304603F024FE0028F9D0304603F053
:10268000EFFDC4F307208008E1B28A0242EA00109D
:10269000084303490D6070BD14080140003001403B
:1026A000100801402DE9F0412DED068BFFF794FF56
:1026B0009F4CA04E2060D6F8181211B3C11206EB41
:1026C00081018A69012101EBE021CB1701EB536302
:1026D00023F07F03C91A06EB8101034689696FF372
:1026E0000A03C31A891A594302EBE121401AB0F5D3
:1026F000802FC8BFA0F5802003DC0028B8BF00F5FC
:10270000802007466060E1684FF48022401A90FB09
:10271000F2F302FB1305002DB8BF05F58025B5F5D2
:10272000003FC8BFA5F58025206900EB05084819C2
:10273000C4E903084FF4802190FBF1F0E76094EDC9
:10274000050AD4ED060A9FED7C8A00EE880A84ED26
:10275000050AD4ED078A10EE100A40EE888AC4ED0F
:10276000078AFDF7A1FD41EC100B01F059FC51EC7B
:10277000100BFDF77AFDA8EB000000EE100A18EE32
:10278000900AF8EEC09AFDF78FFD41EC100B01F0B6
:1027900047FC51EC100BFDF768FD381A00EE100AEB
:1027A000B8EEC00A9FED659A30EE090ADFED648A43
:1027B000F0EE680A01F0FAFCB5EEC00AF1EE10FA8C
:1027C0003CBFF0EE680A30EE200A30EE499AD4EDB4
:1027D0000D0A94ED050A60EE880A00EEA90A84ED60
:1027E000050A94ED070A00EE890AF0EE680A84ED06
:1027F000070A01F0DBFCB5EEC00AF1EE10FA38BFB3
:1028000030EE280A84ED070A94ED0E1AD4ED060A7C
:10281000002761EE081A41EE890AC4ED060AF5EEBA
:10282000C00AF1EE10FAD8BFF1EE600ADFED451AEA
:1028300021EE211ADFED448AF4EEC10AF1EE10FA1E
:102840003CBFC4ED068A0127D4ED0A0A94ED051AAF
:102850009FED3E9AF6EE009AB7EE00AA21EE091A15
:1028600020EE090A84ED081A94ED061A21EE091AE1
:1028700084ED091A84ED0A0A30EE600AF0EE4A0A85
:1028800030EE290A01F092FCE0687169411A002FCC
:1028900018BFC4ED0C9A1FD1002DB8BF84ED0CAA4F
:1028A00018DC19DB94ED0C0AD4ED060A00EE880A58
:1028B00010EE100A84ED0C0AB0F17E5FC8BFB7EECF
:1028C000000A84ED0C0AB5EEC00AF1EE10FAC8BF9A
:1028D000F0EE408AC4ED0C8A00EE101AD4ED0C0A1A
:1028E0009FED1B8AB8EEC00ADFED1A8A70EE800AEF
:1028F00096ED000AB8EEC00A20EE080A20EE090A9A
:1029000020EE200AF0EE480A30EE280A01F04EFCD4
:10291000B5EEC00AF1EE10FA38BF30EE080A30EE1C
:10292000680A84ED0B0ABDEC068BBDE8F08100005F
:102930000C010020B001002017B7513800000048FA
:102940000000804817B7D137000000000000803633
:10295000DB0FC940DB0F494072B600F091FEFEE785
:1029600010B5EFF3108472B600F0C6FE84F3108841
:1029700010BD000030B504462DED068BF0EE609AD8
:10298000B0EE40AA87B090ED040AD0ED050A90EDB4
:10299000038AB0EE619A30EE600ADFED680A02A9A0
:1029A00001A860EE208AB0EE410A02F081FEDDED62
:1029B000020A9DED011A28EE200A68EEA00A08EE30
:1029C000810A48EE410A94ED091ADFED5D1A21EE05
:1029D000212A9FED5C1A5C4D3AEE40AA00EE012AD6
:1029E00079EEE09A84ED092A94ED0A2A62EE211A22
:1029F00040EE811AC4ED0A1A95ED970A94ED0C1A6F
:102A0000D4ED0D0A00EE0A1A40EE290A94ED020AEE
:102A1000DFED4E1AB7EE002A60EE211A82EE210A8F
:102A200060EE018A20EE208A28EEA80A08EE080A45
:102A3000F1EEC00AF4EE600AF1EE10FA03D001F0F4
:102A40007FFCF0EE400A9FED421A81EE200A10EE64
:102A5000100AB0F17E5F12DA68EE808A28EE008AF2
:102A6000D4ED0C0A9FED3B0A60EE800AC4ED0C0A1F
:102A7000D4ED0D0A20EE800A84ED0D0A15E095EDE7
:102A8000981A9FED350AD4ED0C0A21EE001A4AEE91
:102A9000010AC4ED0C0A95ED981AD4ED0D0A21EE49
:102AA000000A49EE800AC4ED0D0A94ED090AD4ED3E
:102AB0000A0A01A920EE280A684608EE200A84EDD9
:102AC0000B0AB0EE490A02F0F3FD9DED011ADDEDAF
:102AD000000A05AA28EE810A04A903A808EE600AE4
:102AE00068EEA00A48EE010A03F00EFCDDED030AD1
:102AF0009FED1A0A1A4960EE800AFCEEE00A10EE19
:102B0000900A80B20860DDED040A091D60EE800ABB
:102B1000FCEEE00A10EE900A80B20860DDED050AD6
:102B2000091D20EE800ABCEEC00A10EE100A80B229
:102B3000086007B0BDEC068B30BD00003ACD133FF6
:102B40003333733FCDCC4C3DB0010020ABAA2A3FBC
:102B5000AC5C313FA4707D3F17B7513800803B45D6
:102B6000342C014010B5EFF3108472B600F088FDEC
:102B700084F3108810BD00009FED050A80ED090A5E
:102B800080ED0A0A80ED0C0A80ED0D0A7047000006
:102B900000000000094890ED990AD0ED020AB8EE55
:102BA000C01AB8EEC00A60EE810AC0ED970AD0EDF7
:102BB000010A20EE800A80ED980A7047B0010020DB
:102BC0002DE9F0474FF000080446474646464FF4CB
:102BD0007A75C1463C2000F007FE608809F10109C2
:102BE0008044A088A9450744E0880644F2DB98FBAE
:102BF000F5F0A06397FBF5F0E06396FBF5F0206439
:102C0000BDE8F087014800687047000034000020EC
:102C100001480078704700003C00002010B50246D3
:102C200000245F4920461B2A07D00B78062B3FD291
:102C3000DFE803F055074755559601224A70887022
:102C400010BD584B732A02BF05224A7088702FD0DE
:102C50000DDCDFF854C1612ADCF818C219D0632AF0
:102C600011D06D2A04BF1A68002A05D037E0752AF2
:102C700018D07A2A1DD032E0BCF1000F2FD00222EA
:102C80004A70887081E01A684ABB03224A708870D3
:102C90007BE01A681ABBBCF1000F20D004224A70F6
:102CA000887072E001F0C0F8044601F073F8044443
:102CB0006BE0EFF3108172B61860586081F31088F2
:102CC00063E03A493848DFED3A1AD1ED000AD0F80E
:102CD0003002712A06D0772A1ED06D2A55D04FF0C7
:102CE000FF3452E0314A9FED320A062892ED021A73
:102CF00092ED012A31EE000AB6EE001A32EE011A08
:102D000043D2DFE800F01D1D2020030630EEA10AAB
:102D10001EE09FED280A20E0244A9FED250A0628A0
:102D200092ED021A92ED012A31EE400AB6EE001A37
:102D300032EE411A29D2DFE800F003030606090E3D
:102D400081ED020A21E081ED011A1EE030EEE10A78
:102D500081ED000A19E09FED180AFFF79DFB14E0D2
:102D60000D2A14D00E4B082A93F8433012D0DFF806
:102D70004CC003F80C2091F84320521CD2B281F8C9
:102D80004320402A28BF81F84300204610BD02F0AE
:102D900093FEFAE7002B1CBF581E81F84300F4E7AE
:102DA0003C00002034000020B00100204801002039
:102DB0000AD7233C0000C842000000003F0000206A
:102DC0002DE9F0477B4C4FF001082DED028B4FF0C1
:102DD000000961782078814240D0062816D2DFE8C9
:102DE00000F0031206090E12FEF782FF0BE0FFF758
:102DF000B9FE08E0FFF7B6FEFEF75AFA03E0FFF768
:102E0000B1FEFEF713F984F8028001E0A07828B340
:102E100060782070062821D2DFE800F02020030C23
:102E20000F1A6548FFF744FB6448FFF7A5FEFFF75C
:102E300097FD13E0FEF710FE10E05F48FFF738FB48
:102E40005E48FFF799FEFFF78BFDFEF723FA05E0DA
:102E500084F843904021E01CFDF7E2F92078002837
:102E600004BFBDEC028BBDE8F087554EDFED558AFF
:102E70009FED558A554F564D022808D0032802D0A1
:102E800004283ED067E04D48FEF72AFA63E0D6ED0D
:102E9000080A96ED090A4848D7F83012FFF736F9C4
:102EA000D6ED090A454820EEA81AD7ED000AF8EE3B
:102EB000E00A61EE200A97ED041AF8EEC11A21EE3D
:102EC000A02AF8EEC10AB8EEC11A60EE800A96EDAB
:102ED0000B0A20EE011A9FED3F0AF0EE411A42EE76
:102EE000001AB0EE480AFFF745FD96ED090AD7ED46
:102EF0009C0AB0EEC00AB4EEE00AF1EE10FA2ADD48
:102F000025E0D6ED080A96ED090A04212A48FFF7C4
:102F1000FDF897ED041A2948F8EEC10AB8EEC11A77
:102F200060EE800A96ED0B0A20EE011AB0EE480A18
:102F3000F0EE411AFFF71EFD96ED090AD7ED9C0A47
:102F4000B0EEC00AB4EEE00AF1EE10FA03DD286834
:102F500040F0040028601948D7ED9B0A90ED020A62
:102F6000B4EEE00AF1EE10FA03DB286840F001004D
:102F70002860D7ED9A0AB4EEE00AF1EE10FA03D811
:102F8000286840F0020028602868696888420CD0F0
:102F9000286828B1FFF7E6FD84F8018084F80290E4
:102FA0002868FEF789FE28686860BDEC028BBDE8E2
:102FB000F08700003C000020480100205401002060
:102FC0000C010020DB0FC94000000000B001002010
:102FD0003400002051499D38002808BF704730B4A4
:102FE000A0F108011E4B50F8042CD868024204BF1F
:102FF00030BC7047D1F800C0BCF1000F1CBF30BC22
:10300000704722EA000048605A681044586015482A
:1030100002688A4238BF1046FAD3D0F804C00CEBDD
:1030200000048C4203D14968614441600146D1F8F3
:1030300004C00CEB0104944218BF0A600AD11B685B
:103040009A4208BF0B6005D0526862444A60026829
:1030500012680A60884218BF016030BC70470000E7
:10306000EC000020FC0000202DE9F00F534C8446BA
:1030700000202168054604F11003E9B950494FF4D6
:10308000804211F0070F06D0C91D4D4A21F00701FB
:103090008A1AC2F580420A44083AC3E9001522F0B0
:1030A000070222605560561A1560C1E90026A66025
:1030B0004FF000416660E160E7681CEA070F1CBF43
:1030C000BDE8F00F7047BCF1000F04BFBDE8F00F82
:1030D00070470CF1080212F0070F04D002F007014C
:1030E000C1F108010A44002A04BFBDE8F00F70478F
:1030F0006668B24299BFDFF8CCC01968BDE8F00F2E
:1031000070474B68934205D20B68002B1CBF8C465E
:103110001946F6D1D4F80080414504BFBDE8F00F50
:103120007047DCF800000B68CCF800304B680830C2
:10313000A3EB020CBCF1100F30D98B18C3F804C0FC
:103140004A60204AD2F800C09C4538BF6246F9D395
:10315000D2F8049009EB020A9A4503D15B684B440C
:1031600053601346D3F8049009EB030AE24518BFF5
:10317000C3F800C00FD1C44508BFC3F800800AD00F
:10318000DCF804C0CC44C3F804C0D2F800C0DCF8BA
:1031900000C0C3F800C09A4218BF13604B68F21A0F
:1031A0006260D4F808C0624588BF6246A26043EA04
:1031B0000702C1E90052BDE8F00F7047EC000020A3
:1031C00034040020FC000020FFF7C6BB10B540F21D
:1031D000046003F015F8074C4FF40051204602F04C
:1031E0007DFB631420460122BDE81040102102F04F
:1031F00079BB00000010014010B5254C606800F05C
:103200001FFB002808BF10BD00F020FB6060FFF727
:10321000FFFC204A4FF4005140F2DC534FF6FF7C94
:10322000012806D002280BD0032815D0052829D064
:1032300029E0208830B3642822D098421DD222E0B1
:103240002088F8B164281BD0C8281BD0B0F5967F21
:1032500016D0984211D216E0208898B164280FD079
:10326000C8280FD0B0F5967F0AD0B0F5C87F09D036
:10327000B0F5FA7F04D0984205D3A4F800C002E06C
:10328000516100E011612088401C208010BD0000C9
:103290000000002000100140FFF75EBBFFF75CBBA1
:1032A0002DE9F04192B040F2026002F0A9FF40F235
:1032B000036002F0A5FF4FF4C06002F0A1FF40F2EE
:1032C0000B6002F09DFFE64E4FF48073032218213D
:1032D000304602F007FB731503221821304602F036
:1032E00001FB331503221821304602F0FBFADD4CB6
:1032F000731403221821204602F0F4FA4FF480439D
:1033000003221821204602F0EDFA4FF40043032275
:103310001821204602F0E6FAD34F384603F08EFA21
:103320000EA803F0CCFB0024ADF838404020ADF8E7
:103330003A0040F6B7301090ADF84440ADF83C404C
:103340008DF846400EA9384603F050FB684603F05E
:103350006DFA0125ADF800500420ADF80200ADF87B
:103360000440ADF80840ADF80640ADF80A406A46A2
:103370000021384603F0DEF86A460121384603F0A2
:10338000D9F86A460221384603F0D4F86A46032188
:10339000384603F0CFF840F2DC520021384603F003
:1033A000E5F960220021384603F0B8F9082200212F
:1033B000384603F0EBF940F2DC520121384603F0C5
:1033C000D5F960220121384603F0A8F9082201212D
:1033D000384603F0DBF940F2DC520221384603F0B4
:1033E000C5F960220221384603F098F9082202212B
:1033F000384603F0CBF940F6B3320321384603F0E8
:10340000B5F960220321384603F088F90022032130
:10341000384603F0BBF90AA803F064F8ADF8284079
:10342000ADF82C40ADF83040ADF82A40ADF82E4054
:10343000ADF83240ADF834400AA9384603F041F8FF
:1034400000221146384603F0C9F90022012138460E
:1034500003F0C4F900220221384603F0BFF900222C
:103460001146384603F047F800220121384603F0A0
:1034700042F800220221384603F03DF80121384687
:1034800003F014FB384603F017F84FF4A06002F085
:10349000B7FEDFF8D8810021404602F0AFF874484B
:1034A000039074488DF8244005908DF8255028022B
:1034B0000490800006908DF82640C000CDE90750AA
:1034C00003AA0021404602F0B6F80021404602F06F
:1034D00084F80021404602F06FF840F2026002F0EA
:1034E0008FFE40F2096002F08BFE002002F05EFECB
:1034F000082304220021304602F0F4F901230422BB
:103500000021304602F0EEF9022304220021304669
:1035100002F0E8F9584C204600F091FF4FF4A0204B
:1035200001F054F801220221204601F0BEF80122E8
:103530001102204601F0B9F80021204600F076FF84
:1035400001221146204600F055FF012303220021ED
:10355000204601F047F802221146204600F04AFFBB
:10356000002201231146204600F0CAFF01231A461B
:103570001946204600F0C4FF4FF460220121204686
:1035800000F0A9FF01221146204600F085FFA21499
:103590000221204600F09FFF01220221204600F078
:1035A0007BFF00221146122002F020FA042120465F
:1035B00001F007F80421204600F0ECFF204600F05F
:1035C00061FF012000F0D8F8204600F002FF2046FD
:1035D00000F053FF0121204601F057F840F202604D
:1035E00002F00EFE40F20A6002F00AFE04231A46C0
:1035F0000021304602F076F9204C204600F01FFFF3
:103600000021204600F012FF01220221204600F096
:10361000F1FE012302220021204600F071FF4FF449
:10362000E0420221204600F056FF012202212046FE
:1036300000F032FF204600F025FF012000F09CF84A
:10364000204600F0C6FE0221204601F01EF80A20A6
:1036500000F092F8384603F0BBF912B0BDE8F081F3
:1036600000080140000C0140002C01400000024015
:103670004C2401401C00002000240140002801408F
:103680001B4910B540F2DC500860091D0860091D97
:103690000860184C00221146204603F09FF80022D3
:1036A0000121204603F09AF800220221204603F06F
:1036B00095F800221146204602F01DFF002201214C
:1036C000204602F018FF00220221204602F013FFDC
:1036D0000121204603F081F90121204603F080F901
:1036E0000028F9D02046BDE81040012103F075B94B
:1036F000342C0140002C01401B4910B540F2DC5035
:103700000860091D0860091D0860184C012200218D
:10371000204603F063F801221146204603F05EF8CC
:1037200001220221204603F059F8042200212046FC
:1037300002F0E1FE04220121204602F0DCFE042218
:103740000221204602F0D7FE0121204603F045F970
:103750000121204603F044F90028F9D02046BDE8B5
:103760001040012103F039B9342C0140002C0140F4
:10377000FFF7F2B8FFF7F0B82DE9F001461E3CBFA5
:10378000BDE8F00170474FF0E0244FF47A77144819
:10379000144DD0F800C000BFA2694FF47A73002026
:1037A000A1698A4288BF521A05D805D2BCFBF7F836
:1037B000A8EB0108424410440A46BCFBF5F1B0FBFB
:1037C000F1F18B4204D8761EE6D2BDE8F0017047D5
:1037D000BCFBF5F85B1AB0FBF8F108FB1100DFE762
:1037E0000401002040420F00F0B44FF0E02500211A
:1037F000AB69114A114C4FF47A76D2F800C0AA692D
:10380000934288BF9B1A05D805D2BCFBF6F7A7EBFD
:1038100002073B4419441346BCFBF4F2B1FBF2F23D
:1038200090429CBFF0BC7047801ABCFBF4F2B1FB25
:10383000F2F702FB1711E2E70401002040420F00FB
:1038400001490968081A70471800002001480068FB
:10385000704700001800002010B51D484FF47A7121
:1038600084B00068B0FBF1F0411EB1F1807F2ED230
:103870004FF0E02041611749F02281F8142D002417
:10388000846107220261202081F8140D480D02F0A6
:10389000B7FC4FF0804002F0D1FF684603F00FF90B
:1038A0007720ADF800004FF6FF700290ADF80240AF
:1038B000ADF80440ADF80C4069464FF0804003F08D
:1038C00095F84FF0804003F083F804B010BDFEE798
:1038D000040100200FE000E002480168491C01607B
:1038E00070470000180000203948016841F4700159
:1038F00001603848016841F0010101600021416028
:10390000C162016821F4102121F0A85101604FF437
:103910007F018160016821F480210160026800213B
:1039200042F4803202604FF6FF730268491C12F4C1
:10393000003F01D19942F8D1016811F4003F45D010
:1039400025490A6822F0070242F003020A60416832
:10395000416041684160416841F480614160416873
:1039600021F4701121F000514160416841F454117B
:1039700041F000514160C16A184A1140C162C16AF8
:1039800041F0190141F48431C162016841F0806164
:103990000160016811F0006FFBD0016841F0807197
:1039A0000160016811F0007FFBD0416821F0030144
:1039B0004160416841F002014160416811F0080F27
:1039C000FBD000214FF0006002F06CB8FEE7000071
:1039D00088ED00E0001002400020024000F0FEBF31
:1039E00034499FED331AB5EEC00AD1ED000AD1ED8E
:1039F000021A3148F1EE10FA38BFC0ED000A16D3B2
:103A000091ED062AF6EE002AB4EEC20AF1EE10FAA3
:103A100010D291ED031A41EE800A21EE222A60EEC7
:103A2000002A41EE001A42EE220AC0ED000AC0ED63
:103A3000011A2DE0D1ED070A72EE200AF4EEC00A59
:103A4000F1EE10FA0ADD70EE421AD1ED090A91ED9D
:103A5000040A40EE210AC0ED000A17E0D0ED031A77
:103A6000144AF4EEC01AD2ED010AF1EE10FA12DD9A
:103A700030EE610A91ED051A61EE221A20EE002A5D
:103A800021EE000A41EE820AC0ED000A80ED010A33
:103A900080ED021A7047F4EEC01AF1EE10FA88BFFA
:103AA0007047C0ED000A80ED011A80ED021A7047E0
:103AB00000000000800000209801002000000000AD
:103AC00010B52DED0A8BB0EE62BAF0EE418AB0EE81
:103AD00000CAB0EE609A68EEA8BA6BEE0C0AF0EE7F
:103AE00040AA84B0B0EE42AA8BEEA00AF0EE61CA02
:103AF0007AEEC99A10EE100AFCF7D6FBCDE9020166
:103B000018EE900AFCF7D0FBCDE90001039901986B
:103B100061F31E0003909DED020B51EC100BFCF7BE
:103B2000D6FB00EE100A39EEC00A10EE100A00288B
:103B3000B4BFBFEE008AB7EE008A28EE0A0A644CD2
:103B400028EE281A68EE4B0A84ED030A28EE2C0AA8
:103B5000C4ED050A84ED040A68EE001AB4EEE11A19
:103B6000F1EE10FAC4BF28EE4A1A84ED031A30EEC3
:103B7000682A94ED031AF1EE402AB6EE00AAC2EECE
:103B8000011A82EEA02A70EE282AC4ED061A61EE10
:103B90008A1A61EEA21A84ED082A22EE0A2A42EE5F
:103BA000001A28EE292A68EE212AB4EEE22AF1EE64
:103BB00010FA61D221EE0C0A6BEEA01A20EE200A58
:103BC00070EEC10A40EE291A81EEA00A10EE100A2A
:103BD000FCF76AFB41EC100B9FED3FBBB0EE4B1ABC
:103BE000F0EE6B1A00F0A8FA51EC100BFCF76FFB2B
:103BF00000EE900AB1EEE00AB4EE400AF1EE10FADF
:103C00001CBFB0EE600A00F09BFB20EE088A84ED3A
:103C1000048A78EE680A94ED031A80EE810A10EEA9
:103C2000100AFCF741FB41EC110BB0EE4B0AF0EE31
:103C30006B0A00F081FA51EC100BFCF748FBA06115
:103C400094ED051AF1EE480A80EE810A10EE100A92
:103C5000FCF72AFB41EC110BB0EE4B0AF0EE6B0ABD
:103C600000F06AFA51EC100BFCF731FB9FED1C0AD7
:103C7000206284ED070A05E079EEE10A80EE801A01
:103C800084ED071A94ED060AD4ED070A94ED081A9C
:103C9000144870EE200A70EE810AC0ED030A84ED2C
:103CA000009AC4ED01AAC4ED028AD4ED030A08EE1D
:103CB000809A20EE000A60EE8A0A00EE809A84ED77
:103CC000099A04B0BDEC0A8B10BD00000000000092
:103CD0008000002000000000000000000000000044
:103CE000000000009801002010B5094C074920464B
:103CF00002F0F3FE002808BF10BD204602F0E9FEE6
:103D0000BDE81040C0B2FEF789BF00000503050002
:103D10000038014070B50F4C0025206820B942F6EC
:103D2000E460FFF7A1F9206042F6E4620A49FCF77B
:103D30005EFA002242F6E061206801F007FC21688B
:103D400001F50051D1F8E01E814218BF4FF0FF3558
:103D5000284670BDE80000200018010810B50024B6
:103D60004FF4217209490A48FCF741FA00224FF446
:103D70002071074801F0EAFB0549D1F88012814221
:103D800018BF4FF0FF34204610BD000000F00008BF
:103D9000B00100202DE9F047214F002438680028A9
:103DA00004BF4FF0FF30BDE8F087EFF3108872B624
:103DB00001F066FD3C2001F013FD1A4E002500BF06
:103DC00006EB852001F01AFD04443C2001F008FDBB
:103DD0006D1C0C2DF4DBDCB9002242F6E061386882
:103DE00001F0B4FB3F6842F6E0610025C85140F69F
:103DF000B93900BF57F8251006EB850001F052FDD8
:103E000004463C2001F0ECFC14B96D1C4D45F1D387
:103E100001F0ECFC88F310882046BDE8F087000034
:103E2000E8000020001801082DE9F041EFF31086AA
:103E300072B601F025FD3C2001F0D2FC154F38464A
:103E400001F0DCFC05463C2001F0CAFCC5B90022AB
:103E50004FF42071104801F079FB0F490024884687
:103E6000C1F8800258F8241007EB840001F01AFD15
:103E700005463C2001F0B4FC15B9641CA12CF1D31B
:103E800001F0B4FC86F31088002D14BF012000203F
:103E9000BDE8F08100F00008B001002010B50E4C24
:103EA000206820B942F6E460FFF7DEF820600021C8
:103EB0009FED0A0A2268084640F6B83302EB810CEF
:103EC000491C8CED000A02EB810C801C491C8CED16
:103ED000000A9842F2DB10BDE8000020000000005C
:103EE000314807219FED310A016080ED010A9FED05
:103EF000300A002180ED020A9FED2E0AF2EE040A3C
:103F000080ED030AC0F81812C0ED870AF0EE080A27
:103F1000C0ED880A0122C0F8242280ED8A0A9FEDB4
:103F2000260A052380ED8B0AF0EE000AC0F8303235
:103F30009FED220AC0ED8D0A80ED8E0AB3EE0E0AC7
:103F400080ED8F0A9FED1E0A9FED1E1A80ED900AEC
:103F500080ED910A80ED921AC0ED930ADFED1A0A06
:103F60004FF47A73C0ED940ADFED180AC0ED950A9C
:103F7000F3EE040AC0ED960ADFED150AC0ED970ACC
:103F8000C0ED980AF2EE080AC0F86432C0ED9A0A51
:103F9000DFED100AC0ED9B0A80ED9C0AC0E99D216F
:103FA000C0F87C1270470000B0010020CDCC4C3D21
:103FB00082A87B376F12833ACDCCCC3D00004842BB
:103FC0000000C8420000F042CDCC4C3E0000B4429C
:103FD0000000000000002042FEF7BEBC0048704711
:103FE000080100200000000030B583B0044600F056
:103FF000CDF99FED090B05468DED000B0022214602
:104000006846FCF7DCF9284600F0D6F99DED000B78
:1040100003B030BD00000000000000000000000000
:104020002DE9F0412DED020B9FED3D0B2DED028BA7
:104030009FED3D8BDDE90254C4F30A50A0F2FF3638
:10404000142E37DA002E18DA53EC102B9DED020BEC
:1040500051EC100BFCF77EFA53EC182BFCF77EFBAF
:1040600057D2002CA4BF0024254652DA24F0004089
:10407000284318BF2E4C4CD01AE02E4820FA06F7E1
:1040800004EA070028431FD053EC102B9DED020BD0
:1040900051EC100BFCF75EFA53EC182BFCF75EFBAF
:1040A00037D2002C03DA4FF48010F0400444BC43B4
:1040B00000252EE0332E07DCA6F114004FF0FF316F
:1040C00021FA00F73D4206D19DED020BBDEC028BBB
:1040D00002B0BDE8F08153EC102B9DED020B51ECCA
:1040E000100BFCF7DBFA53EC182BFCF737FB10D264
:1040F000002C0DDA142E08BF641C09D0C6F1340060
:10410000012101FA00F02844A84238BF641C05468A
:10411000BD43CDE902549DED020BD7E7000000003E
:104120009C7500883CE4377E000000000000000021
:104130000000F0BFFFFF0F0000B52DED048BB0EEC7
:10414000418AF0EE618AB0EE409AF0EE609A83B058
:1041500053EC182B51EC190BFCF718FB00F07040D6
:10416000B0F1005F1AD018EE101A18EE900A8DED1B
:10417000008B002918BF0121084320F00040C0F146
:104180007F6000F1E040C00F01BFB0EE480AF0EEE2
:10419000680A03B0BDEC048B08BF00BDB0EE490A4D
:1041A00003B0F0EE690ABDEC048B00BD10B52DED37
:1041B000028BF0EE408A18EE900AB0EE608A20F092
:1041C0000040C0F1FF40C00F07D118EE100A20F0E8
:1041D0000040C0F1FF40C00F2BD018EE101A18EEAF
:1041E000900AFCF78EF900EE100A10EE100A6FEA42
:1041F000D05010F0FF0F04BFBDEC028B10BD18EEC5
:10420000900A00F0004110EE100A00F000408142D8
:1042100004BFBDEC028B10BD18EE101A10EE100A90
:10422000BDEC028B61F31E0000EE900A30EE600AD6
:1042300010BD18EE900A4FF07F41B1EB400F1CBF4C
:1042400018EE100A5FEA4000C7D1012000F0B4F870
:10425000BDEC028BBDE8104000F090B800000000FB
:1042600010B52DED020B2DED088B84B09DED0C0BE0
:1042700051EC100BFCF716FA41EC180B9DED0C0BF2
:1042800053EC182B51EC100BFCF705FA41EC190B11
:104290000D989FED290B10F0004F53EC102B51ECB3
:1042A000190B9FED21AB9FED22BB0ED0FCF73EFA20
:1042B0000ED953EC1B2B51EC190BFCF74FFA1CD207
:1042C00014E000BF41EC180B17E0FCF72FFA06D200
:1042D00053EC1A2B51EC180BFCF7DDF9F2E753EC19
:1042E0001B2B51EC190BFCF739FA06D853EC1A2B9F
:1042F00051EC180BFCF72EF9E4E78DED028B9DEDE8
:104300000C0B18EE901A10EE900A8DED000B61F375
:104310001E0003909DED020B04B0BDEC088B02B0B3
:1043200010BD000000000000000000000000F03F91
:10433000000000000000E03F000000000000E0BFBF
:1043400010B52DED028BB1EEC08A18EE100A20F0E8
:104350000040C0F1FF40C00F0AD010EE100A20F05C
:104360000040C0F1FF40C00F04BF012000F024F85E
:10437000B0EE480ABDEC028B10BD0000DFED020A72
:1043800080EEA00A704700000000000001480068AD
:10439000704700000801002002E008C8121F08C191
:1043A000002AFAD170477047002001E001C1121FB6
:1043B000002AFBD1704700000149086070470000E7
:1043C0000801002030380A2801D20120704700205F
:1043D0007047816841F008018160816811F0080F21
:1043E000FBD1816841F004018160816811F0040F04
:1043F000FBD170471205A2F5801201290CD00229C9
:1044000018BF7047816B21F44011816302F44011A1
:10441000826B114381637047C16A21F47001C162EC
:1044200002F47001C26A1143C162704700298168B9
:1044300014BF41F4006121F400618160704710B540
:10444000A0F59230B0F180400DD0B0F5806F18BF6C
:1044500010BD40F20A3001F0F0FEBDE8104040F21D
:104460000A3001F0DBBE40F2093001F0E6FEBDE8A3
:10447000104040F2093001F0D1BE816841F48071F2
:1044800081607047816811F0010F18BF7047816823
:1044900041F0010181607047002A01F001020DD056
:1044A0001AB1826842F48012826011F0020F1ABFC2
:1044B000816841F400417047816070471AB1826899
:1044C00022F48012826011F0020F1CBF816821F477
:1044D0000041F1D1704701290AD0022918BF704765
:1044E000816821F4E04181608168114381607047F7
:1044F000816821F460218160816811438160704787
:1045000010B4D0F838C0846BCCF3015CA1EB0C0183
:10451000C91C01EB81014FF01F0C0CFA01FC24EACD
:104520000C0C02FA01F141EA0C01816307210A2A0D
:104530000CD2D0F810C002EB420291402CEA0101EB
:1045400003FA02F21143016110BC7047122A24BF22
:1045500010BC7047D0F80CC00A3A02EB42029140FE
:104560002CEA010103FA02F21143C16010BC70474A
:10457000002908BFC06B0BD0012908BF006C07D011
:10458000022908BF406C03D0032914BF0020806CAF
:1045900080B2704711F0010F03D0426842F0400230
:1045A000426011F0020F03D0426842F020024260E4
:1045B00011F0040F08BF7047416841F0800141606D
:1045C0007047026822EA01010160704704490A68E5
:1045D00022F470220A600A681043086070470000E5
:1045E0000424014010B44FF01F0C06290CD2446B78
:1045F00001EB81010CFA01FC24EA0C0C02FA01F136
:1046000041EA0C0141631EE00C290DD2046B891FA5
:1046100001EB81010CFA01FC24EA0C0C02FA01F115
:1046200041EA0C0101630EE010290CD2C46A0C3976
:1046300001EB81010CFA01FC24EA0C0C02FA01F1F5
:1046400041EA0C01C16207210A2A0CD2D0F810C03D
:1046500002EB420291402CEA010103FA02F21143FB
:10466000016110BC7047122A24BF10BC7047D0F8FB
:104670000CC00A3A02EB420291402CEA010103FA13
:1046800002F21143C16010BC704711F0010F03D05A
:10469000826842F48002826011F0020F08BF704706
:1046A000816841F4001181607047002A01F4807232
:1046B00014D01AB1426842F48072426011F4806FE3
:1046C00003D0426842F48062426011F0020F1ABFC8
:1046D000816841F002017047816070471AB14268F9
:1046E00022F48072426011F4806F03D0426822F499
:1046F0008062426011F0020F1CBF816821F002014C
:10470000EAD1704710B5B7EE002A2DED048BB0EE5C
:10471000619A82B0DFED321A60EE211A82EE210A30
:1047200060EE208A20EE018A68EEA80A48EE080AA8
:10473000B1EEE00AB4EE400AF1EE10FA1CBFB0EEA2
:10474000600AFFF7FDFD9FED271AC1EE000A10EE8B
:10475000900AB0F17E5FBCBF68EEA08A28EE208A86
:10476000B0EE490A01A9684600F0A2FF9DED011ACA
:10477000DDED000A1C4C28EE810A04F12002111F15
:10478000081F08EE600A68EEA00A48EE010A01F070
:10479000BBFDD4ED060A9FED150A154960EE800AAF
:1047A000FCEEE00A10EE900A80B20860D4ED070A31
:1047B000091D60EE800AFCEEE00A10EE900A80B25D
:1047C0000860D4ED080A091D20EE800ABCEEC00A7C
:1047D00010EE100A80B2086002B0BDEC048B10BD70
:1047E000ABAA2A3FAC5C313F5401002000803B451E
:1047F000342C01400A490A6842F001020A600A6842
:1048000022F47C520A600A684FF47C5303EA0020C9
:1048100010430860086820F001000860704700003D
:104820000066004010B5A0F18041B1F5C84109D043
:1048300040F21A4001F001FDBDE8104040F21A407C
:1048400001F0ECBC40F2194001F0F7FCBDE810406B
:1048500040F2194001F0E2BC30B4817A364B0122BB
:1048600002FA01F11A6842F001021A60DFF8CCC0C6
:10487000DCF800208A43CCF80020C489304AE4B92F
:1048800014688C431460C48845882404C5EA040471
:104890004589ED0005F1804505F5C045C5F8404660
:1048A000848805882404C5EA04044589ED0005F1DF
:1048B000804505F5C045C5F84446C489012C1CD186
:1048C00014680C431460028844881204C4EA02028B
:1048D0004489E40004F1804404F5C044C4F840264F
:1048E0008288C4881204C4EA02024489E40004F104
:1048F000804404F5C044C4F844268489114A002C3D
:1049000014680CBF8C430C43146004890E4A002CBD
:1049100014680CBF8C430C431460007C012804D144
:10492000DCF800000843CCF80000186820F0010013
:10493000186030BC70470000006600401C660040F4
:104940000C6600400466004014660040F0B585B077
:104950000C4605461F4616466946012000F068F9D8
:1049600000234FF0010C4FF6FF70ADF80C3000EA59
:104970004511ADF80A70ADF80EC08DF810C000EA10
:104980004410A6B1012E1DD04FF6FF77C4F34F326D
:1049900007EAC50107EAC404C5F34F3041F004013A
:1049A00044F00404022E18D0032E21D0FEE7ADF807
:1049B0000010ADF80400ADF80830ADF80230ADF8E5
:1049C00006301FE0ADF80010ADF80400ADF808C0E7
:1049D000ADF80230ADF8063014E0ADF80000ADF8E7
:1049E0000420ADF80830ADF80210ADF8064009E03B
:1049F000ADF80000ADF80420ADF808C0ADF8021025
:104A0000ADF806406846FFF727FF05B0F0BD2DE979
:104A1000F00103684FF6FF724FF0000C23F0020321
:104A20000360036843F001030360436813F0010F60
:104A300003D1002A18BF521EF7D1426812F0010FAD
:104A400008BF4FF0000C6CD0036A4FF0F85713F01A
:104A5000010F4FF470264FF4E0554FF4E0044FF48B
:104A6000C0425FD04B7807EA03630F7843EA877749
:104A70008B7806EA034605EA8313334347EA0305C6
:104A8000CB7804EA035402EA83224B8922435B1E5B
:104A90002A43C3F309031A43C2610A79012A02684F
:104AA0000CBF42F0800222F0800202604A79012AA3
:104AB00002680CBF42F0400222F0400202608A7994
:104AC000012A02680CBF42F0200222F0200202609C
:104AD000CA79012A02680CBF22F0100242F01002CB
:104AE00002600A7A012A02680CBF42F0080222F032
:104AF00008020260497A012901680CBF41F00401F3
:104B000021F004010160016821F0010101604FF60C
:104B1000FF71426812F0010F28D0002918BF491E0A
:104B2000F7D127E043F00103036291F8018007EA1F
:104B3000086791F8008047EA88788F7806EA074688
:104B400005EA8715354348EA0506CD7804EA055499
:104B500002EA852222434C893243641EC4F30904CD
:104B60002243C26123F00102026296E7002918BFC6
:104B70004FF0010C6046BDE8F001704742691143F7
:104B800041617047DFF8A4C010B4DCF80040002396
:104B900014F0806F38D000BF4FEA405C180100F17C
:104BA000804000F5C040C0F880C5D0F8843523F0BF
:104BB000BF03C0F88435D0F8843502F00F021A43E1
:104BC000C0F884250A78CB7891F801C042EA0362E4
:104BD0008B781B0443EA0C231A43C0F888250A7912
:104BE000CB7942EA03628B7949791B0443EA0121BC
:104BF0001143C0F88C15D0F8801541F00101C0F8C0
:104C0000801510BC01207047DCF8003013F0006FF5
:104C100018BF0123C0D1DCF8003013F0805F14BF4F
:104C200002230020B8D110BC704700000864004087
:104C300030B459B101239C0200224FF0020C052828
:104C400066D2DFE800F004121D2A4700FEE74A7131
:104C5000CA718A714C810A724A7081F802C0CA70A6
:104C60000A714A720A7030BC7047CB810A740A819B
:104C70000A804A808A80CA808A814A8130BC704713
:104C80008C820A7481F811C08B748A70CA604B7070
:104C90000A708A604A6030BC704781F84C2081F805
:104CA0004D20002381F84B204FEA030001EB030C59
:104CB0005B1C8CF80B2001EB030C801C5B1C8CF83C
:104CC0000B204028F2DB8A724A600A724A720A603C
:104CD00030BC704781F84D2081F84E20002381F8C8
:104CE0004C20184601EB030C5B1C8CF80B2001EBED
:104CF000030C801C5B1C8CF80B204028F2DB8A72B2
:104D00004A600A7281F84B204A720A6030BC7047D0
:104D1000FEE7000070B5054608780C4660F3070111
:104D2000607860F30F21A07860F31741E07860F3BA
:104D30001F611F2928BF70BDDFE801F0FD102F4E55
:104D40006D8CADCEFCFBFAF9F8F7F6F5F4F3F2F161
:104D5000F0EFEEEDECEBEAE9E8E7E6006AB1207986
:104D600060F30701607960F30F21A07960F31741C8
:104D7000E07960F31F61FE480160FD480068207122
:104D8000010A6171010CA171000EE07121462846F3
:104D9000BDE870400822FFF7F5BE6AB1207960F3E4
:104DA0000701607960F30F21A07960F31741E07982
:104DB00060F31F61EE484160ED4840682071010AD0
:104DC0006171010CA171000EE07121462846BDE819
:104DD00070400822FFF7D6BE6AB1217961F307005F
:104DE000617961F30F20A17961F31740E17961F3F3
:104DF0001F60DF498860DE4880682071010A6171A8
:104E0000010CA171000EE07121462846BDE87040FA
:104E10000822FFF7B7BE6AB1217961F30700617913
:104E200061F30F20A17961F31740E17961F31F600D
:104E3000CF49C860CE48C0682071010A6171010C79
:104E4000A171000EE07121462846BDE8704008229D
:104E5000FFF798BE72B1217961F30700617961F3C0
:104E60000F20A17961F31740E17961F31F60C04918
:104E7000C1F81802BE48D0F818022071010A617109
:104E8000010CA171000EE07121462846BDE870407A
:104E90000822FFF777BE72B1217961F307006179CB
:104EA00061F30F20A17961F31740E17961F31F608D
:104EB000AF49C1F81C02AE48D0F81C022071010AAB
:104EC0006171010CA171000EE07121462846BDE818
:104ED00070400822FFF756BE72B1217961F30700D6
:104EE000617961F30F20A17961F31740E17961F3F2
:104EF0001F609F49C1F820029D48D0F82002207110
:104F0000010A6171010C17E0FCE2DAE2B8E296E214
:104F100074E252E22EE20CE2EAE1C8E1A6E184E1A9
:104F200062E140E11AE1F8E0D6E0B4E092E070E03E
:104F30004EE02CE00AE006E3A171000EE07121468C
:104F40002846BDE870400822FFF71CBE72B12179E7
:104F500061F30700617961F30F20A17961F31740D4
:104F6000E17961F31F608249C1F824028048D0F8DA
:104F700024022071010A6171010CA171000EE0711F
:104F800021462846BDE870400822FFF7FBBD72B1FC
:104F9000217961F30700617961F30F20A17961F351
:104FA0001740E17961F31F607149C1F82802704828
:104FB000D0F828022071010A6171010CA171000E64
:104FC000E07121462846BDE870400822FFF7DABDAF
:104FD00072B1217961F30700617961F30F20A17942
:104FE00061F31740E17961F31F606149C1F82C0258
:104FF0005F48D0F82C022071010A6171010CA17187
:10500000000EE07121462846BDE870400822FFF7F7
:10501000B9BD72B1217961F30700617961F30F20A5
:10502000A17961F31740E17961F31F605049C1F83C
:1050300030024F48D0F830022071010A6171010C32
:10504000A171000EE07121462846BDE8704008229B
:10505000FFF798BD72B1217961F30700617961F3BF
:105060000F20A17961F31740E17961F31F60404996
:10507000C1F834023E48D0F834022071010A61714F
:10508000010CA171000EE07121462846BDE8704078
:105090000822FFF777BD72B1207960F307016079CC
:1050A00060F30F21A07960F31741E07960F31F618D
:1050B0002F48C0F838122E48D0F838022071010A63
:1050C0006171010CA171000EE07121462846BDE816
:1050D00070400822FFF756BD72B1217961F30700D5
:1050E000617961F30F20A17961F31740E17961F3F0
:1050F0001F601F49C1F83C021D48D0F83C022071D6
:10510000010A6171010CA171000EE071214628466F
:10511000BDE870400822FFF735BD72B1217961F317
:105120000700617961F30F20A17961F31740E179FC
:1051300061F31F600E49C1F840020D48D0F84002EB
:105140002071010A6171010CA171000EE07121460C
:105150002846BDE870400822FFF714BD92B12179BE
:1051600061F30700617961F30F20A17902E000008B
:10517000B001002061F31740E17961F31F60F2494B
:10518000C1F84402F048D0F844022071010A61716C
:10519000010CA171000EE07121462846BDE8704067
:1051A0000822FFF7EFBC72B1217961F30700617942
:1051B00061F30F20A17961F31740E17961F31F607A
:1051C000E149C1F84802E048D0F848022071010ADC
:1051D0006171010CA171000EE07121462846BDE805
:1051E00070400822FFF7CEBC72B1217961F307004D
:1051F000617961F30F20A17961F31740E17961F3DF
:105200001F60D149C1F84C02CF48D0F84C02207140
:10521000010A6171010CA171000EE071214628465E
:10522000BDE870400822FFF7ADBC72B1217961F38F
:105230000700617961F30F20A17961F31740E179EB
:1052400061F31F60C049C1F85002BF48D0F8500256
:105250002071010A6171010CA171000EE0712146FB
:105260002846BDE870400822FFF78CBC72B1217956
:1052700061F30700617961F30F20A17961F31740B1
:10528000E17961F31F60B049C1F85402AE48D0F82B
:1052900054022071010A6171010CA171000EE071CC
:1052A00021462846BDE870400822FFF76BBC72B16A
:1052B000217961F30700617961F30F20A17961F32E
:1052C0001740E17961F31F609F49C1F858029E4879
:1052D000D0F858022071010A6171010CA171000E11
:1052E000E07121462846BDE870400822FFF74ABC1D
:1052F00072B1217961F30700617961F30F20A1791F
:1053000061F31740E17961F31F608F49C1F85C02D6
:105310008D48D0F85C022071010A6171010CA17105
:10532000000EE07121462846BDE870400822FFF7D4
:1053300029BC72B1217961F30700617961F30F2013
:10534000A17961F31740E17961F31F607E49C1F8EB
:1053500060027D48D0F860022071010A6171010C81
:10536000A171000EE07121462846BDE87040082278
:10537000FFF708BC82B1217961F30700617961F31D
:105380000F20A17961F31740E17961F31F606E4945
:10539000C1F86402FDF7FEFB6B48D0F8640220718F
:1053A000010A6171010CA171000EE07121462846CD
:1053B000BDE870400822FFF7E5BB72B1217961F3C7
:1053C0000700617961F30F20A17961F31740E1795A
:1053D00061F31F605C49C1F868025B48D0F868025D
:1053E0002071010A6171010CA171000EE07121466A
:1053F0002846BDE870400822FFF7C4BB72B121798E
:1054000061F30700617961F30F20A17961F317401F
:10541000E17961F31F604C49C1F86C024A48D0F849
:105420006C022071010A6171010CA171000EE07122
:1054300021462846BDE870400822FFF7A3BB72B1A1
:10544000217961F30700617961F30F20A17961F39C
:105450001740E17961F31F603B49C1F870023A4897
:10546000D0F870022071010A6171010CA171000E67
:10547000E07121462846BDE870400822FFF782BB54
:1054800072B1217961F30700617961F30F20A1798D
:1054900061F31740E17961F31F602B49C1F8740291
:1054A0002948D0F874022071010A6171010CA171C0
:1054B000000EE07121462846BDE870400822FFF743
:1054C00061BB72B1217961F30700617961F30F204B
:1054D000A17961F31740E17961F31F601A49C1F8BE
:1054E00078021948D0F878122171080A6071080C06
:1054F000A071080EE07121462846BDE870400822E0
:10550000FFF740BB72B1217961F30700617961F364
:105510000F20A17961F31740E17961F31F600A4917
:10552000C1F87C020848D0F87C022071010A617140
:10553000010CA171000EE07121462846BDE87040C3
:105540000822FFF71FBB70BDB001002010B4B1F1FD
:10555000000C184BA1F10101D8BF4FF0000C0CDD7D
:105560004FF0010C3CEA010C07D010F8014B84EA23
:10557000126453F8244084EA0222A1EB0C01B1F139
:10558000FF3F13DD10F801CB891E8CEA126CB1F1DC
:10559000FF3F53F82CC08CEA022210F801CB8CEAB2
:1055A000126C53F82CC08CEA0222EBDC10BC1046C3
:1055B00070470000086B0008A0F18042B2F501328C
:1055C00002D1042900D9FEE701EB810100EB810043
:1055D000816841F0010181607047A0F18042B2F51D
:1055E000013202D1042900D9FEE701EB810100EB71
:1055F0008100816841F0200181607047A0F1804204
:10560000B2F5013202D1042900D9FEE701EB810293
:1056100000EB8202936823F0010393600023936000
:10562000D36013615361426889000F2303FA01F1CB
:10563000114341607047A0F18043B3F5013302D1BB
:10564000042900D9FEE701EB810100EB810013681A
:10565000036191684161118A89B2C1608168D2F8A1
:105660000CC0536821F47C5143EA0C03D2F814C0F7
:105670004CEA010119438160117E012981680CBF48
:1056800041F0400121F040018160517E0129816893
:105690000CBF41F0800121F080018160917E0029E2
:1056A00081680CBF21F0100141F01001816070474A
:1056B00070B50C462DED028B0546DFED428A30EECB
:1056C000280A9FED418AF0EE480AFEF76FFDB5EE1D
:1056D000C00AF1EE10FA3CBFF0EE480A30EE200AA4
:1056E00070EE680A9FED392ADFED391A9FED391AFD
:1056F000F5EEC00AF1EE10FA20EE820A60EEA12A61
:1057000009D202EEA00A85ED000AB5EEC00AF1EE5C
:1057100010FA12D208E002EEE00A85ED000AB5EEBA
:10572000C00AF1EE10FA08D260EE402A72EEC02AEA
:1057300002EE810A85ED000A07E0F0EE402A50EE05
:10574000002A02EE810A85ED000A9FED230A234913
:1057500070EE800A10EE900A8842C8BF70EEC80A48
:10576000F5EEC00AF1EE10FA20EE820A60EEA11A00
:105770001ED201EEA00A84ED000AB5EEC00AF1EED9
:1057800010FA0AD260EE400A70EEC00A00EE810AFA
:1057900084ED000ABDEC028B70BDF0EE400A50EEC5
:1057A000000A00EE810A84ED000ABDEC028B70BD98
:1057B00001EEE00A84ED000AB5EEC00AF1EE10FA3F
:1057C000EBD2DFE7DB0F4940DB0FC94083F9A23F93
:1057D0007B81CF3E6666663EDB0FC93FDB0F4940EB
:1057E0000149C8607047000000200240024801697A
:1057F00041F08001016170470020024070B505460C
:105800004FF4801000F018F8002818BF70BD094C44
:10581000206940F0020020616561206940F040008D
:1058200020614FF4801000F007F8216921F0020197
:10583000216170BD00200240104902460020CB6863
:1058400013F0010F18BF012010D1CB6813F0100F17
:1058500018BF04200AD1CB6813F0040F18BF022030
:1058600004D1CB6813F0080F18BF0320521E012883
:1058700018BF7047002AE1D1052070470020024080
:105880000548016911F0800F08BF70470349416066
:105890000349416070470000002002402301674532
:1058A000AB89EFCD70B506460D464FF48010FFF77B
:1058B000C3FF002818BF70BD074C206940F00100ED
:1058C000206135604FF48010FFF7B6FF216921F0A9
:1058D0000101216170BD000000200240416170475C
:1058E000016170472DE9F00301F00F0C11F0100F6A
:1058F00004D0042A18BF4CEA020C3FD000220F2625
:105900005FF0010404FA02F51D4012D0D0F80080C7
:10591000970006FA07F90CFA07F728EA090847EA98
:105920000807282908BF456102D0482908BF05613A
:105930000760521C92B2082AE4D3082204FA02F546
:105940001D4014D047684FEA8208A8F1200806FAE3
:1059500008F90CFA08F827EA090748EA070728298E
:1059600008BF456102D0482908BF05614760521C45
:1059700092B2102AE2D3BDE8F0037047C26B4CF03C
:10598000030C1A43C263B9E74FF4A06000F080F83B
:10599000FDF762FFFDF71AFCFCF792F8FCF7AEFD8D
:1059A000FDF77EFCFEF7DAF9002818BFFEF798FA3B
:1059B000FEF7B0F980B1FEF771FA0948FDF700F97A
:1059C0001B20FDF72BF900BFFDF716FCFCF77EFB53
:1059D0000448FBF737FBF7E7034901200870ECE7C1
:1059E0005401002048010020DC00002030B4264C87
:1059F0004FF0000C6346256805F4E065B5F5A06F2F
:105A000004BF4FF0020C63461FD00DDCB5F5407F9C
:105A100008BF4FF0040C18D0B5F5806F04BF4FF0ED
:105A2000030C012311D00BE0B5F5C06F04BF4FF09C
:105A3000010C032309D0B5F5E06F08BF042304D09F
:105A4000124B23604FF0020C6346CCF1040C01FAB8
:105A50000CF1C3F104034FF00F0C2CFA03F31A40BE
:105A6000114300F1E022090182F8001400F01F0147
:105A7000012202FA01F14009800000F1E020C0F8A3
:105A8000001130BC704700000CED00E00005FA0585
:105A9000034940F0FD7040F08060086070470000EE
:105AA0000CED00E021F07F0121F060410843014945
:105AB0000860704708ED00E070B5D74D1322D1A102
:105AC000E81CFAF7B8FBD54C002800F0E580192255
:105AD000D3A1E81CFAF7AFFB002800F0E3801922FD
