:020000040800F2
:1000000038480020690100084536000871350008AD
:10001000413600085913000815440008000000008C
:100020000000000000000000000000001D3B000870
:10003000A126000800000000193B0008813C0008D0
:100040008301000883010008830100088301000880
:100050008301000883010008830100088301000870
:100060008301000883010008830100088301000860
:100070008301000883010008830100088301000850
:100080008301000883010008B90F000883010008FC
:10009000411C000883010008830100088301000857
:1000A0008301000883010008830100088301000820
:1000B0008301000883010008830100088301000810
:1000C0008301000883010008830100088301000800
:1000D000830100082541000883010008830100080E
:1000E00083010008830100088301000883010008E0
:1000F000830100088301000883010008000000005C
:10010000830100080000000083010008830100084B
:1001100083010008830100088301000883010008AF
:10012000830100088301000883010008830100089F
:1001300083010008000000000000000083010008A7
:10014000830100088301000883010008830100087F
:10015000DFF810D000F058FC00480047896E000816
:10016000AFF3008038480020064880470648004723
:10017000FEE7FEE7FEE7FEE7FEE7FEE7FEE7FEE757
:10018000FEE7FEE7913C0008510100082DE9F0412F
:100190000024061B254671F1000605DA012400271C
:1001A000D0EB070067EB0101161E73F1000605DABC
:1001B0000027D2EB0702012567EB030300F0B9F833
:1001C00086460E4617469C46AC4204D00025D0EB2E
:1001D000050E65EB010624B10020D2EB000760EBB1
:1001E000030C704631463A466346BDE8F08140EA6A
:1001F00001039B0703D009E008C9121F08C0042AA5
:10020000FAD203E011F8013B00F8013B521EF9D28B
:100210007047D2B201E000F8012B491EFBD27047B3
:100220000022F6E710B513460A4604461946FFF7C2
:10023000F0FF204610BD30B504460020034600E024
:100240005B1C934203D2E05CCD5C401BF8D030BD18
:1002500070B5064604F0F0F8046805460A2200214D
:10026000304600F0F5F82C6070BD70B5C1F30A524D
:1002700001F000450024C1F3130140F2FF3341F4C3
:1002800080119A4201DA002070BD40F233439A4255
:10029000A2F2334203DC524200F07CF800E09040CE
:1002A0002C43F1D0404270BD00F0004230F00040DD
:1002B0000AD0C10D01F56071C0F3160042EA015188
:1002C000C20840071143704700200146704701F003
:1002D000004330B421F0004150EA010206D00A0D7B
:1002E000A2F56072C1F31301002A02DC30BC0020C9
:1002F0007047440F44EAC104C100E01830BC00EB71
:10030000C25000F0DDB830B50B4601460020202277
:10031000012409E021FA02F59D4205D303FA02F512
:10032000491B04FA02F52844151EA2F10102F1DC72
:1003300030BD2DE9F05F0546002092469B46884679
:100340000646814640241BE0284641464746224651
:1003500000F020F853465A46C01A914110D3114676
:100360001846224600F062FB2D1A67EB01084F4643
:1003700022460120002100F059FB17EB00094E41F5
:10038000201EA4F10104DFDC484631462A464346DC
:10039000BDE8F09F202A04DB203A21FA02F0002178
:1003A000704721FA02F3D040C2F120029140084385
:1003B000194670470FB4002300B589B00CA900910D
:1003C0000B996FF00042CB601E4B06931E4B0793B8
:1003D0000423CDE901321D4A089202466B460020F3
:1003E00000F0E8FB09B05DF814FB70B586B0064676
:1003F0004FF0FF300091CDE90101002015460C4679
:1004000004903246694604A8FFF7D4FF02460498D8
:10041000211825B108B1084600E02046286004985C
:1004200000280DD0002A02DD0098884208D0081B61
:100430000094CDE901043246694604A8FFF7BAFFEB
:1004400006B070BDED0D00080B0E0008790A00081B
:100450002DE9F04791460F4680460446002614F8E1
:10046000015B2DB100F004FB0068405DC007F6D1D0
:100470002B2D02D02D2D18D0641E4A463946204619
:1004800000F0D4FC27B13968A14201D1C7F800803F
:1004900071054FF002040BD54042002803DD03F044
:1004A000CBFF0460A007BDE8F08746F48066E4E770
:1004B0000028F8DA03F0C0FF04606FF00040F2E7B4
:1004C0000029A8BF7047401C490008BF20F0010068
:1004D000704710B4B0FA80FC00FA0CF050EA010446
:1004E00004BF10BC704749B1CCF1200421FA04F4D8
:1004F00011FA0CF118BF012121430843A3EB0C01B1
:10050000CB1D4FEA00614FEA102042BF002010BC13
:10051000704700EBC35010440029A4BF10BC7047C3
:10052000401C490008BF20F0010010BC7047F0B427
:1005300000F0004221F0004120F00040CE0DC30D3C
:10054000C1F3160141F40001C0F316004C421546F8
:1005500040F40000761E09E010EB440002D582F062
:10056000004240428842F7D840005B1EB342F9DAAD
:1005700018B1F0BC0021FFF7ACBF2846F0BC7047B3
:100580002DE9FE4F804681EA0300C00F0C46009023
:1005900021F0004123F00045B8EB0200A94105D24B
:1005A0004046214690461C460B46024623F000403A
:1005B000104347D0270DC7F30A00C3F30A51029036
:1005C000401A019040286BDAC3F3130040F4801BFB
:1005D0000098924620B10023D2EB030A63EB0B0B89
:1005E00001985946C0F14002504600F01FFA0646F5
:1005F0000D4650465946019A00F027FA10EB0800C4
:100600006141002487EA115284EAE7731A4340D01B
:10061000009A62B3019A012A4FEA075215DC001BC7
:1006200061EB02014FF0004202EA0752CDE90042BD
:10063000001C41F5801132462B4600F055FC03B0FA
:10064000BDE8F08F40462146F9E7001B61EB02014F
:10065000001C41F5801300185B412018A2F500171B
:1006600047EB030140EAD570B6196D4111E06D0802
:100670004FEA360645EAC0754FEA0752001B61EBA8
:100680000201001C41F5801149084FEA30000019B1
:10069000514132462B4603B0BDE8F04F00F015BC87
:1006A0000098012240000023D0EB020263EBE073CC
:1006B000009821464FEAE074B8EB000061EB0401BA
:1006C000E9E783F000435BE781F0004158E72DE95B
:1006D000FE4F81EA030404F0004421F0004100943D
:1006E0004FF0000B23F0004350EA01045ED052EAC1
:1006F00003045BD0C3F30A54C1F30A552C44A4F29B
:10070000F3340194A0FB0254C1F3130141F48011AE
:10071000C3F3130343F4801301FB024400FB034EB5
:10072000840A970A44EA815447EA8357A4FB07687E
:1007300002958D0A05FB07854FEA932C04FB0C54A8
:100740002705029D4FEA065847EA1637B5EB08051C
:100750006EEB070C870E920E47EA811742EA83126E
:10076000A7FB0201B6EB0B0164EB00042B0D43EA7F
:100770000C335E1844EB1C50DA465146E7FB02018D
:10078000C5F313044FEA0B3343EA14534FEA043220
:10079000019C43EA0603A4F10C040294009CCDE9F9
:1007A00000B400F0A1FB03B0BDE8F08F00200146CB
:1007B000F9E72DE9F04D81EA030404F0004B21F044
:1007C000004514464FF0000A23F0004150EA0502AC
:1007D00020D054EA01021DD0C5F30A570246C5F3E2
:1007E0001303C1F31300C1F30A5640F4801543F418
:1007F0008013A7EB0608101BD64608F2FD3873EBF2
:10080000050002D308F1010801E092185B41B8F13C
:10081000000F03DA00200146BDE8F08D00204FF400
:100820008011064684460EE0171B73EB050705D3BF
:10083000121B63EB050306434CEA010C49084FEA1F
:10084000300092185B4150EA0107EDD152EA0300F3
:1008500012D082EA040083EA0501084305D0101B88
:10086000AB4106D20122002306E000224FF00043F4
:1008700002E06FF0010253101AEB06004CEB085136
:1008800010EB0A0041EB0B01BDE8F04D00F01DBB81
:100890002DE9F041054621F000400C46284309D0DF
:1008A000C4F30A5040F23341884205DD2846214610
:1008B000BDE8F0812846FBE740F2FE31884210DCBB
:1008C0000CDB4FEA043040EA155050EA053105D000
:1008D000104804F0004101430020E9E700200146F0
:1008E000E6E7A0F233404642C6F1400228462146E0
:1008F00000F09CF807468846284621463246FFF716
:1009000049FD43463A4600F0E0FA3246BDE8F04180
:1009100000F08CB80000F03FC1F30A52C1F313019C
:1009200040F2FF3341F480119A4202DA002001467E
:10093000704740F233439A42A2F2334202DC524201
:10094000FFF728BD00F072B830B5041E71F1000445
:1009500004DB4FF00044404264EB0101141E73F1CC
:10096000000405DB1C464FF00043524263EB0403D6
:100970008B4208BF824230BD30B5041E71F10004C5
:1009800004DB4FF00044404264EB0101141E73F19C
:10099000000405DB1C464FF00043524263EB0403A6
:1009A000994208BF904230BD70B5044601F0004541
:1009B0000020054304D14FF00045644265EB01017E
:1009C00003F00045284305D118464FF0004352423A
:1009D00063EB0003101B73EB010002D24FF00040E9
:1009E00009E082EA040283EA01034FF000501A434F
:1009F00001D14FF0C0404FEA2062EFF3008162F373
:100A00001F6181F3008870BD064C074D06E0E06869
:100A100040F0010394E8070098471034AC42F6D345
:100A2000FFF79AFB548D0008748D0008202A04DB20
:100A3000203A00FA02F1002070479140C2F12003F1
:100A400020FA03F3194390407047202A06DBCB17A6
:100A5000203A41FA02F043EAE07306E041FA02F379
:100A6000D040C2F12002914008431946704700006F
:100A700000487047F48C000810B50446FFF7F8FFF3
:100A80000068005D00F0010010BD00002DE9FF4F7F
:100A9000087883B09946FF2805D0491C2D2804D03A
:100AA0000024002008E000200BE00124F9E700EB1F
:100AB000800003EB4000491C0B78FF2BF7D104B1F9
:100AC000404200230293147819461D462D2C01D074
:100AD0002B2C04D1521C2D2C13D000240294AA4696
:100AE0001478FF2C0FD00A25A3FB057801FB0581A4
:100AF0004FF0000C03FB0C11521CE3194AEB0101EF
:100B0000EEE70124EAE7814453EA010002D019F537
:100B1000C87F06DA03980021C0E9001107B0BDE8DC
:100B2000F08F0025AE4E2F46DFF8B882184600F051
:100B300037FACDE90001B9F1000002DAC9F1000489
:100B400000E004460023A74A1AEB030B42EB045AC9
:100B500012E0E00707D02A46334638464146FFF701
:100B6000B6FD074688462A46334610461946FFF723
:100B7000AEFD05460E466410002CEAD1DDE9000109
:100B8000B9F1000F5A46534606DAFFF712FE3A460D
:100B90004346FFF70EFE05E0FFF799FD3A46434650
:100BA000FFF795FD029A0AB181F00041039AC2E96C
:100BB0000001B3E72DE9FF4F1F468DB0D7E901468D
:100BC0004FF0FF382E2045464FF000090B90B969D1
:100BD0006D1C0E988847396A824688470028F6D1EE
:100BE000BAF1FF3F0AD024F4D064002E11DDBAF12F
:100BF0002B0F08D0BAF12D0F0BD102E0404611B0F7
:100C00008DE744F48064B9696D1C0E98884782466C
:100C1000761E6946600501D52D2000E02B208DF859
:100C2000000001F1010B0DF1200809E0B9696D1C0C
:100C30000E98884782460F9844F40074761E05602B
:100C4000002E02DDBAF1300FF0D00B998A453ED16B
:100C500044F0800406E00F99681CA9F1010944F4EE
:100C600000740860B9696D1C761E0E98884782462C
:100C70003028F0D02BE00B998A4505D1200603D40B
:100C800044F08004761E18E0504603F089FE08B355
:100C90000DF11301761E44F400748B4508D2AAF1BD
:100CA00030000BF8010B200607D5A9F1010003E085
:100CB000200602D409F101008146A00502D50F9952
:100CC000681C0860B9696D1C0E9888478246002E22
:100CD000D1DC53E0002E51DDBAF1650F02D0BAF13C
:100CE000450F4BD1A00549D5B9696D1C24F440745A
:100CF000761E0E9888478246002E0CDD2B2804D0E5
:100D0000BAF12D0F07D144F48074B9696D1C0E98A7
:100D100088478246761EE00501D52D2100E02B2173
:100D200008F8011BCDF82C8021E00DF12901761E79
:100D300044F4007488450CD2AAF1300010F0FF0092
:100D400088F8000002D10B99884509D908F10108FB
:100D500006E0E00501D5244801E042F20F7081462B
:100D6000B9696D1C0E98884782460F980560002E61
:100D700004DD504603F014FE0028D6D1F9690E9820
:100D80008847FF208BF8000088F8000000200690BC
:100D900007904B466A4608A906A8FFF777FEA0050C
:100DA00002D46FF001002AE714F0240F0AD0E00704
:100DB00014D1DDE906123868031D3B600068C0E904
:100DC00000120BE0DDE90601FFF781FA0146E007BA
:100DD00004D13868021D3A600068016028460EE7B9
:100DE000000014400000F03FF1D8FFFF426842B11C
:100DF000016811F8013B23B1521EC0E900121846E8
:100E000070470121C160881E704742685AB1C368AB
:100E1000016843B983688B4205D0491E521CC0E962
:100E20000012002070474FF0FF3070472DE9F05F4F
:100E300082460078002715468B460AF10104B94620
:100E4000302801D09DB113E014F8010B0127782858
:100E500003D0582801D045B10AE00DB1102D07D1BB
:100E60000027102514F8010B02E0082500E00A25F0
:100E70000026B0460EE005FB080005FB06F1012741
:100E800001EB10461FFA80F8B6F5803F00D3B94653
:100E900014F8010B294600F075F80028EBDABBF1D5
:100EA000000F05D00FB1641E00E05446CBF800409F
:100EB000B9F1000F06D003F0BFFA02210160C81E8D
:100EC000BDE8F09F48EA0640FAE710B5141E73F13A
:100ED000000408DA401C41F1000192185B411A43FA
:100EE00001D120F0010010BD2DE9F04D92469B4646
:100EF00011B1B1FA81F202E0B0FA80F220329046EC
:100F0000FFF794FD04460F4640EA0A0041EA0B0150
:100F100053465A46084313D0114653EA010019D0EC
:100F2000C8F140025046FFF735FA05460E465046D6
:100F300059464246FFF77AFD084305D0012004E0F8
:100F400020463946BDE8F08D0020054346EAE076AC
:100F50002C4337430A986305E40AA0EB08000022FB
:100F6000FD0A44EA47540A3002D500200146E9E769
:100F7000010510196941DDE9084500196941BDE81D
:100F8000F04DA2E73A2800D2303820F02002412A62
:100F900001D3A2F13700884201D34FF0FF307047F0
:100FA0000EB540F2334202920022CDE900221346F0
:100FB000FFF79AFF03B000BD70B52A4D286820F0F6
:100FC0000400286001F042FC2748284C00210088DA
:100FD0002080284604F03EF960800121284604F074
:100FE00039F9A0800021224804F034F9E08094ED22
:100FF000020ADFED200A21889FED1F1A20EE200A49
:1010000000EE901AF8EE600A60EE810A9FED1B1A5E
:1010100000EE810A84ED020A6188A26B891A00EE53
:10102000101AF8EEC00A9FED160A60EE800AC4EDB1
:10103000030AA188E26B891A00EE901AF8EEE00A22
:1010400060EE800AC4ED040A216C401A00EE900A9A
:10105000F8EEE00A20EE800A84ED050ABDE8704053
:1010600002F06CB8002401401C0000205801002050
:101070000028014048E17A3F0AD7A33C7BDC7A3C58
:10108000F792D83C0448002141700078002818BF2E
:10109000704703F021B90000DC0000202DE9F04783
:1010A000994D04462DED028B82B06878002802BF6E
:1010B00002B0BDEC028BBDE8F0870026DFF84C9251
:1010C00001282AD0DFF84CA29FED918ADFF84882F0
:1010D00040F6B837022856D003287CD0042844D1E3
:1010E000D8F8003000203946B6EE000A03EB800243
:1010F000401CD2ED000A491E60EE800AC2ED000AD3
:10110000F4D101206F6028706E7002B01B20BDEC1E
:10111000028BBDE8F04701F055BEA86802F064FDFF
:10112000022822D302F066FDA86099ED080A7B49E7
:10113000FDEEC00AF8EEE00A30EE600A10EE100A8A
:10114000DFED770A8842C4BF94ED000A30EE600AF2
:1011500009DC10EE100A7349884284BF94ED000A3E
:1011600030EE200A06D984ED000A02B0BDEC028BF5
:10117000BDE8F087D4ED000A022030EEC00A84ED0D
:10118000000A6E605EE0A86802F02EFD6428ECD3D1
:1011900002F030FDA86094ED000AD9ED080A30EEA7
:1011A000600ADAED8A0AB0EEC00AF4EEC00AF1EE87
:1011B00010FADADD99ED090ADAED8B0AB0EEC00A11
:1011C000B4EEE00AF1EE10FACFD201F06DF8D8F8E3
:1011D00000006E6800E037E000EB860080ED000A5A
:1011E00010EE100AFFF760F841EC100B314653EC9B
:1011F000102B4DA003F010F9D8F800006A6850F8E1
:1012000022008DF80000010A8DF80110010C8DF804
:101210000210000E8DF803006946104600F0CCFD68
:1012200094ED000A30EE080A84ED000A6868401C5C
:101230006860B84299DB401E30EE480A68600320BF
:1012400084ED000A687090E7A86802F0CDFC64287D
:101250008BD302F0CFFCA86094ED000AD9ED080A08
:1012600030EE600ADAED8A0AB0EEC00AF4EEC00A87
:10127000F1EE10FA7FF779AF99ED090ADAED8B0AF2
:10128000B0EEC00AB4EEE00AF1EE10FABFF46DAFB2
:1012900001F00AF8D8F800006E6800EB8600D0ED87
:1012A000000A30EE200A80ED000A10EE100AFEF768
:1012B000FBFF41EC100B314653EC102B1DA003F04B
:1012C000ABF8D8F800006A6850F822008DF80000EA
:1012D000010A8DF80110010C8DF80210000E8DF836
:1012E000030042F210706946104400F065FD94ED71
:1012F000000A30EE480A84ED000A6868401E686003
:1013000044BF0420687030E7DC000020100100209A
:101310003EC3AE39B4010020E80000206F12833ACA
:101320006F12833A6F1283BA462025642025660A1D
:101330000D000000422025642025660A0D000000F3
:1013400010B5044C0020207002F0C6FF0120607030
:1013500010BD0000DC00002001F0D2BB70B5094CCC
:1013600000252570606802F00BF8656002F0F0FE61
:10137000054C002802BF0120207070BD02F0ACFFB8
:10138000257070BDA8000020DC0000202DE9F04F82
:101390000446FF482DED028B8FB0816800EE101AD5
:1013A000B8EE400ADFEDFB0A007820EE208A102814
:1013B00080F0F283DFE800F0FC0815507EA2CAFB43
:1013C000FAF9F8F7F6F5F4F3F14C00209FEDF20A84
:1013D000A06004F1240080ED000A01F095FB0220DA
:1013E00037E0EE49D4ED030AED4891ED870A30EE7F
:1013F000600AD0ED000A9FEDEB1A40EE010AC0ED45
:10140000000A91ED880AF4EEC00AF1EE10FA06DC4B
:10141000B1EE400AF4EEC00AF1EE10FA07D201F084
:1014200075FCDB48012141700F2100F00DB994EDEE
:10143000020A9FEDD91AF0EE411A03F0D5FFD44C01
:1014400049F64041A068814200F2A68301F05EFCAB
:101450000320207000F0A0BBD148D04C90ED000AD2
:10146000D4ED870A80EE201A9FEDCF0A21EE000A04
:1014700084ED010A10EE100AFEF716FF41EC100B86
:10148000CAA053EC102B02F0C7FF60688DF81C0057
:10149000010A8DF81D10010C8DF81E10000E8DF83C
:1014A0001F0007A9012000F0B1FCB9490420087011
:1014B00000F072BB9FEDB88AC448B94D80ED008A38
:1014C00080ED018AB548A5F1240690ED880A002038
:1014D000F1EE400AC5ED000A85ED010AB06001F0A9
:1014E00013FBD5ED000A94ED020AF0EE481AB0EEB7
:1014F000481A03F079FF052000F005B9A44D01F06A
:10150000010105F12C0000EB8100D4ED030A90ED00
:10151000000A30EE200A80ED000A05F1240000EBFD
:10152000810094ED020AD0ED000A9FED9B1AF0EEC7
:10153000411A03F059FFA86844F620618842C0F0C0
:101540002B8301F0E3FB062000F053BA9F48934C35
:1015500090ED010AD0ED000A94ED881A30EE600A91
:10156000F0EE000A20EE200AC1EE000A9FED8E0A7E
:1015700020EE800A84ED020A10EE100AFEF794FEB7
:1015800041EC100B92A053EC102B02F045FFA06829
:101590008DF82C00010A8DF82D10010C09E0D7E21E
:1015A00029E2B6E14AE1E3E07CE050E02AE010E025
:1015B00020E28DF82E10000E8DF82F000BA90220CE
:1015C00000F024FC01F0BAFB71490720087000F01C
:1015D000E3BA724890ED870AD0ED010A704820EE18
:1015E000200AF0EE080A20EE200AF6EE000A20EEAD
:1015F000200A80ED000A01F087FA65480021816029
:10160000082121E06648F6EE000A90ED000A20EE7F
:10161000080A60EE200A94ED020A9FED5F1AF0EED0
:10162000411A03F0E1FE18EE100AB0F1804FC0F24B
:10163000B3826F48002190ED040A5548B8EEC00A05
:1016400080ED070A81600921017000F0A5BA9FEDC5
:10165000690A534E68EE001AD6ED000A94ED020AAC
:10166000DFED4D8AB0EE681A03F0BEFE18EE100AE8
:10167000B0F1804FC0F290825D48A6F12405B0EE33
:10168000681A90ED040AF0EE411AB8EEC00A85ED32
:10169000080AD6ED000A94ED020A03F0A5FE0A201E
:1016A00000F0A7B93A4E96ED080AD6ED070A30EEDB
:1016B000600ABDEEC00A10EE104A00EE104AB8EE05
:1016C000C00ADFED4D0AB0EE001A20EE200AF0EE5F
:1016D000C00A81EE200A10EE100AFEF7E5FD41EC8B
:1016E000100B02F0E9FF51EC100BFEF7BEFD2B4D85
:1016F0000146286041A002F08FFE28681E2805DD03
:10170000022070700F20307000F046BA8DF8000093
:10171000010A8DF80110010C8DF80210000E8DF8F1
:1017200003006946032000F071FB0A2C03DD012051
:10173000286138A006E014F10A0F05DA4FF0FF30F7
:10174000286139A002F068FE28698DF80000010ABE
:101750008DF80110010C8DF80210000E8DF80300B9
:101760006946042000F052FB0B20307000F014BAE0
:1017700007489FED090A002180ED060A1C4A016115
:1017800080ED050A1268C0E902120C215CE7000036
:10179000A800002017B7513800000000B401002055
:1017A000CC00002017B7D138ABAA2A3F4D6F746F19
:1017B0007220706861736520726573697374616EFD
:1017C0006365203D2025660A0D000000D40000203E
:1017D0004D6F746F7220706861736520696E6475F7
:1017E0006374616E6365203D2025660A0D0000006C
:1017F00010010020DB0FC940000080364D6F746F70
:101800007220706F6C65207061697273203D2025B5
:10181000640A0D00456E636F64657220646972200E
:101820003D202B310A0D0000456E636F6465722008
:10183000646972203D202D310A0D0000DE4D95EDCA
:10184000060ADFEDDE0A5FED2C8A05F1240070EE5A
:10185000201AB0EE681AC5ED061AD0ED000A94ED14
:10186000020A03F0C1FD95ED050AB4EEC08AF1EE5F
:1018700010FA37DDD24B1FED211AD5ED061AD3ED44
:10188000000AF8EEE00A20EE811AC1EE810A9FED0F
:10189000CD1A1A69012A60EE810AFDEEE00A10EE07
:1018A000901A04BFC848006806D0B2F1FF3F04D1C7
:1018B000C5480068C0F58020401AC10F00EB814187
:1018C0006A68286942F82010401C28611968B0EB4A
:1018D000C11FA4BF401E2861DFEDBC0A30EE200A04
:1018E00085ED050AB64890ED000AF8EEC00A1FED36
:1018F0003F0A60EE800A80EE801AB4EEC81AF1EE5C
:1019000010FA00F24981C5ED058A0020A8600D207B
:101910006FE0A94D95ED060ADFEDA80A05F1240058
:1019200070EE601AC5ED061AD0ED000A94ED020AB9
:101930001FED671A03F058FD95ED050AB4EEC08A55
:10194000F1EE10FA39DD9E48D0ED000AF8EEE00A1B
:101950001FED581AD5ED061A60EE810A81EEA01A25
:10196000DFED980A0069012861EE200AFDEEE00A29
:1019700010EE902A04BF9448006806D0B0F1FF3FF3
:1019800004D191480068C0F58020811AC80F01EB8E
:1019900080426968286951F820301A4402EBD272FB
:1019A000521041F82020401E286100F10281DFED35
:1019B000870A30EE200A85ED050A814890ED000A7D
:1019C000F8EEC00A1FED750A60EE800A80EE801AFC
:1019D000B4EEC81AF1EE10FA00F2DE807A48E96837
:1019E0000068084400EBD0704010E86001F08EF908
:1019F0000E202870D0E0724D0020461ED5F800A0C1
:101A0000014606EBCA19B9F1000F1CDD6A48002235
:101A10001346D0F804C0DCF80000DCF80440C1171D
:101A20005FEA69070DD000BF0CF1080C001941EB0B
:101A3000E471DCE9008412EB080243EBE8737F1EDB
:101A4000F2D180185941B9F1000F06DB5A4A5268A9
:101A500052F82920101841EBE2714FEACA124FEAFE
:101A6000E273FEF793FB0146686159A002F0D4FCD3
:101A700068698DF82000010A8DF82110010C8DF89D
:101A80002210000E8DF8230008A9052000F0BEF9F1
:101A90004948C168C901CA1701EB92314FEAA14B0D
:101AA000C0F80CB0D0F804900023D5F800C0002195
:101AB0000CFB03F08024C001C7170A4600EB5767F0
:101AC00006EBCC18CCF1000A02EBE710403848BF17
:101AD00000EBCC1003D48045B8BF00EBCA1059F816
:101AE0002000521C0144641EEED1C81701EB506067
:101AF000C1110BEB03007F28C8BF80386A6905EB72
:101B00008000891A5B1C8161802BCEDB5FF00004B2
:101B100005EB840080698DF82000010A8DF8211002
:101B2000010C8DF82210000E8DF8230008A904F195
:101B30000A0000F06BF90A2001F0F2FF641C802C0F
:101B4000E6DB0120C5F818021B2001F03BF923E079
:101B5000194C25A0617802F05FFC60788DF83000A8
:101B6000010A8DF83110010C8DF83210000E8DF83D
:101B700033000CA94FF0FF3000F048F90025257024
:101B8000606801F0FDFB656002F0E2FA68B102F006
:101B9000A3FB1A480570257007488168491C8160BD
:101BA0000FB0BDEC028BBDE8F08F14490120087026
:101BB000F1E700202861FAE6A8000020BEB5A439AC
:101BC000B401002000008048100100200000003C0B
:101BD000456E636F646572206F6666736574203D41
:101BE0002025640A0D00000043616C696220657263
:101BF000726F722025640A0D00000000DC000020D6
:101C000070B50B4C0025206820B10A490D7001F019
:101C1000B7FB2560084C606820B94FF4705001F0A4
:101C2000F7FB60600548C0F818520120207070BDB5
:101C3000E8000020DC000020A8000020B401002003
:101C400000B585B0684600F07FF8002804BF05B0F5
:101C500000BD684600F028F9684600F075F80028D5
:101C6000F7D105B000BD000010B584B040F2197086
:101C700006F0C2F840F2026006F0BEF84FF4C06011
:101C800006F0BAF82D4C4FF4006303224821204699
:101C900005F072F8A31403221821204605F06CF811
:101CA0006946002003F036FE254C204603F02CFC4C
:101CB000206840F400402060216811F4004FFBD1FF
:101CC00020490A6812F0020FFBD0002101208DF894
:101CD00007108DF805008DF808108DF809008DF8B3
:101CE00000100320ADF80A008DF801100D208DF8CA
:101CF00002008DF8061004208DF804108DF8030002
:101D00006946204603F0F5FC0E2003F0E5FB0023B6
:101D100002221946184603F08BFC00231A46194686
:101D2000184603F085FC00220221142005F048F932
:101D30000221204603F094FD04B010BD00080140CC
:101D40000064004004640040164A116811F0030F5B
:101D500004BF0020704714490968490D0160134908
:101D6000096801F00F01017111490B6843710B689B
:101D70001B0A83710B681B0CC3710968090E017281
:101D80000C490B6843720B681B0A83720B681B0CAF
:101D9000C3720968090E0173106840F020001060DA
:101DA000012070470C640040B0650040B4650040FD
:101DB000B8650040BC65004000B5134A83B092F896
:101DC00074228DF8000002F00F0242F09003020A24
:101DD0008DF80120020C8DF80220000E8DF8030012
:101DE00008788DF8040048788DF8050088788DF81B
:101DF0000600C8788DF8070008226946184603F0E7
:101E000033FD03B000BD0000B401002000B5134A4B
:101E100083B092F874228DF8000002F00F0242F0B5
:101E20006003020A8DF80120020C8DF80220000EDA
:101E30008DF8030008788DF8040048788DF80500C7
:101E400088788DF80600C8788DF807000822694662
:101E5000184603F009FD03B000BD0000B4010020E6
:101E600008B50C49042291F874128DF8000001F0B5
:101E70000F0141F02003010A8DF80110010C8DF8CB
:101E80000210000E8DF803006946184603F0ECFCC2
:101E900008BD0000B401002010B501F0ABFE0149FF
:101EA000086010BD080000202DE9F041EC4E0768E5
:101EB0000446D6F8741207F00F004FEA1718814253
:101EC0001CBF0028BDE8F081E64DD6F8780210B1BD
:101ED00001F090FE2860B8F1190F28BFBDE8F0812D
:101EE000DFE808F0730DA0273851A07362A0738457
:101EF000B0D7FEFDFCFBFAF9F8F7F6F5F4006D201B
:101F000000F060FF6071010AA171010CE171000E27
:101F10002072D5480822006A6072010AA172010C81
:101F2000E172000E2073611D3846BDE8F04103F0F8
:101F30009BBC7A2000F046FF6071010AA171010C80
:101F4000E171000E20720422611D3846BDE8F041A7
:101F500003F08ABC00F030FF6071010AA171010C2E
:101F6000E171000E207200F021FF6072010AA1727F
:101F7000010CE172000E20730822611D3846BDE895
:101F8000F04103F071BC632000F01CFF6071010A96
:101F9000A171010CE171000E20720422611D38460E
:101FA000BDE8F04103F060BC612000F00BFF607100
:101FB000010AA171010CE171000E20720422611D61
:101FC0003846BDE8F04103F04FBC1B2000F0FAFE9C
:101FD0006071010AA171010CE171000E20720422EE
:101FE000611D3846BDE8F04103F03EBCD6F87C02E6
:101FF000002808BFBDE8F08100F0DEFE022818BF0F
:10200000BDE8F081D6F83002062828BFBDE8F0818F
:10201000DFE800F003030A0A119395ED030A9348E1
:1020200080ED020ABDE8F081904895ED020A80ED4E
:10203000010ABDE8F0818D4895ED010A80ED000AA6
:10204000BDE8F081617961F30700A17961F30F20A8
:10205000E17961F31740217A61F31F606860D6F877
:102060007C02002818BFBDE8F08100F0A5FE022820
:1020700018BFBDE8F081D6F83002062828BFBDE8B9
:10208000F081DFE800F005050404035AD3E7CBE74D
:10209000C3E7617961F30700A17961F30F20E1796A
:1020A00061F31740217A61F31F60A860D6F87C02C3
:1020B000002818BFBDE8F08100F07EFE022818BF9E
:1020C000BDE8F081D6F8300206280AE0B6E0A9E0C3
:1020D00097E08FE087E076E065E054E043E032E0AF
:1020E0000AE028BFBDE8F081DFE800F00505040440
:1020F0000327A0E798E790E7617961F30700A179EA
:1021000061F30F20E17961F31740217A61F31F60D9
:10211000E860D6F87C02002892D100F04DFE02283B
:102120008ED1D6F8300206288AD2DFE800F0050505
:10213000040403067FE777E76FE795ED010ABDE842
:10214000F04100F07DBA48480422006A6071010A3B
:10215000A171010CE171000E2072611D3846BDE8CD
:10216000F04103F081BB40480422406A6071010ADB
:10217000A171010CE171000E2072611D3846BDE8AD
:10218000F04103F071BB3A480422806A6071010A91
:10219000A171010CE171000E2072611D3846BDE88D
:1021A000F04103F061BB3248042280686071010A8B
:1021B000A171010CE171000E2072611D3846BDE86D
:1021C000F04103F051BB2A480422C06A6071010A41
:1021D000A171010CE171000E2072611D3846BDE84D
:1021E000F04103F041BB0122611D3846BDE8F041DA
:1021F00003F002BC0022611D3846BDE8F04103F047
:10220000FBBB752000F0DEFD6071010AA171010CBD
:10221000E171000E20720422611D3846BDE8F041D4
:1022200003F022BB02F07AF800206071A071E07127
:1022300020720422611D384603F016FB02206071F3
:102240000021A171E171217201206072A172E1721D
:1022500021730822611D3846BDE8F04103F004BB3C
:10226000B401002008000020100100204C010020D3
:102270005801002010B50A4CD4F87802002808BF95
:1022800010BD0848006801F0AFFCD4F8781288420D
:1022900098BF10BD1B20BDE8104000F093BD0000AA
:1022A000B401002008000020014890ED040A7047A6
:1022B000200000202DE9F041DFF8648307462DED72
:1022C000068BB0EE60AAF0EE409A9FEDD69AD64DFE
:1022D000D64C0629D5ED951A95ED962AB1EE611AE0
:1022E000B1EE420A80F02981DFE801F00323668520
:1022F000D0D5D7ED020AF4EEC00AF1EE10FACCBF49
:10230000B0EE601AB0EE401AB4EEC21AF1EE10FA56
:10231000C8BFB0EE420A06DCF4EEC00AF1EE10FAD5
:10232000C8BFB0EE600A84ED030AB0EE408A00F048
:1023300004B9D7ED021AF4EEC01AF1EE10FACCBFD0
:10234000F0EE610AF0EE400AF4EEC20AF1EE10FA85
:10235000C8BFF0EE421A06DCF4EEC01AF1EE10FA35
:10236000D8BFF0EE401A95ED8D0AD4ED030A20EEA9
:10237000090A71EEE01AB0EEC01AB1EE410AF4EEAD
:10238000C01AF1EE10FACCBFB0EE612AB0EE402ACE
:10239000B4EEC12AF1EE10FAC8BFB0EE410A06DC75
:1023A000F4EEC01AF1EE10FAC8BFB0EE610A30EEDA
:1023B000808A84ED038AC0E097ED010AB4EEC10A79
:1023C000F1EE10FACCBFF0EE400AF0EE410AF4EE66
:1023D000E10AF1EE10FAC8BFB0EE611A06DCB4EE05
:1023E000C10AF1EE10FAC8BFB0EE401A84ED021A2D
:1023F000F0EE418AA1E097ED010AB4EEC10AF1EED8
:1024000010FACCBFF0EE400AF0EE410AF4EEE10A19
:10241000F1EE10FAC8BFB0EE610A06DCB4EEC10AF4
:10242000F1EE10FAD8BFB0EE410AD5ED8E0AD4ED28
:10243000021A60EE890AB0EEE01A70EE610AB1EE9F
:10244000410AF4EEC00AF1EE10FACCBFB0EE602AF9
:10245000B0EE402AB4EEC12AF1EE10FAC8BFB0EED9
:10246000410A06DCF4EEC00AF1EE10FAC8BFB0EE85
:10247000600A71EE808AC0EE090AC4ED028A95ED09
:10248000030A20EE800A84ED030A56E097ED000A65
:1024900084ED010A51E02078DFED65AA654E98B120
:1024A00097ED000AD5ED912A95ED902AD5ED8F1A7A
:1024B00094ED021AD4ED010A01F0D6FCC6ED04AA8F
:1024C00000203075207001E0307DB0BB96ED040A2D
:1024D000D6ED030AB4EEE00AF1EE10FA0ADD97ED4C
:1024E000000A012084ED010AC4ED02AAC4ED03AA8A
:1024F000307522E001F048FC96ED000A84ED010AF7
:10250000D6ED010AC4ED020AD6ED020A95ED031AD2
:1025100060EE810AC4ED030AD8ED080A30EE600AC5
:10252000B0EEC00A10EE100AB0F17E5F05DA96ED4B
:10253000040A30EE090A86ED040AD5F830020428B0
:1025400025DB94ED010A95ED921AD4ED020A30EEE6
:102550004A0A41EE000A95ED950AF1EE408AF4EE42
:10256000E08AF1EE10FA34BFB0EE601AB0EE681AED
:10257000B4EEC10AF1EE10FA38BFF0EE408A06D38D
:10258000F4EEE08AF1EE10FA38BFF0EE608A02282D
:102590000BDB78EEE99AD5ED930A94ED030A00EE91
:1025A000A90AD4ED040A30EE208AD5F8240298B1A5
:1025B0002148007880B1D8F8040040F6B73148438C
:1025C000C11700EB91301D498014096801EB8000B0
:1025D00090ED000A30EE088A95ED960AF1EE400A79
:1025E000F4EEC80AF1EE10FAC8BFB0EE608A11DC52
:1025F000B4EEC80AF1EE10FA38BFB0EE408A09D343
:1026000095ED940A60EE090A94ED040A00EEA90A19
:1026100084ED040AB0EE480ABDEC068BBDE8F081FB
:102620001001002017B75138B4010020200000200D
:10263000000000009C010020DC000020E8000020D9
:102640000348044980ED000A01200870704700002B
:102650004C010020200000200E499FED0D0A0E4A7B
:1026600081ED040AD2ED080AC0ED000A80ED010AEE
:1026700080ED020AD2ED080A0020C1ED010A81EDC9
:10268000020A81ED030A08700449012008757047A9
:102690000000000020000020100100209C0100200C
:1026A00000F02EBA30B587B040F2026005F0A4FB0E
:1026B0004FF4C06005F0A0FB40F20C6005F09CFBFD
:1026C000294C1021204604F055FB10230322194603
:1026D000204604F051FBA02303221821204604F0D9
:1026E0004BFB402303220421204604F045FB1F4DF1
:1026F000284605F0B6FB684605F0FAFB00244FF4C7
:102700008270CDE90004032005906815CDE90240F0
:102710001020069069460494284605F0D2FB28460E
:1027200005F095FB0A2001F0FBF911489FED110A15
:10273000C460046180ED050A80ED060A80ED070A99
:1027400080ED080A80ED090A80ED0A0A80ED0B0A87
:1027500080ED0C0A9FED080A80ED0D0A9FED070A37
:1027600080ED0E0A07B030BD000801400030014086
:10277000100100200000000000007A450024744A87
:1027800070B52F48102505602E4E0221304605F009
:1027900093FB0028F9D08321304605F060FB02212D
:1027A000304605F089FB0028F9D0FF21304605F0BE
:1027B00056FB0121304605F07FFB0028F9D030465A
:1027C00005F04AFB0221304605F076FB0028F9D0DF
:1027D000FF21304605F043FB0121304605F06CFB3C
:1027E0000028F9D0304605F037FB60F307040221DA
:1027F000304605F061FB0028F9D0FF21304605F096
:102800002EFB0121304605F057FB0028F9D0304659
:1028100005F022FB60F30F240121304605F04CFB4C
:102820000028F9D0304605F017FBC4F307208008D4
:10283000E1B28A0242EA0010084303490D6070BD0C
:102840001408014000300140100801402DE9F0411A
:102850002DED068BFFF794FF9F4CA04E2060D6F81D
:10286000181211B3C11206EB81018A69012101EB33
:10287000E021CB1701EB536323F07F03C91A06EB6A
:102880008101034689696FF30A03C31A891A594300
:1028900002EBE121401AB0F5802FC8BFA0F58020DF
:1028A00003DC0028B8BF00F5802007466060E168BF
:1028B0004FF48022401A90FBF2F302FB1305002D27
:1028C000B8BF05F58025B5F5003FC8BFA5F5802543
:1028D000206900EB05084819C4E903084FF480217A
:1028E00090FBF1F0E76094ED050AD4ED060A9FED48
:1028F0007C8A00EE880A84ED050AD4ED078A10EE82
:10290000100A40EE888AC4ED078AFDF7CDFC41EC41
:10291000100B01F0B1FD51EC100BFDF7A6FCA8EB7C
:10292000000000EE100A18EE900AF8EEC09AFDF7CB
:10293000BBFC41EC100B01F09FFD51EC100BFDF7BF
:1029400094FC381A00EE100AB8EEC00A9FED659AA2
:1029500030EE090ADFED648AF0EE680A01F052FEFB
:10296000B5EEC00AF1EE10FA3CBFF0EE680A30EEA8
:10297000200A30EE499AD4ED0D0A94ED050A60EE76
:10298000880A00EEA90A84ED050A94ED070A00EE14
:10299000890AF0EE680A84ED070A01F033FEB5EE0D
:1029A000C00AF1EE10FA38BF30EE280A84ED070AAB
:1029B00094ED0E1AD4ED060A002761EE081A41EED6
:1029C000890AC4ED060AF5EEC00AF1EE10FAD8BF86
:1029D000F1EE600ADFED451A21EE211ADFED448A9F
:1029E000F4EEC10AF1EE10FA3CBFC4ED068A0127ED
:1029F000D4ED0A0A94ED051A9FED3E9AF6EE009A80
:102A0000B7EE00AA21EE091A20EE090A84ED081A91
:102A100094ED061A21EE091A84ED091A84ED0A0ACA
:102A200030EE600AF0EE4A0A30EE290A01F0EAFDC3
:102A3000E0687169411A002F18BFC4ED0C9A1FD1CC
:102A4000002DB8BF84ED0CAA18DC19DB94ED0C0A3C
:102A5000D4ED060A00EE880A10EE100A84ED0C0A86
:102A6000B0F17E5FC8BFB7EE000A84ED0C0AB5EE88
:102A7000C00AF1EE10FAC8BFF0EE408AC4ED0C8A2D
:102A800000EE101AD4ED0C0A9FED1B8AB8EEC00AB6
:102A9000DFED1A8A70EE800A96ED000AB8EEC00AE1
:102AA00020EE080A20EE090A20EE200AF0EE480A7D
:102AB00030EE280A01F0A6FDB5EEC00AF1EE10FADC
:102AC00038BF30EE080A30EE680A84ED0B0ABDEC20
:102AD000068BBDE8F081000010010020B401002049
:102AE00017B75138000000480000804817B7D137A9
:102AF0000000000000008036DB0FC940DB0F4940BA
:102B000072B600F091FFFEE710B5EFF3108472B6D5
:102B100000F0C6FF84F3108810BD000030B50446F5
:102B20002DED068BF0EE609AB0EE40AA87B090EDE6
:102B3000040AD0ED050A90ED038AB0EE619A30EEFA
:102B4000600ADFED680A02A901A860EE208AB0EEF3
:102B5000410A03F0E5FFDDED020A9DED011A28EEC2
:102B6000200A68EEA00A08EE810A48EE410A94EDB8
:102B7000091ADFED5D1A21EE212A9FED5C1A5C4DEA
:102B80003AEE40AA00EE012A79EEE09A84ED092A95
:102B900094ED0A2A62EE211A40EE811AC4ED0A1A57
:102BA00095ED970A94ED0C1AD4ED0D0A00EE0A1A71
:102BB00040EE290A94ED020ADFED4E1AB7EE002A24
:102BC00060EE211A82EE210A60EE018A20EE208A50
:102BD00028EEA80A08EE080AF1EEC00AF4EE600A30
:102BE000F1EE10FA03D001F0D7FDF0EE400A9FEDB0
:102BF000421A81EE200A10EE100AB0F17E5F12DA5E
:102C000068EE808A28EE008AD4ED0C0A9FED3B0A1C
:102C100060EE800AC4ED0C0AD4ED0D0A20EE800AA5
:102C200084ED0D0A15E095ED981A9FED350AD4ED67
:102C30000C0A21EE001A4AEE010AC4ED0C0A95EDC9
:102C4000981AD4ED0D0A21EE000A49EE800AC4ED6F
:102C50000D0A94ED090AD4ED0A0A01A920EE280A0A
:102C6000684608EE200A84ED0B0AB0EE490A03F02C
:102C700057FF9DED011ADDED000A05AA28EE810A35
:102C800004A903A808EE600A68EEA00A48EE010A4B
:102C900005F036F9DDED030A9FED1A0A1A4960EED8
:102CA000800AFCEEE00A10EE900A80B20860DDEDCA
:102CB000040A091D60EE800AFCEEE00A10EE900A9C
:102CC00080B20860DDED050A091D20EE800ABCEE29
:102CD000C00A10EE100A80B2086007B0BDEC068B87
:102CE00030BD00003ACD133F3333733FCDCC4C3D64
:102CF000B4010020ABAA2A3FAC5C313FA4707D3FF9
:102D000017B7513800803B45342C014010B5EFF324
:102D1000108472B600F088FE84F3108810BD0000A5
:102D20009FED050A80ED090A80ED0A0A80ED0C0A84
:102D300080ED0D0A7047000000000000094890ED8A
:102D4000990AD0ED020AB8EEC01AB8EEC00A60EED9
:102D5000810AC0ED970AD0ED010A20EE800A80EDCD
:102D6000980A7047B40100202DE9F0474FF00008A1
:102D70000446474646464FF47A75C1463C2000F06B
:102D800007FF608809F101098044A088A94507442C
:102D9000E0880644F2DB98FBF5F0A06397FBF5F0C2
:102DA000E06396FBF5F02064BDE8F0870148006819
:102DB0007047000034000020014800787047000090
:102DC0003C00002070B5014600248F4A20461B2994
:102DD00007D01378062B69D2DFE803F06307556349
:102DE00063F201215170907070BD884B732902BF4E
:102DF00005215170907059D00DDCDFF814C26129A3
:102E0000DCF818C21AD0632911D06D2904BF1968E3
:102E1000002905D045E075291AD07A2928D040E04C
:102E2000BCF1000F3DD00221517090703EE0196856
:102E3000002936D103215170907037E019680029BC
:102E40002FD1BCF1000F2CD00421517090702DE0D7
:102E500001F008FA044601F0BBF9041908BF6DA09F
:102E600068D073A001F0D8FAB4F1FF3F1BD01DE089
:102E7000EFF3108572B61860586075A001F0CCFAB7
:102E800085F3108812E07648DFED761A604A90EDFF
:102E9000001A7129D2F830220AD077294DD06D2935
:102EA00004D04FF0FF3470A001F0B6FA204670BD98
:102EB0009FED6C0A6A49062AD1ED020A91ED012ABA
:102EC00070EE800AB6EE000A32EE000AEED2DFE8BB
:102ED00002F04A5606121E2C01F09EFAE6E780ED3B
:102EE000010A10EE100AFDF7DFF941EC100B63A0A8
:102EF00053EC102BF0E780ED010A10EE100AFDF7FD
:102F0000D3F941EC100B63A053EC102BE4E731EE46
:102F1000210A80ED000A10EE100AFDF7C5F941EC18
:102F2000100B64A053EC102BD6E79FED680AFFF757
:102F300087FB67A001F070FAB8E79FED4A0A48499D
:102F4000062AD1ED020A91ED012A70EEC00AB6EE12
:102F5000000A32EE400AA9D2DFE802F005110403AC
:102F60001D2BC8E7BBE7C0ED020A10EE900AFDF783
:102F70009BF941EC100B5BA053EC102BACE7C0EDC0
:102F8000020A10EE900AFDF78FF941EC100B5BA0DE
:102F900053EC102BA0E731EE610A80ED000A10EE31
:102FA000100AFDF781F941EC100B42A053EC102BF5
:102FB00092E79FED590AFFF743FB58A0BAE7FFE7F6
:102FC0000D2916D0104B082993F8433014D0DFF8A0
:102FD00060C103F80C1092F843305B1CDBB282F83E
:102FE0004330402B28BF82F8430052A001F014FA6E
:102FF0005CE704F04BF859E7002B3FF457AF581E3D
:1030000082F843004CA095E73C00002034000020EB
:10301000B40100205573657220436F6E66696720A6
:10302000557064617465204F4B210A0D0A0D000034
:103030005573657220436F6E6669672055706461D1
:103040007465204641494C210A0D0A0D000000001C
:103050004552524F522072657365740A0D0000008C
:103060004C0100200AD7233C496E76616C696420CC
:103070007374617465210A0D00000000696E70753B
:10308000745F76656C6F63697479203D2025660AEC
:103090000D0000005B52616D705D20696E7075748B
:1030A0005F76656C6F63697479203D2025660A0D33
:1030B00000000000696E7075745F706F73697469E9
:1030C0006F6E203D2025660A0D0000000000C842FA
:1030D0006D6F76655F746F5F706F73203D20313068
:1030E000300A0D00696E7075745F63757272656E7B
:1030F00074203D2025660A0D000000005B52616DC2
:10310000705D20696E7075745F63757272656E7440
:10311000203D2025660A0D00000000006D6F7665D9
:103120005F746F5F706F73203D20300A0D000000E8
:103130003F00002025630000082008002DE9F04131
:10314000764D4FF001082DED028B69782878814289
:1031500031D0062829D2DFE800F0030B060E182232
:10316000FEF79AFE04E0FFF7D1FD6DA001F054F9DF
:1031700085F802801BE0FFF7C9FDFEF7EFF869A0B4
:1031800001F04AF985F8028011E0FFF7BFFDFDF775
:1031900079FF69A001F040F985F8028007E060A09E
:1031A00001F03AF985F8028001E0A87818B1687852
:1031B000287003F0EFF82878002804BFBDEC028BDC
:1031C000BDE8F081614EDFED628A9FED628A624F59
:1031D000624C022808D0032802D0042842D06BE0B9
:1031E0005F48FEF7D3F867E0D6ED080A96ED090AC6
:1031F0005C48D7F83012FFF75DF8D6ED090A20EEEB
:10320000A81AD7ED000AF8EEE00A61EE200A97ED61
:10321000041AF8EEC11A61EEA01AF8EEC10AB8EE6F
:10322000C11A60EE800A96ED0B0A20EE010A9FEDAE
:103230004E2A4B48B0EE401A01EE821AF0EE411AC7
:10324000B0EE401AB0EE480AFFF768FC96ED090AA6
:10325000D7ED9C0AB0EEC00AB4EEE00AF1EE10FA27
:103260002ADD25E0D6ED080A96ED090A04213D483D
:10327000FFF720F897ED041A3948F8EEC10AB8EEC6
:10328000C11A60EE800A96ED0B0A20EE011AB0EE2C
:10329000480AF0EE411AFFF741FC96ED090AD7ED16
:1032A0009C0AB0EEC00AB4EEE00AF1EE10FA03DDBB
:1032B000206840F0040020602948D7ED9B0A90ED7B
:1032C000020AB4EEE00AF1EE10FA03DB206840F0E7
:1032D00001002060D7ED9A0AB4EEE00AF1EE10FA90
:1032E00003D8206840F002002060206861688842AE
:1032F00010D0206828B1FFF709FD85F80180002073
:10330000A870216819A001F087F82068FEF7A8FDD1
:1033100020686060BDEC028BBDE8F0813C000020BD
:103320000A0D000043616C6962726174696F6E20FE
:10333000456E640A0D0A0D00416E7469636F67671C
:10334000696E6720456E640A0D0A0D0010010020A9
:10335000DB0FC94000000000B40100203400002051
:10336000580100204C01002051499D384572726F70
:103370007220436F64653A2025580A0D0000000052
:10338000002808BF704730B4A0F108011E4B50F868
:10339000042CD868024204BF30BC7047D1F800C08A
:1033A000BCF1000F1CBF30BC704722EA000048602F
:1033B0005A6810445860154802688A4238BF10465F
:1033C000FAD3D0F804C00CEB00048C4203D1496856
:1033D000614441600146D1F804C00CEB0104944201
:1033E00018BF0A600AD11B689A4208BF0B6005D05B
:1033F000526862444A60026812680A60884218BFD4
:10340000016030BC70470000EC000020FC00002090
:103410002DE9F00F534C844600202168054604F145
:103420001003E9B950494FF4804211F0070F06D05C
:10343000C91D4D4A21F007018A1AC2F580420A448B
:10344000083AC3E9001522F0070222605560561AB7
:103450001560C1E90026A6604FF000416660E1609A
:10346000E7681CEA070F1CBFBDE8F00F7047BCF10E
:10347000000F04BFBDE8F00F70470CF1080212F016
:10348000070F04D002F00701C1F108010A44002A25
:1034900004BFBDE8F00F70476668B24299BFDFF81D
:1034A000CCC01968BDE8F00F70474B68934205D255
:1034B0000B68002B1CBF8C461946F6D1D4F800804F
:1034C000414504BFBDE8F00F7047DCF800000B6811
:1034D000CCF800304B680830A3EB020CBCF1100FA5
:1034E00030D98B18C3F804C04A60204AD2F800C013
:1034F0009C4538BF6246F9D3D2F8049009EB020A22
:103500009A4503D15B684B4453601346D3F804904B
:1035100009EB030AE24518BFC3F800C00FD1C44548
:1035200008BFC3F800800AD0DCF804C0CC44C3F85C
:1035300004C0D2F800C0DCF800C0C3F800C09A4252
:1035400018BF13604B68F21A6260D4F808C0624575
:1035500088BF6246A26043EA0702C1E90052BDE8A3
:10356000F00F7047EC00002038040020FC00002021
:10357000FFF7C6BA10B540F2046004F03DFC074CFA
:103580004FF40051204603F0F3FB63142046012260
:10359000BDE81040102103F0EFBB00000010014017
:1035A00010B5254C606800F01FFB002808BF10BD57
:1035B00000F020FB6060FFF7FFFB204A4FF4005152
:1035C00040F2DC534FF6FF7C012806D002280BD0D6
:1035D000032815D0052829D029E0208830B3642895
:1035E00022D098421DD222E02088F8B164281BD056
:1035F000C8281BD0B0F5967F16D0984211D216E09D
:10360000208898B164280FD0C8280FD0B0F5967FD5
:103610000AD0B0F5C87F09D0B0F5FA7F04D098423F
:1036200005D3A4F800C002E0516100E011612088D8
:10363000401C208010BD0000000000200010014050
:10364000FFF75EBAFFF75CBA2DE9F04192B040F2A5
:10365000026004F0D1FB40F2036004F0CDFB4FF4B4
:10366000C06004F0C9FB40F20B6004F0C5FBE64EFD
:103670004FF4807303221821304603F07DFB73154D
:1036800003221821304603F077FB3315032218215B
:10369000304603F071FBDD4C7314032218212046E1
:1036A00003F06AFB4FF4804303221821204603F005
:1036B00063FB4FF4004303221821204603F05CFB18
:1036C000D34F384604F0B6FE0EA804F0F4FF0024F1
:1036D000ADF838404020ADF83A0040F6B7301090D1
:1036E000ADF84440ADF83C408DF846400EA9384650
:1036F00004F078FF684604F095FE0125ADF800500F
:103700000420ADF80200ADF80440ADF80840ADF873
:103710000640ADF80A406A460021384604F006FD2E
:103720006A460121384604F001FD6A460221384606
:1037300004F0FCFC6A460321384604F0F7FC40F232
:10374000DC520021384604F00DFE6022002138468C
:1037500004F0E0FD08220021384604F013FE40F298
:10376000DC520121384604F0FDFD6022012138467B
:1037700004F0D0FD08220121384604F003FE40F297
:10378000DC520221384604F0EDFD60220221384669
:1037900004F0C0FD08220221384604F0F3FD40F693
:1037A000B3320321384604F0DDFD602203213846A0
:1037B00004F0B0FD00220321384604F0E3FD0AA81E
:1037C00004F08CFCADF82840ADF82C40ADF830404A
:1037D000ADF82A40ADF82E40ADF83240ADF8344097
:1037E0000AA9384604F069FC00221146384604F064
:1037F000F1FD00220121384604F0ECFD00220221F7
:10380000384604F0E7FD00221146384604F06FFC0C
:1038100000220121384604F06AFC002202213846C9
:1038200004F065FC0121384604F03CFF384604F002
:103830003FFC4FF4A06004F0DFFADFF8D8810021EC
:10384000404602F04DFD7448039074488DF82440C2
:1038500005908DF8255028020490800006908DF880
:103860002640C000CDE9075003AA0021404602F0DF
:1038700054FD0021404602F022FD0021404602F0A6
:103880000DFD40F2026004F0B7FA40F2096004F066
:10389000B3FA002004F0E2F90823042200213046A4
:1038A00003F06AFA012304220021304603F064FA8F
:1038B000022304220021304603F05EFA584C2046D1
:1038C00001F02FFC4FF4A02001F0F2FC01220221B4
:1038D000204601F05CFD01221102204601F057FD57
:1038E0000021204601F014FC01221146204601F07F
:1038F000F3FB012303220021204601F0E5FC022214
:103900001146204601F0E8FB002201231146204623
:1039100001F068FC01231A461946204601F062FCBA
:103920004FF460220121204601F047FC012211469C
:10393000204601F023FCA2140221204601F03DFCA8
:1039400001220221204601F019FC0022114612201A
:1039500003F036FB0421204601F0A5FC042120469B
:1039600001F08AFC204601F0FFFB012000F0D8F8AE
:10397000204601F0A0FB204601F0F1FB012120468A
:1039800001F0F5FC40F2026004F036FA40F20A6001
:1039900004F032FA04231A460021304603F0ECF911
:1039A000204C204601F0BDFB0021204601F0B0FB79
:1039B00001220221204601F08FFB01230222002177
:1039C000204601F00FFC4FF4E0420221204601F0B6
:1039D000F4FB01220221204601F0D0FB204601F039
:1039E000C3FB012000F09CF8204601F064FB02219B
:1039F000204601F0BCFC0A2000F092F8384604F0A2
:103A0000E3FD12B0BDE8F08100080140000C014068
:103A1000002C0140000002404C2401401C0000200A
:103A200000240140002801401B4910B540F2DC5041
:103A30000860091D0860091D0860184C0022114625
:103A4000204604F0C7FC00220121204604F0C2FCFD
:103A500000220221204604F0BDFC0022114620462F
:103A600004F045FB00220121204604F040FB002227
:103A70000221204604F03BFB0121204604F0A9FD71
:103A80000121204604F0A8FD0028F9D02046BDE819
:103A90001040012104F09DBD342C0140002C014058
:103AA0001B4910B540F2DC500860091D0860091D73
:103AB0000860184C01220021204604F08BFC0122F2
:103AC0001146204604F086FC01220221204604F023
:103AD00081FC04220021204604F009FB042201217C
:103AE000204604F004FB04220221204604F0FFFAE1
:103AF0000121204604F06DFD0121204604F06CFDFB
:103B00000028F9D02046BDE81040012104F061BD35
:103B1000342C0140002C0140FEF7F2BFFEF7F0BF4D
:103B20002DE9F001461E3CBFBDE8F00170474FF0A3
:103B3000E0244FF47A771448144DD0F800C000BF49
:103B4000A2694FF47A730020A1698A4288BF521A91
:103B500005D805D2BCFBF7F8A8EB01084244104495
:103B60000A46BCFBF5F1B0FBF1F18B4204D8761E9E
:103B7000E6D2BDE8F0017047BCFBF5F85B1AB0FB7C
:103B8000F8F108FB1100DFE70401002040420F00BC
:103B9000F0B44FF0E0250021AB69114A114C4FF40D
:103BA0007A76D2F800C0AA69934288BF9B1A05D8DA
:103BB00005D2BCFBF6F7A7EB02073B4419441346BA
:103BC000BCFBF4F2B1FBF2F290429CBFF0BC704738
:103BD000801ABCFBF4F2B1FBF2F702FB1711E2E72B
:103BE0000401002040420F0001490968081A70478B
:103BF00018000020014800687047000018000020ED
:103C000010B51D484FF47A7184B00068B0FBF1F034
:103C1000411EB1F1807F2ED24FF0E0204161174963
:103C2000F02281F8142D00248461072202612020F3
:103C300081F8140D480D04F0DFF84FF0804004F0D7
:103C4000F9FB684604F037FD7720ADF800004FF629
:103C5000FF700290ADF80240ADF80440ADF80C40A2
:103C600069464FF0804004F0BDFC4FF0804004F006
:103C7000ABFC04B010BDFEE7040100200FE000E043
:103C800002480168491C01607047000018000020CC
:103C90003948016841F4700101603848016841F019
:103CA0000101016000214160C162016821F410211D
:103CB00021F0A85101604FF47F018160016821F477
:103CC000802101600268002142F4803202604FF6D8
:103CD000FF730268491C12F4003F01D19942F8D1E8
:103CE000016811F4003F45D025490A6822F0070217
:103CF00042F003020A6041684160416841604168E6
:103D000041F480614160416821F4701121F000515B
:103D10004160416841F4541141F000514160C16A71
:103D2000184A1140C162C16A41F0190141F484315D
:103D3000C162016841F080610160016811F0006FAB
:103D4000FBD0016841F080710160016811F0007FD3
:103D5000FBD0416821F003014160416841F002015C
:103D60004160416811F0080FFBD000214FF0006066
:103D700003F082B9FEE7000088ED00E00010024089
:103D80000020024000F0FEBF34499FED331AB5EE2B
:103D9000C00AD1ED000AD1ED021A3148F1EE10FA55
:103DA00038BFC0ED000A16D391ED062AF6EE002AC0
:103DB000B4EEC20AF1EE10FA10D291ED031A41EE00
:103DC000800A21EE222A60EE002A41EE001A42EE1D
:103DD000220AC0ED000AC0ED011A2DE0D1ED070A5C
:103DE00072EE200AF4EEC00AF1EE10FA0ADD70EE6F
:103DF000421AD1ED090A91ED040A40EE210AC0ED04
:103E0000000A17E0D0ED031A144AF4EEC01AD2EDFE
:103E1000010AF1EE10FA12DD30EE610A91ED051A99
:103E200061EE221A20EE002A21EE000A41EE820AFB
:103E3000C0ED000A80ED010A80ED021A7047F4EE31
:103E4000C01AF1EE10FA88BF7047C0ED000A80ED8D
:103E5000011A80ED021A7047000000008000002067
:103E60009C0100200000000010B52DED0A8BB0EE83
:103E700062BAF0EE418AB0EE00CAB0EE609A68EE27
:103E8000A8BA6BEE0C0AF0EE40AA84B0B0EE42AADB
:103E90008BEEA00AF0EE61CA7AEEC99A10EE100A13
:103EA000FCF702FACDE9020118EE900AFCF7FCF9E2
:103EB000CDE900010399019861F31E0003909DED87
:103EC000020B51EC100BFCF702FA00EE100A39EE6F
:103ED000C00A10EE100A0028B4BFBFEE008AB7EE89
:103EE000008A28EE0A0A644C28EE281A68EE4B0A6B
:103EF00084ED030A28EE2C0AC4ED050A84ED040AB9
:103F000068EE001AB4EEE11AF1EE10FAC4BF28EE22
:103F10004A1A84ED031A30EE682A94ED031AF1EE82
:103F2000402AB6EE00AAC2EE011A82EEA02A70EE76
:103F3000282AC4ED061A61EE8A1A61EEA21A84EDEF
:103F4000082A22EE0A2A42EE001A28EE292A68EEF2
:103F5000212AB4EEE22AF1EE10FA61D221EE0C0A27
:103F60006BEEA01A20EE200A70EEC10A40EE291A6C
:103F700081EEA00A10EE100AFCF796F941EC100B46
:103F80009FED3FBBB0EE4B1AF0EE6B1A00F000FB5A
:103F900051EC100BFCF79BF900EE900AB1EEE00A31
:103FA000B4EE400AF1EE10FA1CBFB0EE600A00F069
:103FB000F3FB20EE088A84ED048A78EE680A94ED1B
:103FC000031A80EE810A10EE100AFCF76DF941EC3D
:103FD000110BB0EE4B0AF0EE6B0A00F0D9FA51EC7F
:103FE000100BFCF774F9A06194ED051AF1EE480A84
:103FF00080EE810A10EE100AFCF756F941EC110B25
:10400000B0EE4B0AF0EE6B0A00F0C2FA51EC100B66
:10401000FCF75DF99FED1C0A206284ED070A05E0BC
:1040200079EEE10A80EE801A84ED071A94ED060A13
:10403000D4ED070A94ED081A144870EE200A70EEC9
:10404000810AC0ED030A84ED009AC4ED01AAC4ED13
:10405000028AD4ED030A08EE809A20EE000A60EE90
:104060008A0A00EE809A84ED099A04B0BDEC0A8BAE
:1040700010BD0000000000008000002000000000D3
:104080000000000000000000000000009C01002073
:1040900070B505464FF4C06003F0AEFE40F2036019
:1040A00003F0AAFE0121042002F0B8FE40F20E60E7
:1040B00003F0A2FE194C402303221821204602F0EF
:1040C0005BFE802303220421204602F055FE144C9F
:1040D000204604F033FB0021204604F0C0FB002101
:1040E000204604F0AEFB2946204604F0EFFA0421F6
:1040F000204604F0A0FB0821204604F0AAFB002281
:104100000321252002F05CFF40F20531204604F037
:1041100070FB2046BDE8704004F05ABB000C014023
:104120000038014010B5094C0749204604F06CFBEB
:10413000002808BF10BD204604F0F8FABDE8104082
:10414000C0B2FEF73FBE0000050305000038014085
:1041500070B50F4C0025206820B942F6E460FFF7E7
:1041600057F9206042F6E4620A49FCF740F8002261
:1041700042F6E061206802F05BF8216801F5005129
:10418000D1F8E01E814218BF4FF0FF35284670BDC0
:10419000E80000200018010810B500244FF4217237
:1041A00009490A48FCF723F800224FF42071074818
:1041B00002F03EF80549D1F88012814218BF4FF055
:1041C000FF34204610BD000000F00008B4010020BC
:1041D0002DE9F047214F00243868002804BF4FF034
:1041E000FF30BDE8F087EFF3108872B602F080FD73
:1041F0003C2002F02DFD1A4E002500BF06EB852065
:1042000002F034FD04443C2002F022FD6D1C0C2D14
:10421000F4DBDCB9002242F6E061386802F008F80D
:104220003F6842F6E0610025C85140F6B93900BF49
:1042300057F8251006EB850002F06CFD04463C2083
:1042400002F006FD14B96D1C4D45F1D302F006FDD8
:1042500088F310882046BDE8F0870000E8000020C1
:10426000001801082DE9F041EFF3108672B602F054
:104270003FFD3C2002F0ECFC154F384602F0F6FC06
:1042800005463C2002F0E4FCC5B900224FF4207141
:10429000104801F0CDFF0F4900248846C1F8800284
:1042A00058F8241007EB840002F034FD05463C204A
:1042B00002F0CEFC15B9641CA12CF1D302F0CEFCA7
:1042C00086F31088002D14BF01200020BDE8F08186
:1042D00000F00008B401002010B50E4C206820B991
:1042E00042F6E460FFF794F8206000219FED0A0A8F
:1042F0002268084640F6B83302EB810C491C8CED6D
:10430000000A02EB810C801C491C8CED000A9842CB
:10431000F2DB10BDE800002000000000314807215A
:104320009FED310A016080ED010A9FED300A002106
:1043300080ED020A9FED2E0AF2EE040A80ED030AD8
:10434000C0F81812C0ED870AF0EE080AC0ED880A1E
:104350000122C0F8242280ED8A0A9FED260A052357
:1043600080ED8B0AF0EE000AC0F830329FED220A91
:10437000C0ED8D0A80ED8E0AB3EE0E0A80ED8F0A35
:104380009FED1E0A9FED1E1A80ED900A80ED910AA6
:1043900080ED921AC0ED930ADFED1A0A4FF47A739A
:1043A000C0ED940ADFED180AC0ED950AF3EE040A99
:1043B000C0ED960ADFED150AC0ED970AC0ED980A28
:1043C000F2EE080AC0F86432C0ED9A0ADFED100A76
:1043D000C0ED9B0A80ED9C0AC0E99D21C0F87C12CB
:1043E00070470000B4010020CDCC4C3D82A87B3743
:1043F0006F12833ACDCCCC3D000048420000C84249
:104400000000F042CDCC4C3E0000B4420000000061
:1044100000002042FEF774BB0FB4054B10B503A992
:10442000044A029800F0C4FA10BC5DF814FB0000C6
:104430004D6D000808010020004870470C01002065
:1044400030B583B0044600F0CDF99FED090B054669
:104450008DED000B002221466846FBF7C6FF28467B
:1044600000F0D6F99DED000B03B030BD0000000058
:1044700000000000000000002DE9F0412DED020BCE
:104480009FED3D0B2DED028B9FED3D8BDDE9025441
:10449000C4F30A50A0F2FF36142E37DA002E18DAD1
:1044A00053EC102B9DED020B51EC100BFCF768F850
:1044B00053EC182BFCF760FA57D2002CA4BF002451
:1044C000254652DA24F00040284318BF2E4C4CD029
:1044D0001AE02E4820FA06F704EA070028431FD006
:1044E00053EC102B9DED020B51EC100BFCF748F830
:1044F00053EC182BFCF740FA37D2002C03DA4FF4B8
:104500008010F0400444BC4300252EE0332E07DC2D
:10451000A6F114004FF0FF3121FA00F73D4206D119
:104520009DED020BBDEC028B02B0BDE8F08153ECB7
:10453000102B9DED020B51EC100BFCF7C5F853EC62
:10454000182BFCF719FA10D2002C0DDA142E08BF24
:10455000641C09D0C6F13400012101FA00F028449E
:10456000A84238BF641C0546BD43CDE902549DED09
:10457000020BD7E7000000009C7500883CE4377E02
:1045800000000000000000000000F0BFFFFF0F006F
:1045900000B52DED048BB0EE418AF0EE618AB0EEED
:1045A000409AF0EE609A83B053EC182B51EC190B43
:1045B000FCF7FAF900F07040B0F1005F1AD018EE85
:1045C000101A18EE900A8DED008B002918BF0121FA
:1045D000084320F00040C0F17F6000F1E040C00FD0
:1045E00001BFB0EE480AF0EE680A03B0BDEC048BE0
:1045F00008BF00BDB0EE490A03B0F0EE690ABDEC99
:10460000048B00BD10B52DED028BF0EE408A18EE44
:10461000900AB0EE608A20F00040C0F1FF40C00F69
:1046200007D118EE100A20F00040C0F1FF40C00F83
:104630002BD018EE101A18EE900AFBF778FF00EE58
:10464000100A10EE100A6FEAD05010F0FF0F04BFEE
:10465000BDEC028B10BD18EE900A00F0004110EE88
:10466000100A00F00040814204BFBDEC028B10BD77
:1046700018EE101A10EE100ABDEC028B61F31E004A
:1046800000EE900A30EE600A10BD18EE900A4FF06E
:104690007F41B1EB400F1CBF18EE100A5FEA4000EB
:1046A000C7D1012000F0B4F8BDEC028BBDE810408A
:1046B00000F090B80000000010B52DED020B2DEDBC
:1046C000088B84B09DED0C0B51EC100BFCF7E0F85F
:1046D00041EC180B9DED0C0B53EC182B51EC100B0F
:1046E000FBF7EFFF41EC190B0D989FED290B10F034
:1046F000004F53EC102B51EC190B9FED21AB9FEDAC
:1047000022BB0ED0FCF720F90ED953EC1B2B51EC39
:10471000190BFCF731F91CD214E000BF41EC180B67
:1047200017E0FCF711F906D253EC1A2B51EC180BD9
:10473000FBF7C7FFF2E753EC1B2B51EC190BFCF70F
:104740001BF906D853EC1A2B51EC180BFBF718FF8A
:10475000E4E78DED028B9DED0C0B18EE901A10EE38
:10476000900A8DED000B61F31E0003909DED020B8E
:1047700004B0BDEC088B02B010BD000000000000CA
:10478000000000000000F03F000000000000E03FDB
:10479000000000000000E0BF10B52DED028BB1EE6F
:1047A000C08A18EE100A20F00040C0F1FF40C00F90
:1047B0000AD010EE100A20F00040C0F1FF40C00FF8
:1047C00004BF012000F024F8B0EE480ABDEC028BD3
:1047D00010BD0000DFED020A80EEA00A7047000065
:1047E0000000000001480068704700000C01002034
:1047F00002E008C8121F08C1002AFAD170477047AA
:10480000002001E001C1121F002AFBD17047000007
:1048100001490860704700000C0100202DE9FF5F8E
:1048200082B00021DDE90430020DDDF840B0034321
:1048300018D044F61050A2F2FF32424315141198DA
:1048400001281FD0A5EB0B00401C5FEA000A4FF0C7
:1048500000064E4FDFF83891B046504615D5CAF1E4
:10486000000413E0119801244AA3012801D16FEA42
:104870000B010298119AC0E90031C0E9024206B06A
:10488000BDE8F09FCBF10000DFE704460021404A7D
:10489000491842EB0450CDE9001012E0E00707D0C0
:1048A00032463B4640464946FBF711FF8046894663
:1048B00032463B4610461946FBF709FF06460F46AF
:1048C0006410002CEAD1DDE90401DDE90023BAF12E
:1048D000000F06DAFBF7FBFE42464B46FBF7F7FEFE
:1048E00005E0FBF766FF42464B46FBF762FF0446D6
:1048F0000E460022284BFCF73FF803D84FF0FF305C
:10490000014607E00022254B20463146FBF738FEE2
:10491000FCF702F8102409E0002C0ADB0A2200232D
:10492000FBF707FD039B30321A55641E50EA010263
:10493000F2D1641C039AC4F111031444119A012AA0
:1049400003D0012208430DD10AE0084304D000201F
:104950004FF0110B119072E7A3EB0B056D1E0DE0EC
:104960005B4504DD4FF0000205F1010504E003DAC8
:104970004FF00002A5F10105002AECD00298119930
:10498000C0E90231C0E9004579E7000000001440A9
:104990000000F03F300000000000F0430000E03F66
:1049A00030380A2801D201207047002070470000EB
:1049B0002DE9FF4F95B09A46884606460025EEE160
:1049C000252877D100242746F94A0121039400E0E5
:1049D000044316F8013F203B01FA03F01042F7D1DF
:1049E00030782A2811D06FF02F033078A0F13002F0
:1049F000092A16D8039A44F0020402EB820203EB60
:104A000042021044761C0390EFE758F8042B0392FF
:104A1000002A03DA504244F40054039044F00204A4
:104A2000761C30782E2816D116F8010F44F00404B5
:104A30002A280DD06FF02F023078A0F13003092B17
:104A400009D807EB870302EB4303C718761CF3E78B
:104A500058F8047B761C30786C280FD006DC4C2884
:104A600017D068280DD06A2814D104E0742810D01B
:104A70007A280FD10DE044F400140AE044F48014C5
:104A800001E044F440147278824202D104F58014AB
:104A9000761C761C307866280BD013DC582877D02B
:104AA00009DC002875D04528F6D04628F4D04728E0
:104AB0001AD193E118E0632835D0642879D06528AD
:104AC00012D18BE1702873D008DC6728F1D06928F7
:104AD0006FD06E280DD06F2806D1ACE073282CD093
:104AE000752874D0782853D05246179990476D1C7A
:104AF00054E1C4F30250022809D003280DD0D8F89D
:104B0000001004280DD00D6008F1040846E1D8F823
:104B10000010EA17C1E90052F6E7D8F800100D803E
:104B2000F2E70D70F0E718F8041B8DF80010002074
:104B30008DF80100EB46012003E058F804BB4FF06C
:104B4000FF3061074FF0000102D40DE009F10101CF
:104B50008946B9420FDA8145F8DB1BF809100029B4
:104B6000F4D108E009F1010189468142FADB1BF822
:104B700009100029F6D103985346A0EB09072146F6
:104B80003846179A00F080FA284400EB090507E040
:104B900044E008E10DE01BF8010B524617999047DD
:104BA000B9F10109F7D2534621463846179AF2E087
:104BB00039E00A21C4F302524FF0000B0091022A9F
:104BC00006D058F8040BC117032A09D00AE023E0E5
:104BD00008F1070020F00702F2E80201904605E024
:104BE00000B2C117042A01D140B2C117002906DA68
:104BF0000A460021404261EB02012D2202E022051B
:104C000004D52B228DF80420012203E0E20701D015
:104C10002022F7E7914657E00A2100E010214FF0EB
:104C2000000B00910BE010214FF0000B44F0040446
:104C30000827009103E008204FF0000B0090C4F318
:104C40000252022A05D058F8040B0021032A08D08A
:104C500008E008F1070020F00702F2E802019046A0
:104C600003E080B2042A00D1C0B24FF0000922074D
:104C70002AD53278702A07D0DDF800C08CF0100CED
:104C80005CEA0B0C05D00EE040228DF804200122D6
:104C900008E050EA010306D030238DF804308DF887
:104CA000052002229146009B83F0080353EA0B0380
:104CB0000AD150EA010201D1620705D530228DF8F0
:104CC00004204FF001097F1E3278582A04D039A2FF
:104CD0000C920CAA02920BE03BA2F9E75B46009A09
:104CE000FBF727FB0C9B9B5C029A521E02921370EF
:104CF00050EA0102F2D1029804A9081A00F1200B2F
:104D0000600702D524F4803400E001275F4502DD0E
:104D1000A7EB0B0000E0002000EB0B0100900398D4
:104D20004944401A0390E00306D453462146179A9B
:104D3000039800F0A9F90544002706E001A85246AF
:104D4000C05D179990476D1C7F1C4F45F6DBE00353
:104D50000CD553462146179A039800F095F905445F
:104D600004E030205246179990476D1C0099481E68
:104D700000900029F5DC08E002980299524600787C
:104D8000491C0291179990476D1CBBF10001ABF1D2
:104D9000010BF1DC5BE100F065F90544761C30782D
:104DA00000287FF40DAE19B02846BDE8F08F000052
:104DB00009280100303132333435363738396162F1
:104DC00063646566000000003031323334353637B5
:104DD000383941424344454600000000600700D492
:104DE000062708F1070020F00700F0E802238046BC
:104DF00003F0004C5FEA0C0001D097A009E0200509
:104E000001D596A005E0E00701D095A001E0AFF242
:104E10004C001390307823F0004365280CD006DC5A
:104E2000452809D046281DD047287FD13BE0662879
:104E300018D067287AD136E00021112F01DB11202C
:104E400000E0781CCDE9000104A90CA8FFF7E6FCFE
:104E5000DDE90D010C9A4FF0000B07F101091092EA
:104E600000914EE04FF000400097CDE9011004A9F9
:104E70000CA8FFF7D3FCDDE90D020C9B0F994FF056
:104E8000000B91461093009211B9791C00EB0109B7
:104E9000B7EB090003D4C0F1FF3B07F10109A9EB0F
:104EA0000700019042E0012F00DA01270021112FB5
:104EB00001DD112000E03846CDE9000104A90CA86D
:104EC000FFF7ACFCDDE90D010C9A00914FF0000BEF
:104ED000B946109221070FD4009A4A4503DA914649
:104EE00001E0A9F10109B9F1010F05DD109AA9F15D
:104EF0000101515C3029F4D0B84202DA10F1040FFC
:104F000003DA0121CDE9011010E0002803DC83441D
:104F1000A9EB000102E0411C494500DD8946A0EBF8
:104F20000B00401C01904FF000400290200705D478
:104F30000198484502DB4FF0FF30019000208DF8CA
:104F40004B0002980DF14B07B0F1004F25D0022025
:104F50000C902B200D90029800280CDA4042029011
:104F60002D200D9007E00A210298FBF7CCF9303193
:104F7000029007F8011D0C99481E0C900029F2DCE4
:104F800002980028EFD1791E0D980870307800F053
:104F9000200040F0450007F8020D11A8C01BC01DFD
:104FA00002901398007800B1012000EB09010198EC
:104FB00001EBE071029801440398401A401E0390EF
:104FC000E00306D453462146179A039800F05CF894
:104FD00005441398007818B15246179990476D1CF4
:104FE000E00323D553462146179A039800F04CF866
:104FF00005441BE0BBF1000F07DB0098584504DDBA
:105000001098179910F80B0001E0179930205246BC
:10501000904701980BF1010B401E05F1010501902D
:1050200004D12E205246179990476D1CB9F100010A
:10503000A9F10109DEDC05E017F8010B52461799CA
:1050400090476D1C0299481E02900029F4DC5346DB
:105050002146179A03989EE62D0000002B000000C1
:10506000200000002DE9F041044600251E461746A9
:10507000880404D405E039462020B0476D1C641E26
:10508000F9D52846BDE8F0812DE9F0410446002518
:105090001E469046C80301D5302700E0202788042B
:1050A00004D505E041463846B0476D1C641EF9D56D
:1050B0002846BDE8F081816841F00801816081687F
:1050C00011F0080FFBD1816841F004018160816813
:1050D00011F0040FFBD170471205A2F580120129CF
:1050E0000CD0022918BF7047816B21F440118163F5
:1050F00002F44011826B114381637047C16A21F44D
:105100007001C16202F47001C26A1143C16270474A
:105110000029816814BF41F4006121F400618160BD
:10512000704710B5A0F59230B0F180400DD0B0F5C9
:10513000806F18BF10BD40F20A3002F07AFEBDE861
:10514000104040F20A3002F065BE40F2093002F031
:1051500070FEBDE8104040F2093002F05BBE81688D
:1051600041F4807181607047816811F0010F18BFB0
:105170007047816841F0010181607047002A01F0A9
:1051800001020DD01AB1826842F48012826011F0DF
:10519000020F1ABF816841F4004170478160704777
:1051A0001AB1826822F48012826011F0020F1CBFD3
:1051B000816821F40041F1D1704701290AD0022908
:1051C00018BF7047816821F4E04181608168114314
:1051D00081607047816821F460218160816811439A
:1051E0008160704710B4D0F838C0846BCCF3015C98
:1051F000A1EB0C01C91C01EB81014FF01F0C0CFA53
:1052000001FC24EA0C0C02FA01F141EA0C01816371
:1052100007210A2A0CD2D0F810C002EB42029140BA
:105220002CEA010103FA02F21143016110BC70473C
:10523000122A24BF10BC7047D0F80CC00A3A02EB07
:10524000420291402CEA010103FA02F21143C160CB
:1052500010BC7047002908BFC06B0BD0012908BFE4
:10526000006C07D0022908BF406C03D0032914BF8B
:105270000020806C80B2704711F0010F03D04268AB
:1052800042F04002426011F0020F03D0426842F047
:105290002002426011F0040F08BF7047416841F0DE
:1052A000800141607047026822EA01010160704795
:1052B00004490A6822F470220A600A6810430860F0
:1052C000704700000424014010B44FF01F0C062961
:1052D0000CD2446B01EB81010CFA01FC24EA0C0CAA
:1052E00002FA01F141EA0C0141631EE00C290DD2E2
:1052F000046B891F01EB81010CFA01FC24EA0C0C00
:1053000002FA01F141EA0C0101630EE010290CD20E
:10531000C46A0C3901EB81010CFA01FC24EA0C0C83
:1053200002FA01F141EA0C01C16207210A2A0CD2FA
:10533000D0F810C002EB420291402CEA010103FABE
:1053400002F21143016110BC7047122A24BF10BC45
:105350007047D0F80CC00A3A02EB420291402CEAA6
:10536000010103FA02F21143C16010BC704711F051
:10537000010F03D0826842F48002826011F0020FB4
:1053800008BF7047816841F4001181607047002AAE
:1053900001F4807214D01AB1426842F48072426003
:1053A00011F4806F03D0426842F48062426011F0D1
:1053B000020F1ABF816841F0020170478160704797
:1053C0001AB1426822F48072426011F4806F03D0F7
:1053D000426822F48062426011F0020F1CBF8168B3
:1053E00021F00201EAD1704710B5B7EE002A2DED89
:1053F000048BB0EE619A82B0DFED321A60EE211AB2
:1054000082EE210A60EE208A20EE018A68EEA80A68
:1054100048EE080AB1EEE00AB4EE400AF1EE10FAE6
:105420001CBFB0EE600AFFF7B7F99FED271AC1EE77
:10543000000A10EE900AB0F17E5FBCBF68EEA08A51
:1054400028EE208AB0EE490A01A9684601F068FBFF
:105450009DED011ADDED000A1C4C28EE810A04F1D5
:105460002002111F081F08EE600A68EEA00A48EE2D
:10547000010A02F045FDD4ED060A9FED150A154913
:1054800060EE800AFCEEE00A10EE900A80B208603E
:10549000D4ED070A091D60EE800AFCEEE00A10EE6A
:1054A000900A80B20860D4ED080A091D20EE800A37
:1054B000BCEEC00A10EE100A80B2086002B0BDEC6B
:1054C000048B10BDABAA2A3FAC5C313F58010020D1
:1054D00000803B45342C01400A490A6842F0010231
:1054E0000A600A6822F47C520A600A684FF47C530E
:1054F00003EA002010430860086820F001000860FB
:10550000704700000066004010B5A0F18041B1F581
:10551000C84109D040F21A4002F08BFCBDE81040AF
:1055200040F21A4002F076BC40F2194002F081FCD1
:10553000BDE8104040F2194002F06CBC30B4817AF2
:10554000364B012202FA01F11A6842F001021A6098
:10555000DFF8CCC0DCF800208A43CCF80020C489F6
:10556000304AE4B914688C431460C4884588240424
:10557000C5EA04044589ED0005F1804505F5C045FF
:10558000C5F84046848805882404C5EA0404458992
:10559000ED0005F1804505F5C045C5F84446C489D0
:1055A000012C1CD114680C43146002884488120436
:1055B000C4EA02024489E40004F1804404F5C044D2
:1055C000C4F840268288C4881204C4EA02024489CE
:1055D000E40004F1804404F5C044C4F844268489FE
:1055E000114A002C14680CBF8C430C4314600489CE
:1055F0000E4A002C14680CBF8C430C431460007CD2
:10560000012804D1DCF800000843CCF80000186839
:1056100020F00100186030BC7047000000660040B8
:105620001C6600400C6600400466004014660040A2
:10563000F0B585B00C4605461F4616466946012062
:1056400000F068F900234FF0010C4FF6FF70ADF841
:105650000C3000EA4511ADF80A70ADF80EC08DF8B7
:1056600010C000EA4410A6B1012E1DD04FF6FF77FE
:10567000C4F34F3207EAC50107EAC404C5F34F304B
:1056800041F0040144F00404022E18D0032E21D06E
:10569000FEE7ADF80010ADF80400ADF80830ADF845
:1056A0000230ADF806301FE0ADF80010ADF8040090
:1056B000ADF808C0ADF80230ADF8063014E0ADF832
:1056C0000000ADF80420ADF80830ADF80210ADF8D8
:1056D000064009E0ADF80000ADF80420ADF808C0C0
:1056E000ADF80210ADF806406846FFF727FF05B099
:1056F000F0BD2DE9F00103684FF6FF724FF0000C8A
:1057000023F002030360036843F00103036043686E
:1057100013F0010F03D1002A18BF521EF7D14268BF
:1057200012F0010F08BF4FF0000C6CD0036A4FF06D
:10573000F85713F0010F4FF470264FF4E0554FF473
:10574000E0044FF4C0425FD04B7807EA03630F7860
:1057500043EA87778B7806EA034605EA83133343E7
:1057600047EA0305CB7804EA035402EA83224B8913
:1057700022435B1E2A43C3F309031A43C2610A7919
:10578000012A02680CBF42F0800222F0800202600F
:105790004A79012A02680CBF42F0400222F040021E
:1057A00002608A79012A02680CBF42F0200222F0CE
:1057B00020020260CA79012A02680CBF22F010029E
:1057C00042F0100202600A7A012A02680CBF42F01D
:1057D000080222F008020260497A012901680CBF20
:1057E00041F0040121F004010160016821F0010190
:1057F00001604FF6FF71426812F0010F28D00029B6
:1058000018BF491EF7D127E043F00103036291F866
:10581000018007EA086791F8008047EA88788F7866
:1058200006EA074605EA8715354348EA0506CD78B6
:1058300004EA055402EA852222434C893243641E5D
:10584000C4F309042243C26123F00102026296E715
:10585000002918BF4FF0010C6046BDE8F001704709
:105860004269114341617047DFF8A4C010B4DCF80D
:105870000040002314F0806F38D000BF4FEA405C36
:10588000180100F1804000F5C040C0F880C5D0F894
:10589000843523F0BF03C0F88435D0F8843502F096
:1058A0000F021A43C0F884250A78CB7891F801C01A
:1058B00042EA03628B781B0443EA0C231A43C0F8C4
:1058C00088250A79CB7942EA03628B7949791B04EE
:1058D00043EA01211143C0F88C15D0F8801541F03E
:1058E0000101C0F8801510BC01207047DCF80030C1
:1058F00013F0006F18BF0123C0D1DCF8003013F0A3
:10590000805F14BF02230020B8D110BC7047000094
:105910000864004030B459B101239C0200224FF0CA
:10592000020C052866D2DFE800F004121D2A4700A9
:10593000FEE74A71CA718A714C810A724A7081F815
:1059400002C0CA700A714A720A7030BC7047CB81BB
:105950000A740A810A804A808A80CA808A814A81C0
:1059600030BC70478C820A7481F811C08B748A70C5
:10597000CA604B700A708A604A6030BC704781F818
:105980004C2081F84D20002381F84B204FEA030082
:1059900001EB030C5B1C8CF80B2001EB030C801C4F
:1059A0005B1C8CF80B204028F2DB8A724A600A727A
:1059B0004A720A6030BC704781F84D2081F84E2051
:1059C000002381F84C20184601EB030C5B1C8CF87B
:1059D0000B2001EB030C801C5B1C8CF80B20402877
:1059E000F2DB8A724A600A7281F84B204A720A60BE
:1059F00030BC7047FEE7000070B5054608780C46DD
:105A000060F30701607860F30F21A07860F317411D
:105A1000E07860F31F611F2928BF70BDDFE801F047
:105A2000FD102F4E6D8CADCEFCFBFAF9F8F7F6F5B4
:105A3000F4F3F2F1F0EFEEEDECEBEAE9E8E7E60083
:105A40006AB1207960F30701607960F30F21A079D2
:105A500060F31741E07960F31F61FE480160FD4883
:105A600000682071010A6171010CA171000EE071E2
:105A700021462846BDE870400822FFF7F5BE6AB10E
:105A8000207960F30701607960F30F21A07960F35A
:105A90001741E07960F31F61EE484160ED484068CE
:105AA0002071010A6171010CA171000EE0712146A3
:105AB0002846BDE870400822FFF7D6BE6AB12179BA
:105AC00061F30700617961F30F20A17961F3174059
:105AD000E17961F31F60DF498860DE4880682071EA
