:020000040800F2
:10000000384C002069010008992C0008B12700082D
:10001000952C0008890900080D3600080000000032
:10002000000000000000000000000000ED2E0008AD
:10003000211E000800000000E92E000881010008D0
:100040008301000883010008830100088301000880
:100050008301000883010008830100088301000870
:100060008301000883010008830100088301000860
:100070008301000883010008830100088301000850
:100080008301000883010008E507000883010008D8
:10009000F90F0008830100088301000883010008AC
:1000A0008301000883010008830100088301000820
:1000B000E92F00088301000883010008830100087C
:1000C0008301000883010008830100088301000800
:1000D00083010008830100088301000883010008F0
:1000E00083010008830100088301000883010008E0
:1000F000830100088301000883010008000000005C
:10010000830100080000000083010008830100084B
:1001100083010008830100088301000883010008AF
:10012000830100088301000883010008830100089F
:1001300083010008000000000000000083010008A7
:10014000830100088301000883010008830100087F
:10015000DFF810D000F0B6FA004800476947000801
:10016000AFF30080384C002006488047064800471F
:10017000FEE7FEE7FEE7FEE7FEE7FEE7FEE7FEE757
:10018000FEE7FEE7F12E0008510100082DE9F041DD
:100190000024061B254671F1000605DA012400271C
:1001A000D0EB070067EB0101161E73F1000605DABC
:1001B0000027D2EB0702012567EB030300F09FF84D
:1001C00086460E4617469C46AC4204D00025D0EB2E
:1001D000050E65EB010624B10020D2EB000760EBB1
:1001E000030C704631463A466346BDE8F08140EA6A
:1001F00001039B0703D009E008C9121F08C0042AA5
:10020000FAD203E011F8013B00F8013B521EF9D28B
:100210007047D2B201E000F8012B491EFBD27047B3
:100220000022F6E710B513460A4604461946FFF7C2
:10023000F0FF204610BDF0B4CA17CB0F504051401C
:10024000C61841F100054FEAC372314628004FF04D
:10025000960303D0B623F0BC00F09BB830460021D3
:10026000F9E770B5C1F30A5201F000450024C1F36B
:10027000130140F2FF3341F480119A4201DA002069
:1002800070BD40F233439A42A2F2334203DC524241
:1002900000F066F800E090402C43F1D0404270BD81
:1002A00000F0004230F000400AD0C10D01F560714D
:1002B000C0F3160042EA0151C208400711437047DB
:1002C00000200146704701F0004330B421F00041A6
:1002D00050EA010206D00A0DA2F56072C1F31301C3
:1002E000002A02DC30BC00207047440F44EAC104FD
:1002F000C100E01830BC00EBC25000F041B82DE95D
:10030000F05F0546002092469B4688460646814699
:1003100040241BE0284641464746224600F020F88C
:1003200053465A46C01A914110D3114618462246E8
:1003300000F0DAF92D1A67EB01084F46224601203A
:10034000002100F0D1F917EB00094E41201EA4F165
:100350000104DFDC484631462A464346BDE8F09FAB
:10036000202A04DB203A21FA02F00021704721FA0A
:1003700002F3D040C2F12002914008431946704771
:100380000029A8BF7047401C490008BF20F00100A9
:10039000704710B4B0FA80FC00FA0CF050EA010487
:1003A00004BF10BC704749B1CCF1200421FA04F419
:1003B00011FA0CF118BF012121430843A3EB0C01F2
:1003C000CB1D4FEA00614FEA102042BF002010BC55
:1003D000704700EBC35010440029A4BF10BC704705
:1003E000401C490008BF20F0010010BC704710B548
:1003F00041000CD0C0F3C751962908DC7E2909DCE6
:1004000006DB410204D000F0004040F07E5010BDF9
:10041000002010BDC1F19604C4F1200100FA01F1E1
:10042000E040FFF7ADFFA04010BD2DE9FE4F804634
:1004300081EA0300C00F0C46009021F0004123F038
:100440000045B8EB0200A94105D24046214690463E
:100450001C460B46024623F00040104347D0270DB0
:10046000C7F30A00C3F30A510290401A01904028D2
:100470006BDAC3F3130040F4801B0098924620B15E
:100480000023D2EB030A63EB0B0B01985946C0F132
:100490004002504600F028F906460D46504659469F
:1004A000019A00F030F910EB08006141002487EA5E
:1004B000115284EAE7731A4340D0009A62B3019A5A
:1004C000012A4FEA075215DC001B61EB02014FF0D5
:1004D000004202EA0752CDE90042001C41F58011BA
:1004E00032462B4600F030F903B0BDE8F08F4046AD
:1004F0002146F9E7001B61EB0201001C41F5801366
:1005000000185B412018A2F5001747EB030140EAF1
:10051000D570B6196D4111E06D084FEA360645EA0F
:10052000C0754FEA0752001B61EB0201001C41F548
:10053000801149084FEA30000019514132462B46DC
:1005400003B0BDE8F04F00F0F0B800980122400081
:100550000023D0EB020263EBE073009821464FEAE0
:10056000E074B8EB000061EB0401E9E783F00043BD
:100570005BE781F0004158E72DE9F041054621F0A5
:1005800000400C46284309D0C4F30A5040F23341DE
:10059000884205DD28462146BDE8F0812846FBE774
:1005A00040F2FE31884210DC0CDB4FEA043040EAB6
:1005B000155050EA053105D0104804F000410143C0
:1005C0000020E9E700200146E6E7A0F2334046427A
:1005D000C6F140022846214600F086F807468846C4
:1005E000284621463246FFF7BBFE43463A4600F016
:1005F0009CF83246BDE8F04100F076B80000F03FCC
:1006000030B5041E71F1000404DB4FF00044404299
:1006100064EB0101141E73F1000405DB1C464FF06E
:100620000043524263EB04038B4208BF824230BD59
:1006300030B5041E71F1000404DB4FF00044404269
:1006400064EB0101141E73F1000405DB1C464FF03E
:100650000043524263EB0403994208BF904230BD0D
:1006600070B5044601F000450020054304D14FF069
:100670000045644265EB010103F00045284305D1C4
:1006800018464FF00043524263EB0003101B73EB1C
:10069000010002D24FF0004009E082EA040283EA3E
:1006A00001034FF000501A4301D14FF0C0404FEA10
:1006B0002062EFF3008162F31F6181F3008870BD57
:1006C00000207047064C074D06E0E06840F001034B
:1006D00094E8070098471034AC42F6D3FFF73CFD8E
:1006E000F0690008106A0008202A04DB203A00FAAA
:1006F00002F1002070479140C2F1200320FA03F379
:10070000194390407047202A06DBCB17203A41FA64
:1007100002F043EAE07306E041FA02F3D040C2F18E
:100720002002914008431946704710B5141E73F11A
:10073000000408DA401C41F1000192185B411A43A1
:1007400001D120F0010010BD2DE9F04D92469B46ED
:1007500011B1B1FA81F202E0B0FA80F22032904693
:10076000FFF7C2FF04460F4640EA0A0041EA0B01C8
:1007700053465A46084313D0114653EA010019D094
:10078000C8F140025046FFF7EBFD05460E465046C5
:1007900059464246FFF7A8FF084305D0012004E070
:1007A00020463946BDE8F08D0020054346EAE07654
:1007B0002C4337430A986305E40AA0EB08000022A3
:1007C000FD0A44EA47540A3002D500200146E9E711
:1007D000010510196941DDE9084500196941BDE8C5
:1007E000F04DA2E70348016821F00401016001F027
:1007F000E7BF00000024014010B501F003FE0448EB
:100800000078002818BF10BDBDE8104002F076BE89
:10081000540000202DE9F0414F4D2DED028BA868CA
:10082000401CA860B0F5FA7FBCBFBDEC028BBDE8F0
:10083000F0810020A8606868401CDFED488A484CC1
:100840006860B7EE008A94ED011A64280CDC31EE82
:10085000280A10EE100AB0F17E5F36DC84ED010A42
:10086000BDEC028BBDE8F0813E4ADFED3F1A3F4907
:1008700092ED070A3A4A41F2EC3320EE210A0E6863
:1008800041F288379842FDEEC00A92ED010A20EE4F
:10089000210A1DD810EE900A05B202F02BFFBDEE22
:1008A000C00A10EE100A00B2874298BF0020294605
:1008B00026F8105000F0A2FB94ED010A30EE280A51
:1008C00010EE100AB0F17E5FC8DD30EE480AC5E7D1
:1008D00041F25041DFED268A88420AD831EE280ADB
:1008E000B5EEC00AF1EE10FAB8D200BF30EE080A39
:1008F000B4E742F2D871884221D810EE900A05B2CE
:1009000002F0F8FEBDEEC00A10EE100A00B28742F7
:1009100098BF002036F91010294401EBD17149101D
:1009200026F81010294600F069FB94ED010A30EE1C
:10093000280AB5EEC00AF1EE10FA8FD2D6E70021F0
:1009400041F2883000F05AFB01202870BDEC028B88
:10095000BDE8F04102F046B95400002017B7513904
:10096000980000205041002000409C45900000204D
:1009700017B751B90348002141608160017002F04E
:10098000BDBD00005400002001F01EBC70B501F098
:1009900039FD0A4C00252570606810B101F010FE89
:1009A000656002F0CFFC064C002802BF01202070D9
:1009B00070BD02F0A3FD257070BD00002C0000206A
:1009C000540000202DE9F04FFF492DED028B91B02E
:1009D000886800EE100AB8EE400ADFEDFC0AFC4A17
:1009E000B0EE081A20EE208AD2ED060A92ED020A35
:1009F000097820EE800A0F2920EE010AB6EE001ACF
:100A000020EE010A80F0C982DFE801F0F708143413
:100A10004F6D93C1DCF8F5F4F3F2F100EA480021E0
:100A20009FEDEC0A816000F1200181ED000A0221B6
:100A300000F09CB9E84890ED030AE84870EEC00A5F
:100A400090ED000A9FEDE61A00EE810A80ED000AA3
:100A5000DFEDE00AB0EE601A01F03CFDDA4C49F639
:100A60004041A0688842C0F0988202F099F90320C2
:100A700000F01AB9D94890ED000AD54880EE201A46
:100A8000B0EE000A61EE000AB0EE081A80EE810AAC
:100A900080ED020A0CA803F0E9FC0CA9012000F08B
:100AA000DFFA0420C84900F048BAC74C0020DFED47
:100AB000C91AA06004F11800B0EE611AC0ED001A66
:100AC000C0ED011AC248D0ED070A04F12000B1EED2
:100AD000600A80ED000AC0ED010AF0EE610A01F043
:100AE000F9FC0520E0E0B84C00F0010004F1180129
:100AF000B94A01EB800191ED000AD2ED030A30EE14
:100B0000200A81ED000A04F1200101EB800090ED44
:100B1000000ADFEDB00AB0EE601A01F0DBFCA0685D
:100B200044F620618842C0F0388202F039F906208C
:100B3000BAE0AC48A64C90ED010AD0ED000AD4ED25
:100B4000071A30EE600AF0EE000A20EE201A81EE5D
:100B5000810A20EE200AF0EE080A80EE201A84EDC9
:100B6000031A94ED0C0A01F09BFC94ED030A68460D
:100B700003F07CFC6946022000F072FA9FED950AB2
:100B80009148002180ED030A81600721EEE020EE0C
:100B9000080AF6EE000A8C4C20EE200A94ED031AA7
:100BA000DFED8C0A01F096FC18EE100AB0F1804FD0
:100BB000C0F2F3818C49D1E90401FFF73CFB2061CD
:100BC000082071E0804CD4ED030A9FED881A30EEC6
:100BD000811A84ED031ADFED7F0A01F07BFC844962
:100BE000E0688842A8BF0920C0F2D7815CE0A6E196
:100BF0002AE1BEE067E05AE000E0CEE17A49D1E9BF
:100C00000401FFF718FB704C00EE100AD4ED040A43
:100C100030EE600ABDEEC00A10EE100A0028CCBF0C
:100C200001214FF0FF316A4A00EE100AB8EEC00A07
:100C3000DFED700AC2F8881020EE200AB5EEC00A77
:100C4000F1EE10FA00EE100AB8EEC00AD8BFDFEDE0
:100C50006A0A60EE200AB1EE001A81EE200A10EE58
:100C6000100AFFF71DFB41EC100B02F061FD51EC87
:100C7000100BFFF7F6FA564D00EE100A6860B8EE5A
:100C8000C00A0BA803F0F2FB0BA9032000F0E8F95F
:100C900095ED220A0BA8B8EEC00A03F0E7FB0BA9FA
:100CA000042000F0DDF90A20207000F076B99FEDF5
:100CB000490A4548002180ED030A8160418080EDAA
:100CC000050A0B2152E0424842683F48B0F9021041
:100CD000B1EBC21F39D2D0ED050AB4EEE08AF1EED5
:100CE00010FA24DD9FED451A70EE810AC0ED050A69
:100CF000D0ED030A9FED421A20EE811A00EE902AF1
:100D0000F8EEE00ADFED3F1A374B60EEA10A5B68B0
:100D1000C1EE201AFDEEE10A10EE902A9A1AD30FC6
:100D200002EB8332436843F82120491C4180D0ED17
:100D3000030A9FED2E1A30EE811ADFED260A80EDB0
:100D4000031A01F0C7FB00F028B990ED030ADFEDAC
:100D5000270A0022491E30EE600A80ED030A8260F5
:100D600041809FED1C0A0C2180ED050A017000F006
:100D700014B9154CB4F90200002860DBD4ED050A63
:100D8000B4EEE08AF1EE10FA4CDD11499FED1B1A2A
:100D9000DFED1C1A144A70EE810A9FED191AC4ED9A
:100DA000050AD4ED030A526820EE811AD1ED010A3A
:100DB000F8EEE00A60EEA10AC1EE201AFDEEE10AAB
:100DC00010EE901A511A1FE02C00002017B751386E
:100DD000A041002000000000504100204C000020F5
:100DE00017B7D13844000020D0000020BEB5243908
:100DF000DB0FC94100008038000080B80000803C53
:100E000000008046DB0FC940CA0F01EB82316268E7
:100E100052F82030194401EBD171491042F82010EA
:100E2000401E6080D4ED030A1FED101A30EEC11A87
:100E30005FED180A84ED031A01F04CFBADE001F000
:100E4000AFFF0D202070A8E0584E002001467768C3
:100E5000FA0119D0564A4FEAC71C4FEA5C0552689E
:100E6000141F0022134600BFD4F804C01CEB00007E
:100E700041EBEC7154F808CF1CEB020243EBEC732E
:100E80006D1EF1D180185941FA010023FFF77EF958
:100E900000EE100AC6F88C000DA8B8EEC00A03F0E8
:100EA000E5FA0DA9052000F0DBF84148002445686B
:100EB0002868C0F3D117D6F804C000200CFB04F357
:100EC00023F07E49431E014602464FF0800803EBA3
:100ED000CC1ACCF1000E00BF09EB0203403B48BF27
:100EE00003EBCC1303D49A4538BF03EBCE1355F86C
:100EF000233002F10102181841EBE371B8F1010847
:100F0000EAD180220023FFF741F939197F2988BFF0
:100F10008039D6F88C2006EB8101801A04F1010497
:100F2000C1F89000802CC6DB2149002088604880F1
:100F30001FED580A0E2081ED050A08702DE01C4CAB
:100F4000B4F90200802820D294ED050AB4EEC08ADC
:100F5000F1EE10FA21DD1549DFED160A01EB8000F4
:100F600030EE200A84ED050A90ED240A0EA8B8EEB2
:100F7000C00A03F07BFAB4F902000EA90A3000F0AF
:100F80006FF86088401C608007E0002007492070EF
:100F90000120C1F8840001F025FE05488168491C44
:100FA000816011B0BDEC028BBDE8F08FA041002044
:100FB0002C0000206F12833A70B50B4C002520687E
:100FC00020B10A490D7001F0FBFA2560084C6068F9
:100FD00020B94FF4705001F03BFB606005490120DF
:100FE000C1E92150207070BD900000205400002005
:100FF0002C000020A041002000F0CEB830B5024601
:1010000016480D4683B0017840F20B4040EA41118A
:1010100000986C4661F31700009000208DF80300E3
:10102000009804EB1060011D104603F071FB00995D
:1010300000EB11608DF80300009804EB1060011DB7
:10104000284603F065FB009900EB11608DF8030062
:10105000684603F01DF803B030BD000078000020A2
:1010600030B50D46144983B06C460A784FF481615F
:1010700041EA4212009962F31701009100218DF8B4
:101080000310009904EB1161091D03F041FB009965
:1010900000EB11608DF803000098296804EB1060E4
:1010A00041600098042101EB10608DF80300684650
:1010B00002F0EEFF03B030BD78000020F0B5304DF7
:1010C000304E314CE86F83B040B161683268511ADC
:1010D0004908814284BF012001F084FDD5F88010C9
:1010E000A1B1A0683268101A400888420ED9207851
:1010F00040F2174141EA4011009861F31700009057
:1011000000208DF80300684602F0C2FF1F4E3068D1
:10111000E0602169814204BF03B0F0BD10F0020F0E
:101120001B4D1C4F20610FD00021384602F08FFF6D
:101130000121384602F08BFF0221384602F087FF7A
:10114000286840F020002860207B10F0040F0FD0AA
:101150000021384602F07BFF0121384602F077FF7C
:101160000221384602F073FF286840F02000286012
:10117000384602F05BFD7020306003B0F0BD000027
:10118000A0410020000000207800002018640040EA
:101190000C640040006400402DE9F04FFB4E85B028
:1011A00030684FF0000A10F0030F04BF05B0BDE82F
:1011B000F08FF74801684A0D009962F3170100911A
:1011C000011D0A680F1D02F00F028DF803203A6816
:1011D0008DF804203A68120A8DF805203A68120C3E
:1011E0008DF806203A6807F10408120E8DF80720E2
:1011F000D8F800208DF80820D8F80020120A8DF8C1
:101200000920D8F80020120C8DF80A20D8F8002008
:10121000120E8DF80B20326842F020023260DFF8A7
:1012200074B3DFF87493012500986C46C0F3441141
:1012300000F01F0210F4806F40F0558140F4806090
:10124000009099F80000814218BF002940F04B81BE
:10125000DBF80000C9F80400202A80F04481DFE8B0
:1012600002F0101A212847648388BD8E94BD9AA08D
:10127000A5AABDB6B6BDBDBDBDBDBED6F4FFF1F0DD
:10128000EFEE9DF8040000F073FC002800F00E81E2
:10129000EE2000F00BB9022001F0A4FC002800F0C1
:1012A0000581F5E7012001F09DFC002800F0FE809B
:1012B000EEE700980421B1EB106F40F01481B748BD
:1012C0000068002804F1040007D002F0B1FFB44820
:1012D000B1EE400A80ED060A04E002F0A9FFB04832
:1012E00080ED060AAD48C06B002840F0FC8038E075
:1012F00000980421B1EB106F70D1A8480068002855
:1013000004F1040007D002F093FFA548B1EE400AB3
:1013100080ED050A04E002F08BFFA14880ED050A8C
:101320009E48C06B002859D11BE000980421B1EB06
:10133000106F53D199480068002804F1040007D0C9
:1013400002F076FF9648B1EE400A80ED040A04E010
:1013500002F06EFF924880ED040A9048C06B0028AE
:101360003CD100F04FFCBEE08C48C06B002835D06B
:10137000F7E7032001F036FC002870D088E7012051
:1013800001F030FC00286AD082E7042001F02AFC3A
:10139000002864D07CE7012001F024FC00285ED006
:1013A00076E700F0A5FB002859D071E701F0BEFBFD
:1013B00000287BD06CE77B4801788DF80410007919
:1013C0008DF805005FF002008DF8030088E09DF8BD
:1013D0000400211D02F0EAFF0420F5E783E0201D50
:1013E000039002F034FF401E212817DA6B4901EB0D
:1013F000800002990160694890ED0C0A01F050F8F4
:10140000664890ED140A00F02DFC0820DCE7201D52
:10141000039002F01CFF401E21280ADB4FF0FF3032
:10142000039903F075F90398011D002003F070F98A
:10143000EBE75A4901EB800000680290E5E73AE0EB
:101440002CE020E017E00BE0FFE702F009F8039042
:1014500001F0B6FF01460398081827D018E725E0E9
:1014600001F0A8F901287FF413AF02F059F802F057
:1014700045F800201AE003208DF8040005208DF8BF
:1014800005000220A0E7012001F0ACFB46494AF626
:10149000AA20086000F09AFC40B1F9E60098010E1D
:1014A000201D00F041FC00287FF4F2AE8DF804000E
:1014B0008DF8035014E03C494AF6AA20086004F174
:1014C000080002F0D2FE0390201D02F0CEFE039928
:1014D00000F0E0FBF0B3EE208DF804008DF803502F
:1014E000204602F0D5FD306810F0030F04BF05B0B0
:1014F000BDE8F08F26480068410D009861F31700A1
:1015000000902A48006800F00F008DF8030038684A
:101510008DF804003868000A8DF805003868000C62
:101520008DF806003868000E8DF80700D8F8000026
:101530008DF80800D8F80000000A8DF80900D8F8E6
:101540000000000C8DF80A00D8F80000000E8DF89D
:101550000B0000E004E0306840F02000306063E6FB
:1015600011498DF804A08DF803504AF6AA200860AE
:10157000204602F08DFD642002F08EFE0A494AF6F4
:10158000AA20086000F09EFBAAE700000C6400405F
:10159000B06500400000002078000020A04100203D
:1015A000980000201C00002000300040B46500407E
:1015B00002480068024948607047000000000020AF
:1015C00078000020024800680249886070470000E7
:1015D00000000020780000200149087070470000DA
:1015E0007800002000B50B4A83B04FF48263127874
:1015F0008DF8040043EA4213009A022063F31702B5
:1016000000928DF803008DF80510684602F040FD49
:1016100003B000BD780000200C490D48DFED0D0A35
:1016200091F83420026091ED140A20EE200AF0EEC9
:10163000000A20EE200AF5EE000A80ED0C0A20EEEA
:10164000000A20EE200A80ED0B0A7047A04100201E
:1016500098000020DB0FC9402DE9F041F44F2DED3B
:10166000088B97ED068AD7ED07AA97ED08AAD7ED64
:10167000099A01F09FF8DFEDEF8A9FEDEF9AEF4DA9
:10168000EF4C02284ED0D7ED020A94ED010AF8EE95
:10169000E00A00EEC90AF7EE000A10EE100AB0F1F7
:1016A0007C5FC8BF30EE600A10EE100AB0F13F4F09
:1016B00088BF30EE200AD5ED080A60EE800A00BF30
:1016C000D5ED052AB1EE622AB4EEE02AF1EE10FA69
:1016D00034BFB0EE600AB0EE420AF4EEC02AF1EE7A
:1016E00010FA38BFF0EE620A06D3B4EEE02AF1EE4B
:1016F00010FA28BFF0EE420A94ED098ADFEDD1BA64
:101700002068B0EE6BBA0128C0F20A8130EEEABA66
:1017100095ED090A00EE0B8A94ED0D0A30EE088A69
:1017200000F020B9DFEDC80A206838B1C74E0128A3
:1017300031D002287ED003287DD0E2E095ED121A48
:1017400021EE280AB5EEC00AF1EE10FAD8BF21EE5C
:10175000200AD4ED030AD4ED091A30EEE11AF1EEB5
:10176000400AB4EEE01AF1EE10FACCBFB0EE412A16
:10177000B0EE602AB4EEC02AF1EE10FA08DCB4EE46
:10178000E01AF1EE10FACCBFB0EE410AB0EE600AFA
:1017900031EE800AB3E095ED131A21EE280AB5EE7A
:1017A000C00AF1EE10FAD8BF21EE200A94ED021A19
:1017B00094ED082AF1EE400A71EE421AF4EEE01AB6
:1017C000F1EE10FACCBFF0EE612AF0EE602AF4EEF2
:1017D000C02AF1EE10FA08DCF4EEE01AF1EE10FA8D
:1017E000CCBFB0EE610AB0EE600A72EE000AC4ED42
:1017F000080AC0EE280A95ED0B0A20EE800A84ED57
:10180000090A306810F0020F7BD131EE6A0AB5EE9A
:10181000C00AF1EE10FAD8BF3AEEC10AD5ED100AAF
:10182000B4EEE00AF1EE10FA6BD2306840F002003C
:10183000306066E000E022E094ED010A94ED071AC2
:10184000D4ED021A94ED0B2A70EE410A94ED080AC9
:1018500071EEC01A62EE200A94ED0C2A42EE210AC3
:10186000D5ED0B1A00EEA80A61EEA01AC4ED091A14
:1018700084ED080A00EE281A84ED071A41E094F876
:10188000280080B1002084F82800D5ED172A95EDB6
:10189000162AD5ED151A94ED081AD4ED070A94ED21
:1018A000010A01F03DFCDFF8A88198F83C00B0B1D6
:1018B000306810F0020F24D1D4ED010A30EEC80ACE
:1018C000B5EEC00AF1EE10FAD8BF38EE600AD5EDD9
:1018D000110AB4EEE00AF1EE10FA12D2A5E701F017
:1018E00093FB98ED000A84ED070A98ED010A84ED58
:1018F000080A98ED020AD5ED0B0A20EE200A84EDC5
:10190000090A2068D4ED080A0228FFF6D9AE94ED42
:10191000070A95ED081A30EE480A41EE000ACFE6B4
:1019200032EEEA0AD5ED090A32EE6A1A20EE200AF2
:1019300061EE200AF4EEC80AF1EE10FA2CBFB0EE08
:10194000601AB0EE481AB4EEC01AF1EE10FAC8BF31
:10195000B0EE408A06DCB4EEE08AF1EE10FAD8BFB1
:10196000B0EE608AA86B30B33A48007818B3B86814
:1019700041F28831484300EE100AB8EE400A20EEEA
:10198000090A01F0B7FEBDEEC00A41F2883110EE3F
:10199000100A00B2884228BF00202F499FED2F1A5D
:1019A000096831F9100000EE100AF8EEC00A80EE66
:1019B000810A30EE088A95ED040A0026B4EEC80AC2
:1019C000F1EE10FA3CBF0126B0EE408AB1EE400ABB
:1019D000B4EEC80AF1EE10FAC4BF0126B0EE408A98
:1019E000F0EE691AB0EE4A1AF0EE480AB0EE6B0A51
:1019F00000F014FC20680128BEBFC4ED0DBABDEC98
:101A0000088BBDE8F081002E94ED0D0A19BFDFEDC3
:101A1000140A20EE200AD5ED0A0A60EEA80A08BFD3
:101A200000EE8B0A84ED0D0ABDEC088BBDE8F08159
:101A3000D000002017B7513800008038A0410020A6
:101A4000980000200000000017B751B81C000020CB
:101A500010010020540000209000002000409C4510
:101A6000A4707D3F10B52DED028B72B61A4C94ED2B
:101A7000068A00F09FFE042807D194ED020ADFEDEC
:101A8000170AB8EEC00A20EE208A15489FED150A05
:101A9000002180ED018A80ED020A80ED030A80EDCD
:101AA000048A80ED050A80ED060A80ED078A80ED44
:101AB000080A80ED090A80ED0D0A80F828100A490D
:101AC000012081F83C00094880ED120A80ED130ADC
:101AD00062B6BDEC028B10BDD00000200000803843
:101AE000980000200000000010010020504100205C
:101AF00070B5002500F05EFE194C012804D000F0FE
:101B000059FE022804D026E00020C4E9040024E0A5
:101B100094ED070AB5EEC00AF1EE10FAD8BFB1EEA7
:101B2000400A10EE100AB0F17C5F14DA0D4890F80C
:101B30003C0080B172B60D489FED0B0A80ED010AA2
:101B400080ED040A80ED070A0020C4E9040084ED5A
:101B5000060A62B601E04FF0FF35284670BD00006E
:101B6000D00000201001002000000000980000209C
:101B700070B52DED028B72B61C4C206072B61C4DF8
:101B800095ED068A00F016FE042807D195ED020AAD
:101B9000DFED180AB8EEC00A20EE208A9FED160A83
:101BA000002084ED018A84ED020A84ED030A84EDAD
:101BB000048A84ED050A84ED060A84ED078A84ED23
:101BC000080A84ED090A84ED0D0A0C4984F82800FE
:101BD000012081F83C000A4880ED120A80ED130ACA
:101BE00062B60020BDEC028B70BD000098000020A2
:101BF000D00000200000803800000000100100200C
:101C00005041002010B500F0D5FD022818BF10BDCE
:101C100012480168002904BF90ED060A80ED030A0E
:101C200016D0012904BF90ED050A80ED020A0FD0FD
:101C3000022904BF90ED040A80ED010A08D00329AF
:101C400006D190ED040A012180ED010A80F82810E8
:101C50000348016821F00201016010BD98000020D6
:101C60001C000020DFED090A094820EE200AF0EEF2
:101C7000000A20EE200AF5EE000A80ED0C0A20EEA4
:101C8000000A20EE200A80ED0B0A7047DB0FC940E6
:101C90009800002010B50C460849096888421CBF0E
:101CA0004FF0FF3010BD0146054802F099FAA042FE
:101CB00014BF6FF00100002010BD00008C00002058
:101CC00000C800084FF0E0214FF0FF30C1F880015C
:101CD000C1F88002C1F88401C1F88402C1F888010A
:101CE000C1F88802C1F88C01C1F88C02C1F89001DA
:101CF000C1F89002C1F89401C1F89402C1F89801AA
:101D0000C1F89802C1F89C01C1F89C0204494FF443
:101D1000005048610348016881F308884068004723
:101D200000100140009001082DE9F047DFF898907D
:101D30000F46D9F80060F119B1F5484F84BF4FF054
:101D4000FF30BDE8F087044602F0ECFB5FEA97083D
:101D50004FF0000517D000BF06EB850000F1006AC8
:101D60000AF5484A3C2002F08DFB54F825105046F5
:101D700002F0EAFB20B102F08BFB4FF0FF301BE0DA
:101D80006D1C4545E8D302F083FB0020B8F1000F3D
:101D900011D900BF06EB800101F1006101F5484156
:101DA00054F8202009688A4202D06FF0010003E055
:101DB000401C4045EED30020D9F800103944C9F842
:101DC0000010BDE8F08700008C00002070B502F024
:101DD000A9FB104D104E2C463C2002F053FB204630
:101DE00002F05EFB10B102F053FB09E004F58064E1
:101DF000B442F1D302F04CFB2868B0F1FF3F02D0AF
:101E00004FF0FF3070BD2D1DB542F5D303490020C2
:101E1000086070BD00C80008009001088C00002018
:101E200000F0D2B91420174908700021154A116139
:101E30005161DFED150A1046C0ED0A0ADFED120A06
:101E4000C0ED0B0A4FF41D7000EE100AF8EEC00A48
:101E5000B0EE001A60EE810A1046C0ED0C0AD0ED1B
:101E60000C0A60EEA00AB5EE001A60EE810AC0ED21
:101E70000D0AD0ED0D0A9FED051A60EE810AC0ED46
:101E80000F0A7047D00000200000000017B7D137BC
:101E90002DE9F0412DED028B00F04EF99E4948608E
:101EA0009E48D0F88800401C30B90846406843F688
:101EB000FF71081A9849486097484068C1119748CF
:101EC000903050F8216094494968012202EBE110FA
:101ED000C11700EB5161C911A0EBC1128F499031BC
:101EE00051F822708C4840688B494968C911A0EBB1
:101EF000C110B91B484306EBE01887484068A0EBC7
:101F000008008649D1F88C10451A01E0A5F58045F6
:101F1000B5F5804FFADC01E005F58045002DFBDBCF
:101F20007D488560007858B17B480078401E7A492A
:101F3000087008468068C860BDEC028BBDE8F0817F
:101F4000754880687449C968441A73488068724942
:101F5000C86001E0A4F58044B4F5005FFADC01E05C
:101F600004F5804414F5005FFADB6B4890ED0A0A33
:101F7000D0ED0B0A9FED6A1A01EE200A80ED0A0AE5
:101F8000D0ED0A0AB0EE600A01F042FB6248D0EDE3
:101F9000020AF8EEE00A30EEC08A05E09FED610A21
:101FA00038EE400AB0EE408A9FED5F0AB4EEC08A78
:101FB000F1EE10FAF2DC05E09FED5A0A38EE000A65
:101FC000B0EE408A9FED590AB4EEC08AF1EE10FAE5
:101FD000F2D3514890ED0A0AD0ED0C0A9FED501A49
:101FE00060EE810A00EE880A80ED0A0A08E04A489D
:101FF00090ED0A0ADFED4B0A30EE600A80ED0A0A26
:10200000454890ED0A0ADFED470AB4EEE00AF1EE2A
:1020100010FAECDC08E0404890ED0A0ADFED410AD6
:1020200030EE200A80ED0A0A3B4890ED0A0AB5EE30
:10203000C00AF1EE10FAEED390ED0B0AD0ED0D0AC6
:102040009FED371A60EE810A00EE880A80ED0B0AD8
:1020500090ED0B0AB5EEC00AF1EE10FA02DD90ED3C
:102060000B0A04E02C4890ED0B0AB1EE400A2A4816
:10207000D0ED0F0AB4EEE00AF1EE10FA03D29FEDB4
:102080002C0A80ED0B0A2448D0E90420121940EBF9
:10209000E4702149C1E904200846D0E90421104632
:1020A000FEF7C9F800EE100ADFED1E0A80EE201AD6
:1020B000194880ED061A90ED0B0ADFED1A0A80EE42
:1020C000201A80ED071A154890ED010AB8EEC00AF3
:1020D000DFED180A60EE200A0F4890ED020AB8EE14
:1020E000C00A20EE800ADFED0F0A80EE201A80ED94
:1020F000081A0A4890ED010AB8EEC00ADFED0D0A91
:1021000020EE200A0448D0ED070A20EE200A80EDD8
:10211000090A00BF10E70000D0000020A041002005
:1021200017B751380000804600000046000000C686
:1021300000000000DB0FC94038B54020204908608E
:102140004FF403411F4803F015F800BF01211D485B
:1021500003F03DF80028F9D01A4803F008F8ADF86C
:10216000000040201649091F086000BF00BF00BFE3
:1021700000BF00BF00BF00BF00BF00BF402010492C
:1021800008604FF404410F4802F0F4FF00BF012142
:102190000C4803F01CF80028F9D00A4802F0E7FFC9
:1021A000ADF8020040200649091F0860BDF8000094
:1021B000C1B2BDF8024061F31F24A01038BD000079
:1021C000140C0140003C004072B60021014803F0AD
:1021D000F8FBFEE7002C014010B50E4C20780028DB
:1021E00018BF10BD72B69FED0C0A84ED060A84ED8F
:1021F000070A84ED0A0A84ED0B0A84ED0C0A84EDCB
:10220000120A84ED130A00F0CBFD0120207062B6A3
:1022100010BD0000504100200000000010B5724CBD
:102220002DED068B86B0F0EE419AB0EE608AF0EEAE
:10223000408AB0EE61AA94ED051AD4ED040A94ED3B
:10224000030A01A9684601F07BFF05A904A8B0EEC6
:10225000691ADDED010A9DED000A02F017FE9DED01
:10226000040A94ED121AD4ED130A38EEC09A9DEDCB
:10227000050AD4ED021AB7EE082A78EE40AA94EDCA
:10228000100A09EE001A4AEE800A82EE210A61EE77
:10229000008A20EE808A68EEA80A48EE080AB1EEAD
:1022A000E00AB4EE400AF1EE10FA1CBFB0EE600A8C
:1022B00001F0AEFA9FED4D1AC1EE000A10EE900A41
:1022C0009FED4B0AB0F17E5F12DA68EEA08A28EE2D
:1022D000208A94ED121ADFED470A21EE201A84EDD0
:1022E000121A94ED131A61EE200AC4ED130A0FE0DE
:1022F000D4ED110A94ED121A60EE800A09EE201A4C
:1023000084ED121A94ED131A0AEEA01A84ED131A32
:10231000B0EE691A03A90AEE001A02A8F0EE480A04
:10232000B0EE680A02F0FDF904F13C02111F081F2B
:10233000DDED030A9DED020A02F06EFF10BBD4ED45
:102340000D0A9FED2D0A2D4960EE800AFCEEE00A91
:1023500010EE900A80B20860D4ED0E0A091F60EEFC
:10236000800AFCEEE00A10EE900A80B20860D4ED1C
:102370000F0A091F20EE800ABCEEC00A10EE100AF8
:1023800080B208609DED050A9FED1D1A84ED060AD6
:10239000D4ED070A70EEC01A41EEC10AC4ED070A77
:1023A000DDED040AC4ED080AD4ED091A31EEE02A85
:1023B00068EEA00A42EE411A48EE000AC4ED091A7E
:1023C000C4ED0A0A94ED0B0A70EE600A00EEC10A31
:1023D00084ED0B0AD4ED020A20EE800A84ED0C0A8B
:1023E00006B0BDEC068B10BD504100204188473F30
:1023F00017B75138A4707D3F00803B453C2C01400D
:102400000AD7233C10B50C4C2078002808BF10BD1B
:1024100072B69FED0A0A84ED060A84ED070A84ED80
:102420000A0A84ED0B0A84ED0C0A00F087FC0020F8
:10243000207062B610BD0000504100200000000076
:1024400014489FED130A002180ED010A80ED020A75
:1024500080ED060A80ED070A80ED0A0A80ED0B0A7E
:1024600080ED0C0A01700C49DFED0C0A91ED0C0AAD
:1024700060EE200A91ED030A60EE200AC0ED100A1A
:10248000D1ED020A80EE801A80ED111A704700002B
:102490000000000050410020A0410020DB0FC94097
:1024A000DFED090A09480A4960EE200A90ED030AA7
:1024B00060EE200AC1ED100AD0ED020A80EE801A0B
:1024C00081ED111A70470000DB0FC940A0410020C8
:1024D0005041002010B5364CB7EE082A2DED048B84
:1024E000B0EE419A82B0D4ED021A82EE211A60EE6B
:1024F000018A20EE818A28EEA80A08EE080AF1EE89
:10250000C00AF4EE600AF1EE10FA03D001F080F98F
:10251000F0EE400A9FED271A81EE200A10EE100A15
:10252000B0F17E5FBCBF68EE808A28EE008AB0EE14
:10253000491A01A96846F0EE480AB0EE680A02F0AE
:10254000F0F804F13C02111F081FDDED010A9DEDBA
:10255000000A02F061FE00281EBF02B0BDEC048B31
:1025600010BDD4ED0D0A9FED140A144960EE800AE7
:10257000FCEEE00A10EE900A80B20860D4ED0E0A7C
:10258000091F60EE800AFCEEE00A10EE900A80B2AD
:102590000860D4ED0F0A091F20EE800ABCEEC00AC5
:1025A00010EE100A80B2086002B0BDEC048B10BDC2
:1025B000504100204188473F00803B453C2C014072
:1025C000002808BF704730B4A0F108011E4B50F836
:1025D000042CD868024204BF30BC7047D1F800C058
:1025E000BCF1000F1CBF30BC704722EA00004860FD
:1025F0005A6810445860154802688A4238BF10462D
:10260000FAD3D0F804C00CEB00048C4203D1496823
:10261000614441600146D1F804C00CEB01049442CE
:1026200018BF0A600AD11B689A4208BF0B6005D028
:10263000526862444A60026812680A60884218BFA1
:10264000016030BC70470000600000207000002076
:102650002DE9F00F534C844600202168054604F113
:102660001003E9B950494FF4804211F0070F06D02A
:10267000C91D4D4A21F007018A1AC2F580420A4459
:10268000083AC3E9001522F0070222605560561A85
:102690001560C1E90026A6604FF000416660E16068
:1026A000E7681CEA070F1CBFBDE8F00F7047BCF1DC
:1026B000000F04BFBDE8F00F70470CF1080212F0E4
:1026C000070F04D002F00701C1F108010A44002AF3
:1026D00004BFBDE8F00F70476668B24299BFDFF8EB
:1026E000CCC01968BDE8F00F70474B68934205D223
:1026F0000B68002B1CBF8C461946F6D1D4F800801D
:10270000414504BFBDE8F00F7047DCF800000B68DE
:10271000CCF800304B680830A3EB020CBCF1100F72
:1027200030D98B18C3F804C04A60204AD2F800C0E0
:102730009C4538BF6246F9D3D2F8049009EB020AEF
:102740009A4503D15B684B4453601346D3F8049019
:1027500009EB030AE24518BFC3F800C00FD1C44516
:1027600008BFC3F800800AD0DCF804C0CC44C3F82A
:1027700004C0D2F800C0DCF800C0C3F800C09A4220
:1027800018BF13604B68F21A6260D4F808C0624543
:1027900088BF6246A26043EA0702C1E90052BDE871
:1027A000F00F7047600000205001002070000020F2
:1027B000FFF70ABD014800787047000014000020B0
:1027C0002DE9F041864D6878297805F108068842A0
:1027D0004AD0287801272C1F05281DD2DFE800F0F9
:1027E00003080F2A2D00FEF7E3FEFEF7EBFE12E0D2
:1027F000208800281CBF401E20800DD10BE0FFF771
:1028000001FE306820F001003060306820F00200E6
:102810003060E0686061AF70A87800281CBF6878FD
:10282000287021D0287805281ED2DFE800F01D1D71
:1028300009161900FEF7AAF8EDE7FDF7DDFFEAE754
:10284000FFF710F9306840F001003060306840F068
:1028500002003060E068606106E0FEF7ADFB03E077
:10286000FFF700F9FEF786F8FFF712FB5D480088D6
:1028700000EE100AB8EE400ADFED5B0A5B4C60EE3A
:10288000200AC4ED010A94ED020A70EE600A9FED81
:10289000581A584800EEC10A84ED020A00685649E9
:1028A00080B2B1F90010401A00EE100AB8EEC00A6A
:1028B000DFED520A524820EE200A84ED030A006838
:1028C000504980B2B1F90010401A01EE100AB8EE7A
:1028D000C11A61EE200AC4ED040A30EE200AB1EEFE
:1028E000400A84ED050A2878002808BFBDE8F08179
:1028F000454D022807D0032826D0042818BFBDE87C
:10290000F081FDF787FFFEF7A7FE94ED030AB5EE11
:10291000C00AF1EE10FAD8BFB1EE400AD5ED1A0A9E
:10292000B4EEE00AF1EE10FA3EDC94ED040AB5EEE6
:10293000C00AF1EE10FAD8BFB1EE400AB4EEE00AD8
:10294000F1EE10FA30DC3AE0FEF73CF894ED030AC1
:10295000B5EEC00AF1EE10FAD8BFB1EE400AD5EDDF
:102960001A0AB4EEE00AF1EE10FA1DDC94ED040A46
:10297000B5EEC00AF1EE10FAD8BFB1EE400AB4EEDF
:10298000E00AF1EE10FA0FDC94ED050AB5EEC00A8C
:10299000F1EE10FAD8BFB1EE400AB4EEE00AF1EE63
:1029A00010FAD8BFBDE8F081FFF72CFD012000F040
:1029B00019F9706840F004007060BDE8F08194ED92
:1029C000050AB5EEC00AF1EE10FAD8BFB1EE400A22
:1029D000B4EEE00AF1EE10FAE6DCBDE8F0810000AA
:1029E00014000020080000206740533C50410020A4
:1029F000CDCC4C3D3C24014004000020010BB03BF9
:102A00003C28014006000020A0410020074900208A
:102A1000087048708870083108700871A1F10C00C6
:102A2000C1684161016981617047000014000020A4
:102A300070B5394E3078A6F10805297888421CBF58
:102A40002878307030792979344C88420CD0287934
:102A500020B1FFF7D7FC012000F0C4F828793071CD
:102A6000E0682169FEF7BEFD2D48A1680268511A91
:102A700049080A2948D30068A0602A4802782A49F0
:102A80004FF400504FF6FF73012A06D0022A0BD0F4
:102A9000032A14D0042A21D033E06288C2B30A2A60
:102AA00038D0642A2DD92BE062888AB30A2A31D023
:102AB000142A2DD01E2A2DD0642A22D920E0628823
:102AC00032B30A2A26D0142A22D01E2A22D0282A3B
:102AD0001ED0322A1ED0962A13D911E06288BAB1CC
:102AE0000A2A17D0142A13D01E2A13D0282A0FD04E
:102AF000322A0FD03C2A0BD0462A0BD0C82A00D944
:102B000063806088401C6080BDE87040FEF7D6BAE4
:102B10000861F6E74861F4E7240000201000002077
:102B20000000002014000020001001400548017939
:102B300001F0800101710830017901F0800101711B
:102B4000002070471C0000201F4810B40078A8B374
:102B50001E481F4990ED010AD1ED190A1D48B4EE37
:102B6000E00AF1EE10FA03DD426842F00102426031
:102B7000D1ED180AB4EEE00AF1EE10FA03D2426881
:102B800042F002024260144ACC6E53884FEA131C92
:102B9000124B33F91CC0A44505DDD0F804C04CF03D
:102BA000080CC0F804C09288096F120933F912208A
:102BB0008A4203DD416841F01001416008494AF64C
:102BC000AA20086010BC704714000020504100206B
:102BD000A04100201C00002008000020EC59000843
:102BE000003000402DE9F041274D002429780127CD
:102BF000A04621B1012905D0012843D011E00128C8
:102C00000FD13FE0214E012813D02149C82706F1FA
:102C10000C02D1F88410022811D003281ED00428F9
:102C200025D04FF0FF3400BF85F802802046BDE874
:102C3000F081FFF7E7FBA6F800806F70F4E71079EA
:102C400018B100BF6FF00104EEE721B1FFF7C4FA3D
:102C50003780022009E06FF00204E5E710790028D0
:102C6000F0D1FFF7B9FA378003206870DCE71079FC
:102C70000028E7D10029EED0FFF7AEFA3780042014
:102C80006870D1E76F70CFE71400002010000020BB
:102C9000A0410020FFF798BAFFF796BA2DE9F04758
:102CA0000024224F264625460121384602F019FE0F
:102CB0000121384602F018FE0028F9D001213846DB
:102CC00002F00FFEDFF86880DFF8689001213846D7
:102CD00002F00AFE01280CD10121384602F001FE63
:102CE000D8F8000016FA80F6D9F8000015FA80F539
:102CF000641C402CEADB96FBF4F095FBF4F201B285
:102D00000D4812B2018042800020A1F5E761B1F5C3
:102D1000C87F88BF4FF0FF30A2F5E761B1F5C87FEB
:102D200088BF4FF0FF30BDE8F0870000002C014065
:102D30003C2401403C2801400400002010B5174C01
:102D400000221146204602F0CDFC0022012120463F
:102D500002F0C8FC00220221204602F0C3FC00223F
:102D60001146204602F04AFB00220121204602F0D3
:102D700045FB00220221204602F040FB01212046B3
:102D800002F0AFFD0121204602F0AEFD0028F9D08F
:102D90002046BDE81040012102F0A3BD002C0140F7
:102DA0001B4910B500200860091F0860091F086052
:102DB000184C0121204602F094FD0121204602F02A
:102DC00093FD0028F9D00121204602F08AFD01225E
:102DD0000021204602F086FC01221146204602F026
:102DE00081FC01220221204602F07CFC0422002109
:102DF000204602F003FB04220121204602F0FEFAE5
:102E000020460422BDE81040022102F0F7BA00007B
:102E10003C2C0140002C014010B52F4C04212046D1
:102E200000F0F7FD0421204600F021FE204600F0CE
:102E30007AFD012001F030FA204600F01BFD01214F
:102E4000204600F084FE0421204600F010FE0421FC
:102E5000204600F0F5FD214C204600F064FD0120E5
:102E600001F01AFA204600F005FD201501F00CFAD9
:102E70001B4C204602F030FD0121204602F0AAFD45
:102E8000184840F2DC510160001F0160001F016022
:102E900000221146204602F025FC00220121204696
:102EA00002F020FC00220221204602F01BFC00223E
:102EB0001146204602F0A2FA00220121204602F02B
:102EC0009DFA00220221204602F098FA2046BDE831
:102ED0001040012102F075BD00240140002801408E
:102EE000002C01403C2C0140FFF76EB9FFF76CB994
:102EF0003948016841F4700101603848016841F0C7
:102F00000101016000214160C162016821F41021CA
:102F100021F0A85101604FF47F018160016821F424
:102F2000802101600268002142F4803202604FF685
:102F3000FF730268491C12F4003F01D19942F8D195
:102F4000016811F4003F45D025490A6822F00702C4
:102F500042F003020A604168416041684160416893
:102F600041F480614160416821F4701121F0005109
:102F70004160416841F4541141F000514160C16A1F
:102F8000184A1140C162C16A41F0190141F484310B
:102F9000C162016841F080610160016811F0006F59
:102FA000FBD0016841F080710160016811F0007F81
:102FB000FBD0416821F003014160416841F002010A
:102FC0004160416811F0080FFBD000214FF0006014
:102FD00001F052BFFEE7000088ED00E00010024063
:102FE0000020024000F0FEBF10B54FF080416FF0AE
:102FF00001000861FFF7A8FD02480168491C016053
:1030000010BD000000000020414890F83C1000294D
:1030100018BF7047816B491C00EE101ADFED3D0AA6
:103020008163B8EE400A3A49DFED3B1A20EE200AF0
:10303000D1ED030A91ED041AB5EEC00AF1EE10FAD3
:103040003CBFC0ED000A80ED011A30D390ED0A2A92
:10305000F6EE002AB4EEC02AF1EE10FA12DDD0ED41
:10306000061A41EE000A21EEA22A60EE002A01EEC5
:10307000801A42EE220AC0ED000A80ED011AC0ED6E
:10308000021A7047D0ED0B0A72EE200AF4EEC00A65
:10309000F1EE10FA0EDD30EE420A90ED091AD0ED95
:1030A000070A00EE801A80ED001AC0ED010AC0ED9B
:1030B000021A704790ED0D1A1549B4EEC01AD1ED01
:1030C000050AF1EE10FA12DD30EE410A90ED081A11
:1030D00061EE221A20EE002A21EE000A41EE820A59
:1030E000C0ED000A80ED010A80ED021A7047B4EECF
:1030F000C01AF1EE10FA88BF7047C0ED000AC0EDAB
:10310000011AC0ED021A012180F83C10704700003E
:103110001001002017B75138000000000000000027
:1031200010B52DED0A8BB0EE62BAF0EE418AB0EE2A
:1031300000CAB0EE609A68EEA8BA6BEE0C0AF0EE28
:1031400040AA84B0B0EE42AA8BEEA00AF0EE61CAAB
:103150007AEEC99A10EE100AFDF7A2F8CDE9020145
:1031600018EE900AFDF79CF8CDE90001039901984B
:1031700061F31E0003909DED020B51EC100BFDF767
:10318000A2F800EE100A39EEC00A10EE100A00286C
:10319000B4BFBFEE008AB7EE008A28EE0A0A644C7C
:1031A00028EE281A68EE4B0A84ED060A28EE2C0A4F
:1031B000C4ED080A84ED070A60EE081AB4EEE11ABD
:1031C000F1EE10FAC4BF28EE4A1A84ED061A30EE6A
:1031D000682AD4ED061AF1EE402AB6EE00AA82EE75
:1031E000211A82EEA02A70EE282A84ED0A1A21EE16
:1031F0000A1A21EE221A84ED0C2A22EE0A2A02EE85
:10320000001A28EE292A68EE012AB4EEE22AF1EE2D
:1032100010FA61D221EE8C0A20EEAB1A20EE200AC1
:1032200070EEE10A00EE291A81EE200A10EE100A73
:10323000FDF736F841EC100B9FED3FBBB0EE4B1A9B
:10324000F0EE6B1A00F01CFA51EC100BFDF73BF896
:1032500000EE900AB1EEE00AB4EE400AF1EE10FA88
:103260001CBFB0EE600A00F0D3FA20EE088A84EDAD
:10327000078A78EE680A94ED061A80EE810A10EE4D
:10328000100AFDF70DF841EC110BB0EE4B0AF0EE11
:103290006B0A00F0F5F951EC100BFDF714F8A06281
:1032A00094ED081AF1EE480A80EE810A10EE100A39
:1032B000FCF7F6FF41EC110BB0EE4B0AF0EE6B0A97
:1032C00000F0DEF951EC100BFCF7FDFF9FED1C0A3E
:1032D000206384ED0B0A05E079EEC10A80EE801AC6
:1032E00084ED0B1A94ED0A0AD4ED0B0A94ED0C1A36
:1032F000002070EE200A70EE810AC4ED0D0A84ED04
:10330000039AC4ED048AC4ED05AA60EE000A08EE33
:10331000809A94ED060A20EE0A0A00EE209A84EDC7
:10332000099AA06384F83C0004B0BDEC0A8B10BD80
:10333000100100200000000000000000000000005C
:103340000000000070B50F4C0025206820B942F243
:103350001470FFF77DF9206042F214720A49FCF7FD
:1033600046FF42F21071206800F03AFF216801F533
:103370000051D1F81017814218BF4FF0FF35284691
:1033800070BD00009000002000CC010810B50024A2
:103390004FF4257208490948FCF729FF4FF42471BE
:1033A000064800F01DFF0549D1F89012814218BF70
:1033B0004FF0FF34204610BD00B80108A0410020A6
:1033C0002DE9F04101F0AEF8224E234F34463C2067
:1033D00001F058F8204601F063F810B101F058F8F8
:1033E0000AE004F58064BC42F1D301F051F835469F
:1033F0002868B0F1FF3F03D04FF0FF30BDE8F08107
:103400002D1DBD42F4D301F08DF8144C42F2107121
:10341000206800F0E5FE256842F210710024485152
:1034200040F6C5173C2001F02DF855F8241006EBA6
:10343000840001F089F828B101F02AF86FF001004A
:10344000BDE8F081641CBC42ECD301F021F80020FF
:10345000BDE8F08100CC010800F4010890000020D4
:103460002DE9F04101F05EF8214F224E3D463C200F
:1034700001F008F8284601F013F810B101F008F83F
:103480000AE005F58065B542F1D301F001F83C464C
:103490002068B0F1FF3F03D04FF0FF30BDE8F0816E
:1034A000241DB442F4D301F03DF84FF424711248C6
:1034B00000F096FE104900250C46C1F890023C2011
:1034C00000F0E0FF54F8251007EB850001F03CF810
:1034D00028B100F0DDFF6FF00100BDE8F0816D1C48
:1034E000A52DECD300F0D4FF0020BDE8F081000052
:1034F00000B8010800CC0108A041002010B5074C1D
:10350000206820B942F21470FFF7A2F82060BDE8ED
:10351000104042F21071FCF783BE000090000020C2
:10352000304800210422C0E900129FED2F0ADFED90
:10353000300A80ED020A9FED2D0A032280ED030A76
:10354000B1EE040A80ED040AC0ED050AF0EE080AA7
:10355000C0ED060AC0ED070ADFED260AC0ED080A35
:10356000DFED250AC0ED090A80ED0A0A9FED230A66
:10357000F6EE000A80ED0B0A9FED210A80ED0C0AA1
:1035800042630122C0E90E219FED1E0AC0ED100A20
:1035900080ED110AC0ED120A9FED1B0AF2EE040A3B
:1035A00080ED130AC0ED140A80ED150A80ED160AAD
:1035B00080ED170AB2EE080A80ED180AB3EE0E0A83
:1035C00080ED190AB2EE000A80ED1A0A5023C36694
:1035D000C0E91C32C0E91E21C0F88010C0F8841078
:1035E00070470000A0410020295C8F3ECDAFE63837
:1035F000000070420000A0429A99993E6F12833AEF
:1036000000007A440AD7233C00004842FEF7DCBDA4
:1036100010EE100AC0F3C7517F391729A8BF7047B1
:10362000DFED140A002970EE200A0DDAF5EEC00A6B
:10363000F1EE10FA1ADD0028A8BF002016DAB0F16A
:10364000004F18BF0C4811E00C4ACA40104208BF96
:103650007047F5EEC00AF1EE10FA07DD002804DA33
:103660004FF4000323FA01F10844904300EE100ADE
:1036700070470000CAF24971000080BFFFFF7F0061
:1036800000B52DED048BB0EE418AF0EE618AB0EE0C
:10369000409AF0EE609A83B053EC182B51EC190B62
:1036A000FCF7DEFF00F07040B0F1005F1AD018EEBA
:1036B000101A18EE900A8DED008B002918BF012119
:1036C000084320F00040C0F17F6000F1E040C00FEF
:1036D00001BFB0EE480AF0EE680A03B0BDEC048BFF
:1036E00008BF00BDB0EE490A03B0F0EE690ABDECB8
:1036F000048B00BD10B500212DED028BB0EE408A89
:103700004FF48050FCF7DCFF044618EE100AFCF77B
:103710006EFE08EE100A41F2100004EA0001FCF708
:10372000CFFFB0EE480ABDEC028B10BD00000000D8
:1037300010B52DED020B2DED088B84B09DED0C0B1B
:1037400051EC100BFCF718FF41EC180B9DED0C0B26
:1037500053EC182B51EC100BFCF708FF41EC190B44
:103760000D989FED290B10F0004F53EC102B51ECEE
:10377000190B9FED21AB9FED22BB0ED0FCF740FF54
:103780000ED953EC1B2B51EC190BFCF751FF1CD23B
:1037900014E000BF41EC180B17E0FCF731FF06D234
:1037A00053EC1A2B51EC180BFCF7E0FEF2E753EC4C
:1037B0001B2B51EC190BFCF73BFF06D853EC1A2BD3
:1037C00051EC180BFCF731FEE4E78DED028B9DED1B
:1037D0000C0B18EE901A10EE900A8DED000B61F3B1
:1037E0001E0003909DED020B04B0BDEC088B02B0EF
:1037F00010BD000000000000000000000000F03FCD
:10380000000000000000E03F000000000000E0BFFA
:1038100010B52DED028BB1EEC08A18EE100A20F023
:103820000040C0F1FF40C00F0AD010EE100A20F097
:103830000040C0F1FF40C00F04BF012000F014F8A9
:10384000B0EE480ABDEC028B10BD02E008C8121FA2
:1038500008C1002AFAD170477047002001E001C179
:10386000121F002AFBD17047014908607047000011
:1038700094000020816841F008018160816811F0A6
:10388000080FFBD1816841F004018160816811F06B
:10389000040FFBD170471205A2F5801201290CD04C
:1038A000022918BF7047816B21F44011816302F433
:1038B0004011826B114381637047C16A21F470012A
:1038C000C16202F47001C26A1143C16270470029EB
:1038D000816814BF41F4006121F400618160704788
:1038E00010B5A0F59230B0F180400DD0B0F5806FEA
:1038F00018BF10BD40F20A3001F0E5FBBDE81040F2
:1039000040F20A3001F0D0BB40F2093001F0DBFB9D
:10391000BDE8104040F2093001F0C6BB816841F4B7
:10392000807181607047816811F0010F18BF704786
:10393000816841F0010181607047002A01F00102B5
:103940000DD01AB1826842F48012826011F0020F29
:103950001ABF816841F400417047816070471AB115
:10396000826822F48012826011F0020F1CBF81680D
:1039700021F40041F1D1704701290AD0022918BF72
:103980007047816821F4E041816081681143816062
:103990007047816821F460218160816811438160F2
:1039A000704710B4D0F838C0846BCCF3015CA1EB45
:1039B0000C01C91C01EB81014FF01F0C0CFA01FC3A
:1039C00024EA0C0C02FA01F141EA0C01816307219F
:1039D0000A2A0CD2D0F810C002EB420291402CEA25
:1039E000010103FA02F21143016110BC7047122A6F
:1039F00024BF10BC7047D0F80CC00A3A02EB420258
:103A000091402CEA010103FA02F21143C16010BC9B
:103A1000704711F0010F03D0426822F0400242606B
:103A200011F0020F03D0426822F02002426011F030
:103A3000040F08BF7047416821F080014160704762
:103A400011F0010F03D0426842F04002426011F0D1
:103A5000020F03D0426842F02002426011F0040FCE
:103A600008BF7047416841F08001416070470268BB
:103A700022EA01010160704704490A6822F47022B9
:103A80000A600A681043086070470000042401407F
:103A900010B44FF01F0C06290CD2446B01EB8101CE
:103AA0000CFA01FC24EA0C0C02FA01F141EA0C01C7
:103AB00041631EE00C290DD2046B891F01EB8101CB
:103AC0000CFA01FC24EA0C0C02FA01F141EA0C01A7
:103AD00001630EE010290CD2C46A0C3901EB81019C
:103AE0000CFA01FC24EA0C0C02FA01F141EA0C0187
:103AF000C16207210A2A0CD2D0F810C002EB4202A0
:103B000091402CEA010103FA02F21143016110BC59
:103B10007047122A24BF10BC7047D0F80CC00A3A74
:103B200002EB420291402CEA010103FA02F2114336
:103B3000C16010BC7047D0F8802022F44052C0F819
:103B40008020D0F880201143C0F88010704711F019
:103B5000010F03D0826842F48002826011F0020FEC
:103B600008BF7047816841F4001181607047002AE6
:103B700001F4807214D01AB1426842F4807242603B
:103B800011F4806F03D0426842F48062426011F009
:103B9000020F1ABF816841F00201704781607047CF
:103BA0001AB1426822F48072426011F4806F03D02F
:103BB000426822F48062426011F0020F1CBF8168EB
:103BC00021F00201EAD170470A490A6842F0010275
:103BD0000A600A6822F47C520A600A684FF47C5337
:103BE00003EA002010430860086820F00100086024
:103BF000704700000066004010B5A0F18041B1F5AB
:103C0000C84109D040F21A4001F05DFABDE8104009
:103C100040F21A4001F048BA40F2194001F053FA5C
:103C2000BDE8104040F2194001F03EBA8069C0F38F
:103C30000210704730B4817A364B012202FA01F14A
:103C40001A6842F001021A60DFF8CCC0DCF80020EC
:103C50008A43CCF80020C489304AE4B914688C4304
:103C60001460C48845882404C5EA04044589ED002D
:103C700005F1804505F5C045C5F8404684880588AE
:103C80002404C5EA04044589ED0005F1804505F5E5
:103C9000C045C5F84446C489012C1CD114680C43A6
:103CA0001460028844881204C4EA02024489E400D1
:103CB00004F1804404F5C044C4F840268288C488D6
:103CC0001204C4EA02024489E40004F1804404F5C9
:103CD000C044C4F844268489114A002C14680CBFDF
:103CE0008C430C43146004890E4A002C14680CBFEA
:103CF0008C430C431460007C012804D1DCF80000E4
:103D00000843CCF80000186820F00100186030BCAF
:103D100070470000006600401C6600400C660040D2
:103D20000466004014660040F0B585B00C460546B8
:103D30001F4616466946012000F018F900234FF08F
:103D4000010C4FF6FF70ADF80C3000EA4511ADF8EC
:103D50000A70ADF80EC08DF810C000EA4410A6B18C
:103D6000012E1DD04FF6FF77C4F34F3207EAC5018D
:103D700007EAC404C5F34F3041F0040144F00404E1
:103D8000022E18D0032E21D0FEE7ADF80010ADF8BA
:103D90000400ADF80830ADF80230ADF806301FE091
:103DA000ADF80010ADF80400ADF808C0ADF8023071
:103DB000ADF8063014E0ADF80000ADF80420ADF821
:103DC0000830ADF80210ADF8064009E0ADF800008B
:103DD000ADF80420ADF808C0ADF80210ADF806400B
:103DE0006846FFF727FF05B0F0BD2DE9F001036835
:103DF0004FF6FF724FF0000C23F0020303600368DC
:103E000043F001030360436813F0010F03D1002A5C
:103E100018BF521EF7D1426812F0010F08BF4FF0D1
:103E2000000C6CD0036A4FF0F85713F0010F4FF4F9
:103E300070264FF4E0554FF4E0044FF4C0425FD0D9
:103E40004B7807EA03630F7843EA87778B7806EAB3
:103E5000034605EA8313334347EA0305CB7804EAB4
:103E6000035402EA83224B8922435B1E2A43C3F395
:103E700009031A43C2610A79012A02680CBF42F0A1
:103E8000800222F0800202604A79012A02680CBF97
:103E900042F0400222F0400202608A79012A026860
:103EA0000CBF42F0200222F020020260CA79012AEF
:103EB00002680CBF22F0100242F0100202600A7A7F
:103EC000012A02680CBF42F0080222F008020260D8
:103ED000497A012901680CBF41F0040121F0040175
:103EE0000160016821F0010101604FF6FF71426835
:103EF00012F0010F28D0002918BF491EF7D127E082
:103F000043F00103036291F8018007EA086791F822
:103F1000008047EA88788F7806EA074605EA871521
:103F2000354348EA0506CD7804EA055402EA8522BD
:103F300022434C893243641EC4F309042243C26104
:103F400023F00102026296E7002918BF4FF0010C2E
:103F50006046BDE8F0017047426922EA0101416113
:103F600070474269114341617047000030B459B154
:103F700001239C0200224FF0020C052866D2DFE8E4
:103F800000F004121D2A4700FEE74A71CA718A71C7
:103F90004C810A724A7081F802C0CA700A714A7272
:103FA0000A7030BC7047CB810A740A810A804A804B
:103FB0008A80CA808A814A8130BC70478C820A74A8
:103FC00081F811C08B748A70CA604B700A708A6065
:103FD0004A6030BC704781F84C2081F84D200023A6
:103FE00081F84B204FEA030001EB030C5B1C8CF8BB
:103FF0000B2001EB030C801C5B1C8CF80B20402871
:10400000F2DB8A724A600A724A720A6030BC7047F8
:1040100081F84D2081F84E20002381F84C2018466D
:1040200001EB030C5B1C8CF80B2001EB030C801CD8
:104030005B1C8CF80B204028F2DB8A724A600A7203
:1040400081F84B204A720A6030BC7047FEE769B1C4
:10405000012914D0022918BF7047816841F400017A
:104060008160816811F4000FFBD17047816841F0D5
:1040700080018160816811F0800FFBD170478168F9
:1040800041F400418160816811F4004FFBD1704719
:1040900028490A6812F0806F18BF00213BD00288BF
:1040A0005205090101F1804101F5C041C1F88025A7
:1040B000D1F8842522F0BF02C1F88425D1F88425E7
:1040C0000368C3F303631A43C1F884250279C379F3
:1040D00090F805C042EA036283791B0443EA0C238B
:1040E0001A43C1F88825027AC37A42EA0362837AC6
:1040F000407A1B0443EA00201043C1F88C05D1F834
:10410000800540F00100C1F880050B4800680B49AC
:104110008860012070470A6812F0006F18BF012103
:10412000BDD1096811F0805F14BF02210020B6D113
:104130007047000008640040000000207800002064
:1041400080ED000A30EEC10ADFED030A20EE200AFE
:1041500081ED000A704700003ACD133F9FED1D1A14
:10416000F5EE000A40EE010ABDEEE00AF5EEC00AE7
:1041700010EE100AF1EE10FA38BF401E00EE100AE1
:10418000B8EEC00A30EEC00ADFED130A20EE200AB6
:10419000BCEEC01A11EE100A80B2B0F5007F24BF49
:1041A000002030EE600A00EE900A0C49F7EE001A8B
:1041B000F8EE600A01EB800090ED011A70EE600AE3
:1041C00090ED000A71EEE01A21EE800A00EE810AFD
:1041D0007047000083F9223E00000044EC5D0008B7
:1041E00002460020002908BF704711F0010FA2F11C
:1041F00001020E4B03D012F8010F53F820004908BA
:1042000008BF704792F801C0491E8CEA106C53F841
:104210002CC08CEA002012F802CF8CEA106C53F804
:104220002CC08CEA0020EDD170470000F06500083A
:10423000027862F30701427862F30F218278C07836
:1042400062F3174160F31F6100EE101A70470278A5
:1042500062F30701427862F30F218278C07862F33B
:10426000174160F31F6108467047027862F3070147
:10427000427862F30F218278C07862F3174160F3CD
:104280001F6108467047000002494A6810434860B1
:1042900070470000002004E081B044F23031484310
:1042A000009001E000BF0846411E0091FAD201B023
:1042B0007047A0F18042B2F5013202D1042900D941
:1042C000FEE701EB810100EB8100816841F0010113
:1042D00081607047A0F18042B2F5013202D1042919
:1042E00000D9FEE701EB810100EB8100816841F01C
:1042F000200181607047A0F18042B2F5013202D105
:10430000042900D9FEE701EB810200EB82029368E9
:1043100023F00103936000239360D3601361536122
:10432000426889000F2303FA01F11143416070478D
:10433000A0F18043B3F5013302D1042900D9FEE78F
:1043400001EB810100EB8100136803619168416119
:10435000118A89B2C1608168D2F80CC0536821F417
:104360007C5143EA0C03D2F814C04CEA0101194312
:104370008160117E012981680CBF41F0400121F06C
:1043800040018160517E012981680CBF41F08001AC
:1043900021F080018160917E002981680CBF21F0AD
:1043A000100141F01001816070470000034630B4F5
:1043B00029482A4ADFF8A8C02A4C0068082B24BFE5
:1043C00030BC7047DFE803F004090E1C22282E3BA6
:1043D000224A92ED070A48B90EE0234A92ED070AF5
:1043E00020B909E0204A92ED060A28B130BCB1EEAE
:1043F000400A084600F03AB830BC084600F036B82B
:1044000092ED020A30BC084600F030B892ED0B0A7B
:1044100030BC084600F02AB892ED0C0A30BC0846C1
:1044200000F024B8BCF80200000934F9100030BCD8
:1044300000EE100A0846B8EEC00A00F017B8BCF843
:104440000400000934F9100030BC00EE100A0846E0
:10445000B8EEC00A00F00AB8A04100205041002088
:1044600008000020EC5B0008D000002010EE101ABD
:1044700001700A0A42700A0C8270090EC170042091
:10448000704700000149C8607047000000200240EA
:104490000248016941F0800101617047002002403B
:1044A00070B505464FF4801000F018F8002818BFCA
:1044B00070BD094C206940F00200206165612069EF
:1044C00040F0400020614FF4801000F007F82169AF
:1044D00021F00201216170BD002002401049024616
:1044E0000020CB6813F0010F18BF012010D1CB685A
:1044F00013F0100F18BF04200AD1CB6813F0040F7B
:1045000018BF022004D1CB6813F0080F18BF032096
:10451000521E012818BF7047002AE1D105207047BC
:10452000002002400548016911F0800F08BF704764
:104530000349416003494160704700000020024088
:1045400023016745AB89EFCD70B506460D464FF4A4
:104550008010FFF7C3FF002818BF70BD074C20690B
:1045600040F00100206135604FF48010FFF7B6FF86
:10457000216921F00101216170BD0000002002408D
:1045800010B4144ADFF848C045F25554634614602D
:10459000D4685B1E04F0010402D0002CF8D100E0C6
:1045A00054B95160D168BCF1010C01F0020102D094
:1045B0000029F7D103E011B110BC00207047C0F30F
:1045C0000B0090604AF6AA20106010BC01207047D2
:1045D000FFFF0F000030004002494CF6CC4008605D
:1045E0007047000000300040416170470161704732
:1045F0002DE9F00301F00F0C11F0100F04D0042A84
:1046000018BF4CEA020C3FD000220F265FF00104D5
:1046100004FA02F51D4012D0D0F80080970006FA87
:1046200007F90CFA07F728EA090847EA08072829D2
:1046300008BF456102D0482908BF05610760521CC8
:1046400092B2082AE4D3082204FA02F51D4014D0DD
:1046500047684FEA8208A8F1200806FA08F90CFA20
:1046600008F827EA090748EA0707282908BF45612B
:1046700002D0482908BF05614760521C92B2102A37
:10468000E2D3BDE8F0037047C26B4CF0030C1A4351
:10469000C263B9E741F480328261816182618169DC
:1046A0008069704770B4194A10F0004F14BFD36985
:1046B0005368C0F303444FF4401C3CEA00054FEA42
:1046C000505C4FEA0C1C86B206FA0CFC16D010F4B3
:1046D000801F08BF23EA0C0303D0032505FA04F466
:1046E000A34343F0E063002918BF4CEA030310F032
:1046F000004F14BFD361536070BC7047546823F0FF
:10470000E06324F0E0645460EDE700000000014045
:104710000870020A4A70020C8A70000EC8700420E9
:104720007047F0EE413A00B5F0EE402A0A460346E3
:10473000B0EE602AB0EE630A00F0D4FCB0EE403A6E
:10474000B0EE630AFFF70AFDB0EE401A22EE810ACE
:1047500002EE430A83ED000A22EE830A02EE010A0A
:1047600082ED000A00BD00008CB072B64FF4C0604C
:1047700000F08CFC40F2026000F088FC40F2036024
:1047800000F084FC40F2046000F080FC40F20B601A
:1047900000F07CFC4FF4E06000F078FC40F209602F
:1047A00000F074FC40F20A6000F070FC012000F0A0
:1047B0008FFB4FF4A06000F069FC40F2197000F02C
:1047C00065FC40F20F7000F061FC4FF40051FE48B0
:1047D000FFF70AFF4FF4005302221021FA48FFF7B7
:1047E00007FFFA4F0123042200213846FFF700FF9C
:1047F0000223042200213846FFF7FAFE0823042290
:1048000000213846FFF7F4FEDFF8C48301230422B9
:1048100000214046FFF7ECFE02230422002140461F
:10482000FFF7E6FEBB15032218213846FFF7E0FE2E
:104830007B15032218213846FFF7DAFE3B150322C9
:1048400018213846FFF7D4FE7B1403221821404676
:10485000FFF7CEFE4FF48043032218214046FFF7B6
:10486000C7FE4FF40043032218214046FFF7C0FE65
:1048700001214FF4EA10FFF715FFBB150322482171
:104880004046FFF7B5FE7B15032218214046FFF78F
:10489000AFFE0121CF48FFF705FF40214046FFF75B
:1048A000A5FE4023032210214046FFF7A1FE282346
:1048B000032218214046FFF79BFE10230322042108
:1048C0004046FFF795FEC44D284600F055FC68466B
:1048D00000F099FC00244FF48270CDE90004E81444
:1048E00002908010CDE903044FF003091026CDE9B2
:1048F00005966946284600F06FFC284600F032FC19
:10490000DFF8D8A200215046FFF7F5FCB44800902C
:10491000B44801258DF8184002908DF819502802EE
:10492000019080000390C000CDE904908DF81A40FA
:104930006A4600215046FFF7FBFC00215046FFF776
:10494000C9FC00215046FFF7B4FCDFF89C924846B2
:10495000FEF7C6FF4FF4A020FFF78EF801221102E8
:104960004846FFF704F9012202214846FFF7FFF805
:104970000022A9024846FFF7FAF800214846FFF74F
:10498000DAF800214846FEF7A2FF4846FEF7C6FFC8
:10499000012202214846FEF77EFF00220123114634
:1049A0004846FEF7FEFF2A0302214846FEF7E4FFD1
:1049B000012202214846FEF7C0FF0322012148469A
:1049C000FEF769FF0123032200214846FFF760F844
:1049D0000123082219464846FFF75AF80123092205
:1049E00002214846FFF754F84FF46022012148465F
:1049F000FEF7C2FF012211464846FEF79EFFDFF890
:104A0000EC914846FEF76CFF002229024846FFF76A
:104A1000AEF8002202214846FFF7A9F80022A902B9
:104A20004846FFF7A4F800214846FFF784F8002124
:104A30004846FEF74CFF012202214846FEF72BFFB5
:104A400001231A4600214846FEF7ABFF4FF4E0422F
:104A500002214846FEF790FF012202214846FEF758
:104A60006CFF634800F06EFE08A800F0B5FFADF8DB
:104A700020404020ADF8220040F6B8300A90ADF852
:104A80002C40ADF824408DF82E4008A9584800F07D
:104A900031FF684600F04EFEADF800500420ADF83E
:104AA0000200ADF80440ADF80840ADF80640ADF89E
:104AB0000A406A4600214E4800F0C0FC6A460121C7
:104AC0004B4800F0BBFC6A460221494800F0B6FCA6
:104AD0006A460321464800F0B1FC002211464448D2
:104AE00000F0C8FD60220021414800F09BFD082233
:104AF00000213F4800F0CEFD002201213C4800F09B
:104B0000B9FD602201213A4800F08CFD0822012104
:104B1000374800F0BFFD00220221354800F0AAFD11
:104B200060220221324800F07DFD08220221304837
:104B300000F0B0FD40F6B33203212D4800F09AFD9D
:104B4000702203212A4800F06DFD0022032128482D
:104B500000F0A0FD03A800F048FCADF80C40ADF853
:104B60001040ADF81440ADF80E40ADF81240ADF86D
:104B70001640ADF8184003A91D4800F025FCA80711
:104B800000F0E0FD684600F027FF4EF65F20ADF82C
:104B900000500290ADF80240ADF80440ADF80C4072
:104BA0006946A80700F0A6FE0121880700F006FF6D
:104BB0000121880700F0FEFEA80700F08DFE290302
:104BC0004046FFF767FD15E0001001400008014076
:104BD000000C014000023000003C00400000024098
:104BE0004C2401400800002000240140002801401E
:104BF000002C014001213846FFF74CFD02213846C8
:104C0000FFF748FD08213846FFF744FD01214046E3
:104C1000FFF740FD02214046FFF73CFD29023846E0
:104C2000FFF738FD69023846FFF734FDA902384620
:104C3000FFF730FD69034046FFF72CFDA90340460E
:104C4000FFF728FDE9034046FFF724FD290240460F
:104C5000FFF720FD69024046FFF71CFD0821404692
:104C6000FFF718FD10214046FFF714FD20214046B4
:104C7000FFF710FD40214046FFF70CFD4FF4407058
:104C800000F0F0F86C4880F800444FF0E020A904F0
:104C9000C0F80011694981F800642907C0F80011C3
:104CA000674A202182F80014C903C0F800114FF4AC
:104CB000106000F037F900BF4FF4106000F040F9C9
:104CC0000128F9D101213220FFF75AFCFEF75EFBE3
:104CD000002818BFFEF724FCFEF734FB002806BFAF
:104CE00058480570FEF70AFC574C94F87400FCF71E
:104CF00073FCA66F554C02212046FFF72DF9204684
:104D0000FEF77AFF206840F400402060206810F42D
:104D1000004FFBD14E48016811F0020FFBD06946ED
:104D20000020FFF723F900208DF807508DF805507B
:104D30008DF806008DF808008DF800008DF804004D
:104D40008DF8095016F0FF0004BF1821052350D03C
:104D5000012806D0022848D0032804BF04210A23D2
:104D600047D008210B46062203208DF80100581E6B
:104D70008DF80200501EADF80A108DF80300694648
:104D80002046FFF732F80E20FEF71EFF0023022216
:104D900019461846FEF7C8FF00231A46194618465A
:104DA000FEF7C2FF02212046FFF7DBF8FDF72EFEDB
:104DB000FDF746FBFEF730F8FDF734F8FCF72CFC66
:104DC000FFF70AFC62B600222248234C944683680F
:104DD00048F26065A34206DD0CF1010000F0FF0C13
:104DE000BCF1140F10D8009506E0052109230A46EE
:104DF000BAE70422B8E700BF0098411E0091FAD23A
:104E0000501CC2B2FA2AE5D3FDF748FF20B113487F
:104E1000416841F0800141600120FDF7E3FE104D43
:104E2000002400BFFDF704FE2868001B4008B0F511
:104E30007A7F88BF2C68F5E712E000E01CE000E014
:104E400014E000E054000020A04100200064004075
:104E500004640040504100200000A0411C000020DC
:104E600000000020034940F0FD7040F080600860C1
:104E7000704700000CED00E021F07F0121F060415F
:104E8000084301490860704708ED00E0F0EE413A40
:104E900000B5F0EE402A0A460346B0EE602AB0EEB6
:104EA000630A00F01FF9B0EE403AB0EE630AFFF774
:104EB00055F9B0EE401A22EE810A02EE030A83EDA4
:104EC000000A22EE010A02EEC30A82ED000A00BDCA
:104ED000134A5168D26A21F4404121F0805122F0F6
:104EE00000520C2817D2DFE800F006060606160965
:104EF00016091010101041EA80310CE020F0040077
:104F000041EA803040F0805105E020F00C0041EA99
:104F1000803142F0005202484160C2627047000096
:104F200000100240810901F1804101F504310A6855
:104F300000F01F00012303FA00F0104308607047DF
:104F4000844600214C4B4D4A0846BCF11C0F76D0DC
:104F50000FDCBCF1000F3AD0BCF1100F08BF4FF6C8
:104F6000FF7C19D0BCF1180F5BD0BCF11A0F68D0D0
:104F70007047BCF5006F04BF414B6FF07C4C19D0FB
:104F8000BCF5106F08BF3F4B3DD0ACF54053103B14
:104F900008BF3D4B29D070471A6812F4003F02D178
:104FA000491C6145F8D1196811F4003F08BF7047EA
:104FB000012070471A6812F0020F02D1491C6145A6
:104FC000F8D1196811F0020F08BF7047F0E71A68AE
:104FD00012F0020F03D1491CB1F5A06FF7D1196887
:104FE00011F0020F08BF7047E2E7D3F800C01CF4CD
:104FF000003F02D1491C9142F7D1196811F4003FDA
:1050000008BF7047D4E7D3F800C01CF0020F02D1EC
:10501000491C9142F7D1196811F0020F08BF70477F
:10502000C6E7D3F800C01CF0007F02D1491C9142B2
:10503000F7D1196811F0007F08BF7047B8E70EE09C
:10504000FFE7D3F800C01CF0006F02D1491C914269
:10505000F7D1196811F0006F08BF7047A8E7D3F8BF
:1050600000C01CF0005F02D1491C9142F7D11968C1
:1050700011F0005F9CD1704700100240FFFF0F004D
:105080002010024024100240C0100240810901F1AA
:10509000804101F504310A6800F01F00012303FA82
:1050A00000F0104308607047810901F1804101F56B
:1050B00004310A6800F01F00012303FA00F022EA1D
:1050C000000008607047810901F1804101F5043159
:1050D0000A6800F01F00012303FA00F01043086083
:1050E00070470000DFED1C0AB5EEC00A60EE200A32
:1050F000BDEEE01A11EE100AF1EE10FA38BF401EB4
:1051000000EE100AB8EEC00A30EEC00ADFED130A56
:1051100020EE200ABCEEC01A11EE100A80B2B0F5E3
:10512000007F24BF002030EE600A00EE900A0C4998
:10513000F7EE001AF8EE600A01EB800090ED011A1C
:1051400070EE600A90ED000A71EEE01A21EE800A1E
:1051500000EE810A7047000083F9223E00000044FF
:10516000EC5D0008016841F0400101607047C068D3
:1051700080B27047C160704710B5A0F56050B0F1C3
:10518000804010D0B0F5806F17D0B0F5784F18BFC1
:1051900010BD4FF44370FFF796FFBDE810404FF489
:1051A0004370FFF781BF40F20E40FFF78CFFBDE870
:1051B000104040F20E40FFF777BF40F20F40FFF77C
:1051C00082FFBDE8104040F20F40FFF76DBF8068DE
:1051D000084018BF0120704702680B6802F4415272
:1051E0001A434B681A438B681A43CB681A430B69FE
:1051F0001A434B6989691A4311430160C16921F45B
:105200000061C16170470021016041608160C1603F
:1052100041618161704700009FED673AF0EE402ADE
:1052200040EEC32A60EE834A9FED641AB0EE402A36
:10523000F0EE401A20EE814AB1EE401A00EE832AC9
:1052400000EEC31A50EE831AF5EEC00AB7EE003A2C
:10525000F6EE003AF1EE10FA30DB9FED595AB5EE5A
:10526000C00A60EE850AF1EE10FA13DBB4EEE40A30
:10527000F1EE10FA55D333EE620A30EE600A20EEFA
:10528000230A80ED000A30EE220A81ED000A30EE9A
:10529000200A54E0B4EEC40AF1EE10FA41D233EE23
:1052A000600A30EE410A20EE230A81ED000A30EE5A
:1052B000200A82ED000A30EE010A2FE09FED415AEC
:1052C000B5EEC00A60EE850AF1EE10FA13DBB4EE1B
:1052D000C40AF1EE10FA35D333EE600A30EE420A1A
:1052E00020EE230A80ED000A30EE020A82ED000A69
:1052F00030EE200A34E0B4EEE40AF1EE10FA21D2E6
:1053000033EE610A30EE600A20EE230A82ED000AD5
:1053100030EE200A81ED000A30EE210A80ED000A0D
:1053200020E033EE420A30EE610A20EE230A81EDDE
:10533000000A30EE210A80ED000A30EE020A82ED0A
:10534000000A0FE033EE410A30EE620A20EE230A33
:1053500082ED000A30EE010A80ED000A30EE220AEA
:1053600081ED000A90ED000AB5EEC00AF1EE10FAE8
:105370001EDB10EE100AB0F17E5F19DC91ED000A21
:10538000B5EEC00AF1EE10FA12DB10EE100AB0F121
:105390007E5F0DDC92ED000AB5EEC00AF1EE10FA68
:1053A00006DB10EE100AB0F17E5FDCBF0020704714
:1053B0004FF0FF30704700003ACD133F3ACD13BF96
:1053C0003ACD933F3ACD93BF0A884B88B1F806C0D7
:1053D0001A438B8843EA0C031A430B891A434B89FF
:1053E00089891A431143416470470021018041803B
:1053F0008180C180018141818181704769B101292A
:1054000013D0022918BF7047016A21F4806101623C
:10541000016A41EA022101627047016A21F0040138
:105420000162016A114301627047016A21F0400183
:105430000162016A41EA0211EDE7000010B4774B06
:10544000DFF8DCC161B3012968D002297ED00329CD
:105450001CBF10BC7047016A21F480510162016ACF
:10546000148841EA04310162016A21F400510162A9
:10547000016A948841EA04310162984218BF60458C
:1054800008D1416821F4804141604168128941EAB4
:1054900082114160C16921F44071C16110BC704743
:1054A000016A21F001010162016A148841EA0401E4
:1054B0000162016A21F002010162016A948841EAF5
:1054C00004010162984218BF604523D1016A21F0AE
:1054D00004010162016A538841EA03010162016A21
:1054E00021F008010162016AD38841EA03010162E7
:1054F000416821F4807141604168138941EA0301E8
:105500004160416821F4007141604168528941EA7B
:1055100002014160816921F003013EE0016A21F04E
:1055200010010162016A148841EA04110162016AF2
:1055300021F020010162016A948841EA04110162AC
:10554000984218BF604525D1016A00E028E021F0AB
:1055500040010162016A538841EA03110162016A54
:1055600021F080010162016AD38841EA03110162DE
:10557000416821F4806141604168138941EA8301F7
:105580004160416821F4006141604168528941EA0B
:1055900082014160816921F44071816110BC7047D2
:1055A000016A21F480710162016A148841EA0421D0
:1055B0000162016A21F400710162016A948841EA82
:1055C00004210162984218BF604523D1016A21F489
:1055D00080610162016A538841EA03210162016A24
:1055E00021F400610162016AD38841EA032101626A
:1055F000416821F4805141604168138941EA0311F7
:105600004160416821F4005141604168528941EA9A
:1056100002114160C16921F003013EE7002C014005
:105620000034014079B1012914D002291BD003298B
:1056300018BF7047C16921F4E041C161C16941EA05
:105640000221C1617047816921F070018161816926
:10565000114306E0816921F4E0418161816941EAF9
:10566000022181617047C16921F07001C161C16986
:105670001143E6E7002904BF42637047012904BFD4
:1056800082637047022904BFC2637047032908BFC1
:105690000264704779B1012914D002291BD0032973
:1056A00018BF7047C16921F40061C161C16941EA55
:1056B0000221C1617047816921F00801816181691E
:1056C000114306E0816921F400618161816941EA49
:1056D000022181617047C16921F00801C161C1697E
:1056E0001143E6E771B1012913D002291AD0032929
:1056F00018BF7047016A21F480510162016A41EAD2
:1057000002310DE0016A21F001010162016A1143D9
:1057100006E0016A21F010010162016A41EA02110A
:1057200001627047016A21F480710162016A41EAF5
:105730000221F5E70021018041808180C180018143
:1057400041817047624A10B5811A90427ED02FDCA9
:10575000604AA0EB0201904271D015DCB0F1804F9D
:1057600059D0A0F58060B0F180405ED0B0F5806F78
:1057700018BF10BD40F20240FFF7A5FCBDE8104085
:1057800040F20240FFF790BCB1F5806F63D0B1F5F5
:10579000006F6AD0B1F5406F18BF10BD40F20640EF
:1057A000FFF791FCBDE8104040F20640FFF77CBCDB
:1057B000B1F5983F63D013DCB1F5806F7DD0B1F5C2
:1057C000883F1ED0B1F58C3F18BF10BD40F20D30A0
:1057D000FFF779FCBDE8104040F20D30FFF764BCE4
:1057E000B1F59A3F55D0B1F59C3F18BF10BD40F2BE
:1057F0001530FFF768FCBDE8104040F21530FFF7A8
:1058000053BC40F20B30FFF75EFCBDE8104040F2A5
:105810000B30FFF749BC4FF48060FFF754FCBDE844
:1058200010404FF48060FFF73FBC40F20140FFF7AB
:105830004AFCBDE8104040F20140FFF735BC40F2A1
:105840000340FFF740FC40F2034000E02BE0BDE8DE
:105850001040FFF729BC40F20440FFF734FCBDE8DC
:10586000104040F20440FFF71FBC40F20540FFF734
:105870002AFCBDE8104040F20540FFF715BC40F29D
:105880001330FFF720FCBDE8104040F21330FFF763
:105890000BBC4FF44570FFF716FCBDE810404FF409
:1058A0004570FFF701BC40F20740FFF70CFCBDE874
:1058B000104040F20740FFF7F7BB4FF48160FFF75D
:1058C00002FCBDE810404FF48160FFF7EDBB000023
:1058D000001C0040000C0040016841F00101016023
:1058E0007047C943016170470069084018BF012033
:1058F0007047000010B40A8882622C4A2C4B9042F8
:1059000018BFB0F1804F10D0A0F1804CBCF5806C76
:105910001CBFA0F1804CBCF5006C06D0A0F1804CFF
:10592000BCF5406C18BF984217D1D0F800C02CF0DD
:10593000700CC0F800C0D0F800C08C7804F060048F
:105940004CEA040CC0F800C0D0F800C00C7904F098
:1059500010044CEA040CC0F800C0D1F808C0C0F82C
:105960002CC0A0F1804CBCF5805C1CBFA0F1804C29
:10597000BCF5A05C13D0D0F800C02CF4407CC0F87B
:1059800000C0D0F800C08C8904F440744CEA040CC8
:10599000C0F800C0904212BF9842897B0163416900
:1059A00041F00101416110BC70470000002C014032
:1059B00000340140C2681143C1607047C9430161AE
:1059C00070470129416C0CBF41F4004121F40041B2
:1059D00041647047016370470021018041808180EC
:1059E0004FF6FF7282608181817370471501150146
:1059F000E300C900B800AC00A2009A0094008E0039
:105A00008900840080007D007900760073007100B9
:105A10006E006C0069006700650063006200600052
:105A20005E005D005B005A005800570056005400AD
:105A300053005200510050004F004D004C004B00ED
:105A40004A0049004800480047004600450044001D
:105A5000430042004200410040003F003F003E0042
:105A60003D003C003C003B003A003A003900380061
:105A7000380037003600360035003500340033007A
:105A80003300320032003100300030002F002F0090
:105A90002E002E002D002D002C002C002B002B00A2
:105AA0002A002A00290029002800280027002700B2
:105AB00026002600250025002400240023002300C2
:105AC00023002200220021002100200020001F00CE
:105AD0001F001F001E001E001D001D001C001C00DA
